{
	"contracts/IOU.sol": {
		"IOU": {
			"abi": [
				{
					"anonymous": false,
					"inputs": [
						{
							"indexed": true,
							"internalType": "address",
							"name": "previousOwner",
							"type": "address"
						},
						{
							"indexed": true,
							"internalType": "address",
							"name": "newOwner",
							"type": "address"
						}
					],
					"name": "OwnershipTransferred",
					"type": "event"
				},
				{
					"inputs": [
						{
							"internalType": "address",
							"name": "creditor",
							"type": "address"
						},
						{
							"internalType": "uint256",
							"name": "amount",
							"type": "uint256"
						}
					],
					"name": "add_IOU",
					"outputs": [],
					"stateMutability": "nonpayable",
					"type": "function"
				},
				{
					"inputs": [
						{
							"internalType": "address",
							"name": "user",
							"type": "address"
						}
					],
					"name": "getTotalOwed",
					"outputs": [
						{
							"internalType": "uint256",
							"name": "",
							"type": "uint256"
						}
					],
					"stateMutability": "view",
					"type": "function"
				},
				{
					"inputs": [
						{
							"internalType": "address",
							"name": "debtor",
							"type": "address"
						},
						{
							"internalType": "address",
							"name": "creditor",
							"type": "address"
						}
					],
					"name": "lookup",
					"outputs": [
						{
							"internalType": "uint256",
							"name": "",
							"type": "uint256"
						}
					],
					"stateMutability": "view",
					"type": "function"
				},
				{
					"inputs": [],
					"name": "owner",
					"outputs": [
						{
							"internalType": "address",
							"name": "",
							"type": "address"
						}
					],
					"stateMutability": "view",
					"type": "function"
				},
				{
					"inputs": [],
					"name": "renounceOwnership",
					"outputs": [],
					"stateMutability": "nonpayable",
					"type": "function"
				},
				{
					"inputs": [
						{
							"internalType": "address",
							"name": "newOwner",
							"type": "address"
						}
					],
					"name": "transferOwnership",
					"outputs": [],
					"stateMutability": "nonpayable",
					"type": "function"
				}
			],
			"devdoc": {
				"kind": "dev",
				"methods": {
					"owner()": {
						"details": "Returns the address of the current owner."
					},
					"renounceOwnership()": {
						"details": "Leaves the contract without owner. It will not be possible to call `onlyOwner` functions anymore. Can only be called by the current owner. NOTE: Renouncing ownership will leave the contract without an owner, thereby removing any functionality that is only available to the owner."
					},
					"transferOwnership(address)": {
						"details": "Transfers ownership of the contract to a new account (`newOwner`). Can only be called by the current owner."
					}
				},
				"version": 1
			},
			"evm": {
				"assembly": "    /* \"contracts/IOU.sol\":76:5103  contract IOU is Ownable{... */\n  mstore(0x40, 0x80)\n    /* \"contracts/IOU.sol\":272:273  0 */\n  0x00\n    /* \"contracts/IOU.sol\":244:273  uint internal total_users = 0 */\n  0x04\n  sstore\n    /* \"contracts/IOU.sol\":76:5103  contract IOU is Ownable{... */\n  callvalue\n  dup1\n  iszero\n  tag_1\n  jumpi\n  0x00\n  dup1\n  revert\ntag_1:\n  pop\n    /* \"contracts/ownable.sol\":856:873  address msgSender */\n  0x00\n    /* \"contracts/ownable.sol\":876:888  _msgSender() */\n  tag_4\n    /* \"contracts/ownable.sol\":876:886  _msgSender */\n  shl(0x20, tag_5)\n    /* \"contracts/ownable.sol\":876:888  _msgSender() */\n  0x20\n  shr\n  jump\t// in\ntag_4:\n    /* \"contracts/ownable.sol\":856:888  address msgSender = _msgSender() */\n  swap1\n  pop\n    /* \"contracts/ownable.sol\":903:912  msgSender */\n  dup1\n    /* \"contracts/ownable.sol\":894:900  _owner */\n  0x00\n  dup1\n    /* \"contracts/ownable.sol\":894:912  _owner = msgSender */\n  0x0100\n  exp\n  dup2\n  sload\n  dup2\n  0xffffffffffffffffffffffffffffffffffffffff\n  mul\n  not\n  and\n  swap1\n  dup4\n  0xffffffffffffffffffffffffffffffffffffffff\n  and\n  mul\n  or\n  swap1\n  sstore\n  pop\n    /* \"contracts/ownable.sol\":956:965  msgSender */\n  dup1\n    /* \"contracts/ownable.sol\":923:966  OwnershipTransferred(address(0), msgSender) */\n  0xffffffffffffffffffffffffffffffffffffffff\n  and\n    /* \"contracts/ownable.sol\":952:953  0 */\n  0x00\n    /* \"contracts/ownable.sol\":923:966  OwnershipTransferred(address(0), msgSender) */\n  0xffffffffffffffffffffffffffffffffffffffff\n  and\n  0x8be0079c531659141344cd1fd0a4f28419497f9722a3daafe3b4186f6b6457e0\n  mload(0x40)\n  mload(0x40)\n  dup1\n  swap2\n  sub\n  swap1\n  log3\n    /* \"contracts/ownable.sol\":850:971  {... */\n  pop\n    /* \"contracts/IOU.sol\":76:5103  contract IOU is Ownable{... */\n  jump(tag_6)\n    /* \"contracts/Context.sol\":588:695  function _msgSender() internal view virtual returns (address payable) {... */\ntag_5:\n    /* \"contracts/Context.sol\":641:656  address payable */\n  0x00\n    /* \"contracts/Context.sol\":679:689  msg.sender */\n  caller\n    /* \"contracts/Context.sol\":664:690  return payable(msg.sender) */\n  swap1\n  pop\n    /* \"contracts/Context.sol\":588:695  function _msgSender() internal view virtual returns (address payable) {... */\n  swap1\n  jump\t// out\n    /* \"contracts/IOU.sol\":76:5103  contract IOU is Ownable{... */\ntag_6:\n  dataSize(sub_0)\n  dup1\n  dataOffset(sub_0)\n  0x00\n  codecopy\n  0x00\n  return\nstop\n\nsub_0: assembly {\n        /* \"contracts/IOU.sol\":76:5103  contract IOU is Ownable{... */\n      mstore(0x40, 0x80)\n      callvalue\n      dup1\n      iszero\n      tag_1\n      jumpi\n      0x00\n      dup1\n      revert\n    tag_1:\n      pop\n      jumpi(tag_2, lt(calldatasize, 0x04))\n      shr(0xe0, calldataload(0x00))\n      dup1\n      0x215accc7\n      eq\n      tag_3\n      jumpi\n      dup1\n      0x713584a6\n      eq\n      tag_4\n      jumpi\n      dup1\n      0x715018a6\n      eq\n      tag_5\n      jumpi\n      dup1\n      0x73851075\n      eq\n      tag_6\n      jumpi\n      dup1\n      0x8da5cb5b\n      eq\n      tag_7\n      jumpi\n      dup1\n      0xf2fde38b\n      eq\n      tag_8\n      jumpi\n    tag_2:\n      0x00\n      dup1\n      revert\n        /* \"contracts/IOU.sol\":2983:4820  function add_IOU(address creditor, uint amount) public {... */\n    tag_3:\n      tag_9\n      0x04\n      dup1\n      calldatasize\n      sub\n      dup2\n      add\n      swap1\n      tag_10\n      swap2\n      swap1\n      tag_11\n      jump\t// in\n    tag_10:\n      tag_12\n      jump\t// in\n    tag_9:\n      stop\n        /* \"contracts/IOU.sol\":4877:5100  function lookup(address debtor, address creditor) public view returns(uint)... */\n    tag_4:\n      tag_13\n      0x04\n      dup1\n      calldatasize\n      sub\n      dup2\n      add\n      swap1\n      tag_14\n      swap2\n      swap1\n      tag_15\n      jump\t// in\n    tag_14:\n      tag_16\n      jump\t// in\n    tag_13:\n      mload(0x40)\n      tag_17\n      swap2\n      swap1\n      tag_18\n      jump\t// in\n    tag_17:\n      mload(0x40)\n      dup1\n      swap2\n      sub\n      swap1\n      return\n        /* \"contracts/ownable.sol\":1632:1767  function renounceOwnership() public virtual onlyOwner {... */\n    tag_5:\n      tag_19\n      tag_20\n      jump\t// in\n    tag_19:\n      stop\n        /* \"contracts/IOU.sol\":369:692  function getTotalOwed(address user) public view returns (uint256) {... */\n    tag_6:\n      tag_21\n      0x04\n      dup1\n      calldatasize\n      sub\n      dup2\n      add\n      swap1\n      tag_22\n      swap2\n      swap1\n      tag_23\n      jump\t// in\n    tag_22:\n      tag_24\n      jump\t// in\n    tag_21:\n      mload(0x40)\n      tag_25\n      swap2\n      swap1\n      tag_18\n      jump\t// in\n    tag_25:\n      mload(0x40)\n      dup1\n      swap2\n      sub\n      swap1\n      return\n        /* \"contracts/ownable.sol\":1041:1112  function owner() public view returns (address) {... */\n    tag_7:\n      tag_26\n      tag_27\n      jump\t// in\n    tag_26:\n      mload(0x40)\n      tag_28\n      swap2\n      swap1\n      tag_29\n      jump\t// in\n    tag_28:\n      mload(0x40)\n      dup1\n      swap2\n      sub\n      swap1\n      return\n        /* \"contracts/ownable.sol\":1909:2135  function transferOwnership(address newOwner) public virtual onlyOwner {... */\n    tag_8:\n      tag_30\n      0x04\n      dup1\n      calldatasize\n      sub\n      dup2\n      add\n      swap1\n      tag_31\n      swap2\n      swap1\n      tag_23\n      jump\t// in\n    tag_31:\n      tag_32\n      jump\t// in\n    tag_30:\n      stop\n        /* \"contracts/IOU.sol\":2983:4820  function add_IOU(address creditor, uint amount) public {... */\n    tag_12:\n        /* \"contracts/IOU.sol\":3067:3068  0 */\n      0x00\n        /* \"contracts/IOU.sol\":3057:3063  amount */\n      dup2\n        /* \"contracts/IOU.sol\":3057:3068  amount >= 0 */\n      lt\n      iszero\n        /* \"contracts/IOU.sol\":3049:3079  require(amount >= 0, \"ERROR!\") */\n      tag_34\n      jumpi\n      mload(0x40)\n      0x08c379a000000000000000000000000000000000000000000000000000000000\n      dup2\n      mstore\n      0x04\n      add\n      tag_35\n      swap1\n      tag_36\n      jump\t// in\n    tag_35:\n      mload(0x40)\n      dup1\n      swap2\n      sub\n      swap1\n      revert\n    tag_34:\n        /* \"contracts/IOU.sol\":3109:3110  0 */\n      0x00\n        /* \"contracts/IOU.sol\":3094:3105  total_users */\n      sload(0x04)\n        /* \"contracts/IOU.sol\":3094:3110  total_users == 0 */\n      sub\n        /* \"contracts/IOU.sol\":3090:4143  if (total_users == 0) ... */\n      tag_37\n      jumpi\n        /* \"contracts/IOU.sol\":3137:3157  add_User(msg.sender) */\n      tag_38\n        /* \"contracts/IOU.sol\":3146:3156  msg.sender */\n      caller\n        /* \"contracts/IOU.sol\":3137:3145  add_User */\n      tag_39\n        /* \"contracts/IOU.sol\":3137:3157  add_User(msg.sender) */\n      jump\t// in\n    tag_38:\n        /* \"contracts/IOU.sol\":3172:3190  add_User(creditor) */\n      tag_40\n        /* \"contracts/IOU.sol\":3181:3189  creditor */\n      dup3\n        /* \"contracts/IOU.sol\":3172:3180  add_User */\n      tag_39\n        /* \"contracts/IOU.sol\":3172:3190  add_User(creditor) */\n      jump\t// in\n    tag_40:\n        /* \"contracts/IOU.sol\":3205:3209  IOUs */\n      0x01\n        /* \"contracts/IOU.sol\":3205:3221  IOUs.push([0,0]) */\n      mload(0x40)\n      dup1\n      0x40\n      add\n      0x40\n      mstore\n      dup1\n        /* \"contracts/IOU.sol\":3216:3217  0 */\n      0x00\n        /* \"contracts/IOU.sol\":3205:3221  IOUs.push([0,0]) */\n      0xff\n      and\n      dup2\n      mstore\n      0x20\n      add\n        /* \"contracts/IOU.sol\":3218:3219  0 */\n      0x00\n        /* \"contracts/IOU.sol\":3205:3221  IOUs.push([0,0]) */\n      0xff\n      and\n      dup2\n      mstore\n      pop\n      swap1\n      dup1\n      0x01\n      dup2\n      sload\n      add\n      dup1\n      dup3\n      sstore\n      dup1\n      swap2\n      pop\n      pop\n      0x01\n      swap1\n      sub\n      swap1\n      0x00\n      mstore\n      keccak256(0x00, 0x20)\n      add\n      0x00\n      swap1\n      swap2\n      swap1\n      swap2\n      swap1\n      swap2\n      pop\n      swap1\n      0x02\n      tag_42\n      swap3\n      swap2\n      swap1\n      tag_43\n      jump\t// in\n    tag_42:\n      pop\n        /* \"contracts/IOU.sol\":3236:3240  IOUs */\n      0x01\n        /* \"contracts/IOU.sol\":3236:3252  IOUs.push([0,0]) */\n      mload(0x40)\n      dup1\n      0x40\n      add\n      0x40\n      mstore\n      dup1\n        /* \"contracts/IOU.sol\":3247:3248  0 */\n      0x00\n        /* \"contracts/IOU.sol\":3236:3252  IOUs.push([0,0]) */\n      0xff\n      and\n      dup2\n      mstore\n      0x20\n      add\n        /* \"contracts/IOU.sol\":3249:3250  0 */\n      0x00\n        /* \"contracts/IOU.sol\":3236:3252  IOUs.push([0,0]) */\n      0xff\n      and\n      dup2\n      mstore\n      pop\n      swap1\n      dup1\n      0x01\n      dup2\n      sload\n      add\n      dup1\n      dup3\n      sstore\n      dup1\n      swap2\n      pop\n      pop\n      0x01\n      swap1\n      sub\n      swap1\n      0x00\n      mstore\n      keccak256(0x00, 0x20)\n      add\n      0x00\n      swap1\n      swap2\n      swap1\n      swap2\n      swap1\n      swap2\n      pop\n      swap1\n      0x02\n      tag_45\n      swap3\n      swap2\n      swap1\n      tag_43\n      jump\t// in\n    tag_45:\n      pop\n        /* \"contracts/IOU.sol\":3090:4143  if (total_users == 0) ... */\n      jump(tag_46)\n    tag_37:\n        /* \"contracts/IOU.sol\":3332:3337  false */\n      0x00\n        /* \"contracts/IOU.sol\":3308:3337  findUser(msg.sender) == false */\n      iszero\n      iszero\n        /* \"contracts/IOU.sol\":3308:3328  findUser(msg.sender) */\n      tag_47\n        /* \"contracts/IOU.sol\":3317:3327  msg.sender */\n      caller\n        /* \"contracts/IOU.sol\":3308:3316  findUser */\n      tag_48\n        /* \"contracts/IOU.sol\":3308:3328  findUser(msg.sender) */\n      jump\t// in\n    tag_47:\n        /* \"contracts/IOU.sol\":3308:3337  findUser(msg.sender) == false */\n      iszero\n      iszero\n      sub\n        /* \"contracts/IOU.sol\":3304:3713  if (findUser(msg.sender) == false) ... */\n      tag_49\n      jumpi\n        /* \"contracts/IOU.sol\":3377:3383  uint i */\n      0x00\n        /* \"contracts/IOU.sol\":3372:3485  for (uint i = 0; i < total_users;i++)... */\n    tag_50:\n        /* \"contracts/IOU.sol\":3393:3404  total_users */\n      sload(0x04)\n        /* \"contracts/IOU.sol\":3389:3390  i */\n      dup2\n        /* \"contracts/IOU.sol\":3389:3404  i < total_users */\n      lt\n        /* \"contracts/IOU.sol\":3372:3485  for (uint i = 0; i < total_users;i++)... */\n      iszero\n      tag_51\n      jumpi\n        /* \"contracts/IOU.sol\":3450:3454  IOUs */\n      0x01\n        /* \"contracts/IOU.sol\":3455:3456  i */\n      dup2\n        /* \"contracts/IOU.sol\":3450:3457  IOUs[i] */\n      dup2\n      sload\n      dup2\n      lt\n      tag_53\n      jumpi\n      tag_54\n      tag_55\n      jump\t// in\n    tag_54:\n    tag_53:\n      swap1\n      0x00\n      mstore\n      keccak256(0x00, 0x20)\n      add\n        /* \"contracts/IOU.sol\":3463:3464  0 */\n      0x00\n        /* \"contracts/IOU.sol\":3450:3465  IOUs[i].push(0) */\n      swap1\n      dup1\n      0x01\n      dup2\n      sload\n      add\n      dup1\n      dup3\n      sstore\n      dup1\n      swap2\n      pop\n      pop\n      0x01\n      swap1\n      sub\n      swap1\n      0x00\n      mstore\n      keccak256(0x00, 0x20)\n      add\n      0x00\n      swap1\n      swap2\n      swap1\n      swap2\n      swap1\n      swap2\n      pop\n      sstore\n        /* \"contracts/IOU.sol\":3405:3408  i++ */\n      dup1\n      dup1\n      tag_58\n      swap1\n      tag_59\n      jump\t// in\n    tag_58:\n      swap2\n      pop\n      pop\n        /* \"contracts/IOU.sol\":3372:3485  for (uint i = 0; i < total_users;i++)... */\n      jump(tag_50)\n    tag_51:\n      pop\n        /* \"contracts/IOU.sol\":3503:3507  IOUs */\n      0x01\n        /* \"contracts/IOU.sol\":3503:3517  IOUs.push([0]) */\n      mload(0x40)\n      dup1\n      0x20\n      add\n      0x40\n      mstore\n      dup1\n        /* \"contracts/IOU.sol\":3514:3515  0 */\n      0x00\n        /* \"contracts/IOU.sol\":3503:3517  IOUs.push([0]) */\n      0xff\n      and\n      dup2\n      mstore\n      pop\n      swap1\n      dup1\n      0x01\n      dup2\n      sload\n      add\n      dup1\n      dup3\n      sstore\n      dup1\n      swap2\n      pop\n      pop\n      0x01\n      swap1\n      sub\n      swap1\n      0x00\n      mstore\n      keccak256(0x00, 0x20)\n      add\n      0x00\n      swap1\n      swap2\n      swap1\n      swap2\n      swap1\n      swap2\n      pop\n      swap1\n      0x01\n      tag_61\n      swap3\n      swap2\n      swap1\n      tag_62\n      jump\t// in\n    tag_61:\n      pop\n        /* \"contracts/IOU.sol\":3541:3547  uint i */\n      0x00\n        /* \"contracts/IOU.sol\":3536:3659  for (uint i = 0; i < total_users;i++)... */\n    tag_63:\n        /* \"contracts/IOU.sol\":3557:3568  total_users */\n      sload(0x04)\n        /* \"contracts/IOU.sol\":3553:3554  i */\n      dup2\n        /* \"contracts/IOU.sol\":3553:3568  i < total_users */\n      lt\n        /* \"contracts/IOU.sol\":3536:3659  for (uint i = 0; i < total_users;i++)... */\n      iszero\n      tag_64\n      jumpi\n        /* \"contracts/IOU.sol\":3614:3618  IOUs */\n      0x01\n        /* \"contracts/IOU.sol\":3619:3630  total_users */\n      sload(0x04)\n        /* \"contracts/IOU.sol\":3614:3631  IOUs[total_users] */\n      dup2\n      sload\n      dup2\n      lt\n      tag_66\n      jumpi\n      tag_67\n      tag_55\n      jump\t// in\n    tag_67:\n    tag_66:\n      swap1\n      0x00\n      mstore\n      keccak256(0x00, 0x20)\n      add\n        /* \"contracts/IOU.sol\":3637:3638  0 */\n      0x00\n        /* \"contracts/IOU.sol\":3614:3639  IOUs[total_users].push(0) */\n      swap1\n      dup1\n      0x01\n      dup2\n      sload\n      add\n      dup1\n      dup3\n      sstore\n      dup1\n      swap2\n      pop\n      pop\n      0x01\n      swap1\n      sub\n      swap1\n      0x00\n      mstore\n      keccak256(0x00, 0x20)\n      add\n      0x00\n      swap1\n      swap2\n      swap1\n      swap2\n      swap1\n      swap2\n      pop\n      sstore\n        /* \"contracts/IOU.sol\":3569:3572  i++ */\n      dup1\n      dup1\n      tag_70\n      swap1\n      tag_59\n      jump\t// in\n    tag_70:\n      swap2\n      pop\n      pop\n        /* \"contracts/IOU.sol\":3536:3659  for (uint i = 0; i < total_users;i++)... */\n      jump(tag_63)\n    tag_64:\n      pop\n        /* \"contracts/IOU.sol\":3677:3697  add_User(msg.sender) */\n      tag_71\n        /* \"contracts/IOU.sol\":3686:3696  msg.sender */\n      caller\n        /* \"contracts/IOU.sol\":3677:3685  add_User */\n      tag_39\n        /* \"contracts/IOU.sol\":3677:3697  add_User(msg.sender) */\n      jump\t// in\n    tag_71:\n        /* \"contracts/IOU.sol\":3304:3713  if (findUser(msg.sender) == false) ... */\n    tag_49:\n        /* \"contracts/IOU.sol\":3753:3758  false */\n      0x00\n        /* \"contracts/IOU.sol\":3731:3758  findUser(creditor) == false */\n      iszero\n      iszero\n        /* \"contracts/IOU.sol\":3731:3749  findUser(creditor) */\n      tag_72\n        /* \"contracts/IOU.sol\":3740:3748  creditor */\n      dup4\n        /* \"contracts/IOU.sol\":3731:3739  findUser */\n      tag_48\n        /* \"contracts/IOU.sol\":3731:3749  findUser(creditor) */\n      jump\t// in\n    tag_72:\n        /* \"contracts/IOU.sol\":3731:3758  findUser(creditor) == false */\n      iszero\n      iszero\n      sub\n        /* \"contracts/IOU.sol\":3727:4132  if (findUser(creditor) == false) ... */\n      tag_73\n      jumpi\n        /* \"contracts/IOU.sol\":3798:3804  uint i */\n      0x00\n        /* \"contracts/IOU.sol\":3793:3906  for (uint i = 0; i < total_users;i++)... */\n    tag_74:\n        /* \"contracts/IOU.sol\":3814:3825  total_users */\n      sload(0x04)\n        /* \"contracts/IOU.sol\":3810:3811  i */\n      dup2\n        /* \"contracts/IOU.sol\":3810:3825  i < total_users */\n      lt\n        /* \"contracts/IOU.sol\":3793:3906  for (uint i = 0; i < total_users;i++)... */\n      iszero\n      tag_75\n      jumpi\n        /* \"contracts/IOU.sol\":3871:3875  IOUs */\n      0x01\n        /* \"contracts/IOU.sol\":3876:3877  i */\n      dup2\n        /* \"contracts/IOU.sol\":3871:3878  IOUs[i] */\n      dup2\n      sload\n      dup2\n      lt\n      tag_77\n      jumpi\n      tag_78\n      tag_55\n      jump\t// in\n    tag_78:\n    tag_77:\n      swap1\n      0x00\n      mstore\n      keccak256(0x00, 0x20)\n      add\n        /* \"contracts/IOU.sol\":3884:3885  0 */\n      0x00\n        /* \"contracts/IOU.sol\":3871:3886  IOUs[i].push(0) */\n      swap1\n      dup1\n      0x01\n      dup2\n      sload\n      add\n      dup1\n      dup3\n      sstore\n      dup1\n      swap2\n      pop\n      pop\n      0x01\n      swap1\n      sub\n      swap1\n      0x00\n      mstore\n      keccak256(0x00, 0x20)\n      add\n      0x00\n      swap1\n      swap2\n      swap1\n      swap2\n      swap1\n      swap2\n      pop\n      sstore\n        /* \"contracts/IOU.sol\":3826:3829  i++ */\n      dup1\n      dup1\n      tag_81\n      swap1\n      tag_59\n      jump\t// in\n    tag_81:\n      swap2\n      pop\n      pop\n        /* \"contracts/IOU.sol\":3793:3906  for (uint i = 0; i < total_users;i++)... */\n      jump(tag_74)\n    tag_75:\n      pop\n        /* \"contracts/IOU.sol\":3924:3928  IOUs */\n      0x01\n        /* \"contracts/IOU.sol\":3924:3938  IOUs.push([0]) */\n      mload(0x40)\n      dup1\n      0x20\n      add\n      0x40\n      mstore\n      dup1\n        /* \"contracts/IOU.sol\":3935:3936  0 */\n      0x00\n        /* \"contracts/IOU.sol\":3924:3938  IOUs.push([0]) */\n      0xff\n      and\n      dup2\n      mstore\n      pop\n      swap1\n      dup1\n      0x01\n      dup2\n      sload\n      add\n      dup1\n      dup3\n      sstore\n      dup1\n      swap2\n      pop\n      pop\n      0x01\n      swap1\n      sub\n      swap1\n      0x00\n      mstore\n      keccak256(0x00, 0x20)\n      add\n      0x00\n      swap1\n      swap2\n      swap1\n      swap2\n      swap1\n      swap2\n      pop\n      swap1\n      0x01\n      tag_83\n      swap3\n      swap2\n      swap1\n      tag_62\n      jump\t// in\n    tag_83:\n      pop\n        /* \"contracts/IOU.sol\":3962:3968  uint i */\n      0x00\n        /* \"contracts/IOU.sol\":3957:4080  for (uint i = 0; i < total_users;i++)... */\n    tag_84:\n        /* \"contracts/IOU.sol\":3978:3989  total_users */\n      sload(0x04)\n        /* \"contracts/IOU.sol\":3974:3975  i */\n      dup2\n        /* \"contracts/IOU.sol\":3974:3989  i < total_users */\n      lt\n        /* \"contracts/IOU.sol\":3957:4080  for (uint i = 0; i < total_users;i++)... */\n      iszero\n      tag_85\n      jumpi\n        /* \"contracts/IOU.sol\":4035:4039  IOUs */\n      0x01\n        /* \"contracts/IOU.sol\":4040:4051  total_users */\n      sload(0x04)\n        /* \"contracts/IOU.sol\":4035:4052  IOUs[total_users] */\n      dup2\n      sload\n      dup2\n      lt\n      tag_87\n      jumpi\n      tag_88\n      tag_55\n      jump\t// in\n    tag_88:\n    tag_87:\n      swap1\n      0x00\n      mstore\n      keccak256(0x00, 0x20)\n      add\n        /* \"contracts/IOU.sol\":4058:4059  0 */\n      0x00\n        /* \"contracts/IOU.sol\":4035:4060  IOUs[total_users].push(0) */\n      swap1\n      dup1\n      0x01\n      dup2\n      sload\n      add\n      dup1\n      dup3\n      sstore\n      dup1\n      swap2\n      pop\n      pop\n      0x01\n      swap1\n      sub\n      swap1\n      0x00\n      mstore\n      keccak256(0x00, 0x20)\n      add\n      0x00\n      swap1\n      swap2\n      swap1\n      swap2\n      swap1\n      swap2\n      pop\n      sstore\n        /* \"contracts/IOU.sol\":3990:3993  i++ */\n      dup1\n      dup1\n      tag_91\n      swap1\n      tag_59\n      jump\t// in\n    tag_91:\n      swap2\n      pop\n      pop\n        /* \"contracts/IOU.sol\":3957:4080  for (uint i = 0; i < total_users;i++)... */\n      jump(tag_84)\n    tag_85:\n      pop\n        /* \"contracts/IOU.sol\":4098:4116  add_User(creditor) */\n      tag_92\n        /* \"contracts/IOU.sol\":4107:4115  creditor */\n      dup3\n        /* \"contracts/IOU.sol\":4098:4106  add_User */\n      tag_39\n        /* \"contracts/IOU.sol\":4098:4116  add_User(creditor) */\n      jump\t// in\n    tag_92:\n        /* \"contracts/IOU.sol\":3727:4132  if (findUser(creditor) == false) ... */\n    tag_73:\n        /* \"contracts/IOU.sol\":3090:4143  if (total_users == 0) ... */\n    tag_46:\n        /* \"contracts/IOU.sol\":4153:4167  address debtor */\n      0x00\n        /* \"contracts/IOU.sol\":4170:4180  msg.sender */\n      caller\n        /* \"contracts/IOU.sol\":4153:4180  address debtor = msg.sender */\n      swap1\n      pop\n        /* \"contracts/IOU.sol\":4278:4284  amount */\n      dup2\n        /* \"contracts/IOU.sol\":4234:4238  IOUs */\n      0x01\n        /* \"contracts/IOU.sol\":4239:4246  userIDs */\n      0x02\n        /* \"contracts/IOU.sol\":4239:4254  userIDs[debtor] */\n      0x00\n        /* \"contracts/IOU.sol\":4247:4253  debtor */\n      dup5\n        /* \"contracts/IOU.sol\":4239:4254  userIDs[debtor] */\n      0xffffffffffffffffffffffffffffffffffffffff\n      and\n      0xffffffffffffffffffffffffffffffffffffffff\n      and\n      dup2\n      mstore\n      0x20\n      add\n      swap1\n      dup2\n      mstore\n      0x20\n      add\n      0x00\n      keccak256\n      sload\n        /* \"contracts/IOU.sol\":4234:4255  IOUs[userIDs[debtor]] */\n      dup2\n      sload\n      dup2\n      lt\n      tag_93\n      jumpi\n      tag_94\n      tag_55\n      jump\t// in\n    tag_94:\n    tag_93:\n      swap1\n      0x00\n      mstore\n      keccak256(0x00, 0x20)\n      add\n        /* \"contracts/IOU.sol\":4256:4263  userIDs */\n      0x02\n        /* \"contracts/IOU.sol\":4256:4273  userIDs[creditor] */\n      0x00\n        /* \"contracts/IOU.sol\":4264:4272  creditor */\n      dup7\n        /* \"contracts/IOU.sol\":4256:4273  userIDs[creditor] */\n      0xffffffffffffffffffffffffffffffffffffffff\n      and\n      0xffffffffffffffffffffffffffffffffffffffff\n      and\n      dup2\n      mstore\n      0x20\n      add\n      swap1\n      dup2\n      mstore\n      0x20\n      add\n      0x00\n      keccak256\n      sload\n        /* \"contracts/IOU.sol\":4234:4274  IOUs[userIDs[debtor]][userIDs[creditor]] */\n      dup2\n      sload\n      dup2\n      lt\n      tag_96\n      jumpi\n      tag_97\n      tag_55\n      jump\t// in\n    tag_97:\n    tag_96:\n      swap1\n      0x00\n      mstore\n      keccak256(0x00, 0x20)\n      add\n      sload\n        /* \"contracts/IOU.sol\":4234:4284  IOUs[userIDs[debtor]][userIDs[creditor]]  + amount */\n      tag_99\n      swap2\n      swap1\n      tag_100\n      jump\t// in\n    tag_99:\n        /* \"contracts/IOU.sol\":4191:4195  IOUs */\n      0x01\n        /* \"contracts/IOU.sol\":4196:4203  userIDs */\n      0x02\n        /* \"contracts/IOU.sol\":4196:4211  userIDs[debtor] */\n      0x00\n        /* \"contracts/IOU.sol\":4204:4210  debtor */\n      dup5\n        /* \"contracts/IOU.sol\":4196:4211  userIDs[debtor] */\n      0xffffffffffffffffffffffffffffffffffffffff\n      and\n      0xffffffffffffffffffffffffffffffffffffffff\n      and\n      dup2\n      mstore\n      0x20\n      add\n      swap1\n      dup2\n      mstore\n      0x20\n      add\n      0x00\n      keccak256\n      sload\n        /* \"contracts/IOU.sol\":4191:4212  IOUs[userIDs[debtor]] */\n      dup2\n      sload\n      dup2\n      lt\n      tag_101\n      jumpi\n      tag_102\n      tag_55\n      jump\t// in\n    tag_102:\n    tag_101:\n      swap1\n      0x00\n      mstore\n      keccak256(0x00, 0x20)\n      add\n        /* \"contracts/IOU.sol\":4213:4220  userIDs */\n      0x02\n        /* \"contracts/IOU.sol\":4213:4230  userIDs[creditor] */\n      0x00\n        /* \"contracts/IOU.sol\":4221:4229  creditor */\n      dup7\n        /* \"contracts/IOU.sol\":4213:4230  userIDs[creditor] */\n      0xffffffffffffffffffffffffffffffffffffffff\n      and\n      0xffffffffffffffffffffffffffffffffffffffff\n      and\n      dup2\n      mstore\n      0x20\n      add\n      swap1\n      dup2\n      mstore\n      0x20\n      add\n      0x00\n      keccak256\n      sload\n        /* \"contracts/IOU.sol\":4191:4231  IOUs[userIDs[debtor]][userIDs[creditor]] */\n      dup2\n      sload\n      dup2\n      lt\n      tag_104\n      jumpi\n      tag_105\n      tag_55\n      jump\t// in\n    tag_105:\n    tag_104:\n      swap1\n      0x00\n      mstore\n      keccak256(0x00, 0x20)\n      add\n        /* \"contracts/IOU.sol\":4191:4284  IOUs[userIDs[debtor]][userIDs[creditor]] = IOUs[userIDs[debtor]][userIDs[creditor]]  + amount */\n      dup2\n      swap1\n      sstore\n      pop\n        /* \"contracts/IOU.sol\":4343:4344  0 */\n      0x00\n        /* \"contracts/IOU.sol\":4299:4303  IOUs */\n      0x01\n        /* \"contracts/IOU.sol\":4304:4311  userIDs */\n      0x02\n        /* \"contracts/IOU.sol\":4304:4321  userIDs[creditor] */\n      0x00\n        /* \"contracts/IOU.sol\":4312:4320  creditor */\n      dup7\n        /* \"contracts/IOU.sol\":4304:4321  userIDs[creditor] */\n      0xffffffffffffffffffffffffffffffffffffffff\n      and\n      0xffffffffffffffffffffffffffffffffffffffff\n      and\n      dup2\n      mstore\n      0x20\n      add\n      swap1\n      dup2\n      mstore\n      0x20\n      add\n      0x00\n      keccak256\n      sload\n        /* \"contracts/IOU.sol\":4299:4322  IOUs[userIDs[creditor]] */\n      dup2\n      sload\n      dup2\n      lt\n      tag_107\n      jumpi\n      tag_108\n      tag_55\n      jump\t// in\n    tag_108:\n    tag_107:\n      swap1\n      0x00\n      mstore\n      keccak256(0x00, 0x20)\n      add\n        /* \"contracts/IOU.sol\":4323:4330  userIDs */\n      0x02\n        /* \"contracts/IOU.sol\":4323:4338  userIDs[debtor] */\n      0x00\n        /* \"contracts/IOU.sol\":4331:4337  debtor */\n      dup5\n        /* \"contracts/IOU.sol\":4323:4338  userIDs[debtor] */\n      0xffffffffffffffffffffffffffffffffffffffff\n      and\n      0xffffffffffffffffffffffffffffffffffffffff\n      and\n      dup2\n      mstore\n      0x20\n      add\n      swap1\n      dup2\n      mstore\n      0x20\n      add\n      0x00\n      keccak256\n      sload\n        /* \"contracts/IOU.sol\":4299:4339  IOUs[userIDs[creditor]][userIDs[debtor]] */\n      dup2\n      sload\n      dup2\n      lt\n      tag_110\n      jumpi\n      tag_111\n      tag_55\n      jump\t// in\n    tag_111:\n    tag_110:\n      swap1\n      0x00\n      mstore\n      keccak256(0x00, 0x20)\n      add\n      sload\n        /* \"contracts/IOU.sol\":4299:4344  IOUs[userIDs[creditor]][userIDs[debtor]] != 0 */\n      eq\n        /* \"contracts/IOU.sol\":4295:4811  if (IOUs[userIDs[creditor]][userIDs[debtor]] != 0)... */\n      tag_113\n      jumpi\n        /* \"contracts/IOU.sol\":4370:4385  uint min_amount */\n      0x00\n        /* \"contracts/IOU.sol\":4388:4392  IOUs */\n      0x01\n        /* \"contracts/IOU.sol\":4393:4400  userIDs */\n      0x02\n        /* \"contracts/IOU.sol\":4393:4410  userIDs[creditor] */\n      0x00\n        /* \"contracts/IOU.sol\":4401:4409  creditor */\n      dup7\n        /* \"contracts/IOU.sol\":4393:4410  userIDs[creditor] */\n      0xffffffffffffffffffffffffffffffffffffffff\n      and\n      0xffffffffffffffffffffffffffffffffffffffff\n      and\n      dup2\n      mstore\n      0x20\n      add\n      swap1\n      dup2\n      mstore\n      0x20\n      add\n      0x00\n      keccak256\n      sload\n        /* \"contracts/IOU.sol\":4388:4411  IOUs[userIDs[creditor]] */\n      dup2\n      sload\n      dup2\n      lt\n      tag_114\n      jumpi\n      tag_115\n      tag_55\n      jump\t// in\n    tag_115:\n    tag_114:\n      swap1\n      0x00\n      mstore\n      keccak256(0x00, 0x20)\n      add\n        /* \"contracts/IOU.sol\":4412:4419  userIDs */\n      0x02\n        /* \"contracts/IOU.sol\":4412:4427  userIDs[debtor] */\n      0x00\n        /* \"contracts/IOU.sol\":4420:4426  debtor */\n      dup5\n        /* \"contracts/IOU.sol\":4412:4427  userIDs[debtor] */\n      0xffffffffffffffffffffffffffffffffffffffff\n      and\n      0xffffffffffffffffffffffffffffffffffffffff\n      and\n      dup2\n      mstore\n      0x20\n      add\n      swap1\n      dup2\n      mstore\n      0x20\n      add\n      0x00\n      keccak256\n      sload\n        /* \"contracts/IOU.sol\":4388:4428  IOUs[userIDs[creditor]][userIDs[debtor]] */\n      dup2\n      sload\n      dup2\n      lt\n      tag_117\n      jumpi\n      tag_118\n      tag_55\n      jump\t// in\n    tag_118:\n    tag_117:\n      swap1\n      0x00\n      mstore\n      keccak256(0x00, 0x20)\n      add\n      sload\n        /* \"contracts/IOU.sol\":4370:4428  uint min_amount = IOUs[userIDs[creditor]][userIDs[debtor]] */\n      swap1\n      pop\n        /* \"contracts/IOU.sol\":4490:4500  min_amount */\n      dup1\n        /* \"contracts/IOU.sol\":4447:4451  IOUs */\n      0x01\n        /* \"contracts/IOU.sol\":4452:4459  userIDs */\n      0x02\n        /* \"contracts/IOU.sol\":4452:4467  userIDs[debtor] */\n      0x00\n        /* \"contracts/IOU.sol\":4460:4466  debtor */\n      dup6\n        /* \"contracts/IOU.sol\":4452:4467  userIDs[debtor] */\n      0xffffffffffffffffffffffffffffffffffffffff\n      and\n      0xffffffffffffffffffffffffffffffffffffffff\n      and\n      dup2\n      mstore\n      0x20\n      add\n      swap1\n      dup2\n      mstore\n      0x20\n      add\n      0x00\n      keccak256\n      sload\n        /* \"contracts/IOU.sol\":4447:4468  IOUs[userIDs[debtor]] */\n      dup2\n      sload\n      dup2\n      lt\n      tag_120\n      jumpi\n      tag_121\n      tag_55\n      jump\t// in\n    tag_121:\n    tag_120:\n      swap1\n      0x00\n      mstore\n      keccak256(0x00, 0x20)\n      add\n        /* \"contracts/IOU.sol\":4469:4476  userIDs */\n      0x02\n        /* \"contracts/IOU.sol\":4469:4486  userIDs[creditor] */\n      0x00\n        /* \"contracts/IOU.sol\":4477:4485  creditor */\n      dup8\n        /* \"contracts/IOU.sol\":4469:4486  userIDs[creditor] */\n      0xffffffffffffffffffffffffffffffffffffffff\n      and\n      0xffffffffffffffffffffffffffffffffffffffff\n      and\n      dup2\n      mstore\n      0x20\n      add\n      swap1\n      dup2\n      mstore\n      0x20\n      add\n      0x00\n      keccak256\n      sload\n        /* \"contracts/IOU.sol\":4447:4487  IOUs[userIDs[debtor]][userIDs[creditor]] */\n      dup2\n      sload\n      dup2\n      lt\n      tag_123\n      jumpi\n      tag_124\n      tag_55\n      jump\t// in\n    tag_124:\n    tag_123:\n      swap1\n      0x00\n      mstore\n      keccak256(0x00, 0x20)\n      add\n      sload\n        /* \"contracts/IOU.sol\":4447:4500  IOUs[userIDs[debtor]][userIDs[creditor]] < min_amount */\n      lt\n        /* \"contracts/IOU.sol\":4443:4555  if (IOUs[userIDs[debtor]][userIDs[creditor]] < min_amount) min_amount = IOUs[userIDs[debtor]][userIDs[creditor]] */\n      iszero\n      tag_126\n      jumpi\n        /* \"contracts/IOU.sol\":4515:4519  IOUs */\n      0x01\n        /* \"contracts/IOU.sol\":4520:4527  userIDs */\n      0x02\n        /* \"contracts/IOU.sol\":4520:4535  userIDs[debtor] */\n      0x00\n        /* \"contracts/IOU.sol\":4528:4534  debtor */\n      dup5\n        /* \"contracts/IOU.sol\":4520:4535  userIDs[debtor] */\n      0xffffffffffffffffffffffffffffffffffffffff\n      and\n      0xffffffffffffffffffffffffffffffffffffffff\n      and\n      dup2\n      mstore\n      0x20\n      add\n      swap1\n      dup2\n      mstore\n      0x20\n      add\n      0x00\n      keccak256\n      sload\n        /* \"contracts/IOU.sol\":4515:4536  IOUs[userIDs[debtor]] */\n      dup2\n      sload\n      dup2\n      lt\n      tag_127\n      jumpi\n      tag_128\n      tag_55\n      jump\t// in\n    tag_128:\n    tag_127:\n      swap1\n      0x00\n      mstore\n      keccak256(0x00, 0x20)\n      add\n        /* \"contracts/IOU.sol\":4537:4544  userIDs */\n      0x02\n        /* \"contracts/IOU.sol\":4537:4554  userIDs[creditor] */\n      0x00\n        /* \"contracts/IOU.sol\":4545:4553  creditor */\n      dup7\n        /* \"contracts/IOU.sol\":4537:4554  userIDs[creditor] */\n      0xffffffffffffffffffffffffffffffffffffffff\n      and\n      0xffffffffffffffffffffffffffffffffffffffff\n      and\n      dup2\n      mstore\n      0x20\n      add\n      swap1\n      dup2\n      mstore\n      0x20\n      add\n      0x00\n      keccak256\n      sload\n        /* \"contracts/IOU.sol\":4515:4555  IOUs[userIDs[debtor]][userIDs[creditor]] */\n      dup2\n      sload\n      dup2\n      lt\n      tag_130\n      jumpi\n      tag_131\n      tag_55\n      jump\t// in\n    tag_131:\n    tag_130:\n      swap1\n      0x00\n      mstore\n      keccak256(0x00, 0x20)\n      add\n      sload\n        /* \"contracts/IOU.sol\":4502:4555  min_amount = IOUs[userIDs[debtor]][userIDs[creditor]] */\n      swap1\n      pop\n        /* \"contracts/IOU.sol\":4443:4555  if (IOUs[userIDs[debtor]][userIDs[creditor]] < min_amount) min_amount = IOUs[userIDs[debtor]][userIDs[creditor]] */\n    tag_126:\n        /* \"contracts/IOU.sol\":4656:4666  min_amount */\n      dup1\n        /* \"contracts/IOU.sol\":4613:4617  IOUs */\n      0x01\n        /* \"contracts/IOU.sol\":4618:4625  userIDs */\n      0x02\n        /* \"contracts/IOU.sol\":4618:4635  userIDs[creditor] */\n      0x00\n        /* \"contracts/IOU.sol\":4626:4634  creditor */\n      dup8\n        /* \"contracts/IOU.sol\":4618:4635  userIDs[creditor] */\n      0xffffffffffffffffffffffffffffffffffffffff\n      and\n      0xffffffffffffffffffffffffffffffffffffffff\n      and\n      dup2\n      mstore\n      0x20\n      add\n      swap1\n      dup2\n      mstore\n      0x20\n      add\n      0x00\n      keccak256\n      sload\n        /* \"contracts/IOU.sol\":4613:4636  IOUs[userIDs[creditor]] */\n      dup2\n      sload\n      dup2\n      lt\n      tag_133\n      jumpi\n      tag_134\n      tag_55\n      jump\t// in\n    tag_134:\n    tag_133:\n      swap1\n      0x00\n      mstore\n      keccak256(0x00, 0x20)\n      add\n        /* \"contracts/IOU.sol\":4637:4644  userIDs */\n      0x02\n        /* \"contracts/IOU.sol\":4637:4652  userIDs[debtor] */\n      0x00\n        /* \"contracts/IOU.sol\":4645:4651  debtor */\n      dup6\n        /* \"contracts/IOU.sol\":4637:4652  userIDs[debtor] */\n      0xffffffffffffffffffffffffffffffffffffffff\n      and\n      0xffffffffffffffffffffffffffffffffffffffff\n      and\n      dup2\n      mstore\n      0x20\n      add\n      swap1\n      dup2\n      mstore\n      0x20\n      add\n      0x00\n      keccak256\n      sload\n        /* \"contracts/IOU.sol\":4613:4653  IOUs[userIDs[creditor]][userIDs[debtor]] */\n      dup2\n      sload\n      dup2\n      lt\n      tag_136\n      jumpi\n      tag_137\n      tag_55\n      jump\t// in\n    tag_137:\n    tag_136:\n      swap1\n      0x00\n      mstore\n      keccak256(0x00, 0x20)\n      add\n      sload\n        /* \"contracts/IOU.sol\":4613:4666  IOUs[userIDs[creditor]][userIDs[debtor]] - min_amount */\n      tag_139\n      swap2\n      swap1\n      tag_140\n      jump\t// in\n    tag_139:\n        /* \"contracts/IOU.sol\":4570:4574  IOUs */\n      0x01\n        /* \"contracts/IOU.sol\":4575:4582  userIDs */\n      0x02\n        /* \"contracts/IOU.sol\":4575:4592  userIDs[creditor] */\n      0x00\n        /* \"contracts/IOU.sol\":4583:4591  creditor */\n      dup8\n        /* \"contracts/IOU.sol\":4575:4592  userIDs[creditor] */\n      0xffffffffffffffffffffffffffffffffffffffff\n      and\n      0xffffffffffffffffffffffffffffffffffffffff\n      and\n      dup2\n      mstore\n      0x20\n      add\n      swap1\n      dup2\n      mstore\n      0x20\n      add\n      0x00\n      keccak256\n      sload\n        /* \"contracts/IOU.sol\":4570:4593  IOUs[userIDs[creditor]] */\n      dup2\n      sload\n      dup2\n      lt\n      tag_141\n      jumpi\n      tag_142\n      tag_55\n      jump\t// in\n    tag_142:\n    tag_141:\n      swap1\n      0x00\n      mstore\n      keccak256(0x00, 0x20)\n      add\n        /* \"contracts/IOU.sol\":4594:4601  userIDs */\n      0x02\n        /* \"contracts/IOU.sol\":4594:4609  userIDs[debtor] */\n      0x00\n        /* \"contracts/IOU.sol\":4602:4608  debtor */\n      dup6\n        /* \"contracts/IOU.sol\":4594:4609  userIDs[debtor] */\n      0xffffffffffffffffffffffffffffffffffffffff\n      and\n      0xffffffffffffffffffffffffffffffffffffffff\n      and\n      dup2\n      mstore\n      0x20\n      add\n      swap1\n      dup2\n      mstore\n      0x20\n      add\n      0x00\n      keccak256\n      sload\n        /* \"contracts/IOU.sol\":4570:4610  IOUs[userIDs[creditor]][userIDs[debtor]] */\n      dup2\n      sload\n      dup2\n      lt\n      tag_144\n      jumpi\n      tag_145\n      tag_55\n      jump\t// in\n    tag_145:\n    tag_144:\n      swap1\n      0x00\n      mstore\n      keccak256(0x00, 0x20)\n      add\n        /* \"contracts/IOU.sol\":4570:4666  IOUs[userIDs[creditor]][userIDs[debtor]] = IOUs[userIDs[creditor]][userIDs[debtor]] - min_amount */\n      dup2\n      swap1\n      sstore\n      pop\n        /* \"contracts/IOU.sol\":4767:4777  min_amount */\n      dup1\n        /* \"contracts/IOU.sol\":4724:4728  IOUs */\n      0x01\n        /* \"contracts/IOU.sol\":4729:4736  userIDs */\n      0x02\n        /* \"contracts/IOU.sol\":4729:4744  userIDs[debtor] */\n      0x00\n        /* \"contracts/IOU.sol\":4737:4743  debtor */\n      dup6\n        /* \"contracts/IOU.sol\":4729:4744  userIDs[debtor] */\n      0xffffffffffffffffffffffffffffffffffffffff\n      and\n      0xffffffffffffffffffffffffffffffffffffffff\n      and\n      dup2\n      mstore\n      0x20\n      add\n      swap1\n      dup2\n      mstore\n      0x20\n      add\n      0x00\n      keccak256\n      sload\n        /* \"contracts/IOU.sol\":4724:4745  IOUs[userIDs[debtor]] */\n      dup2\n      sload\n      dup2\n      lt\n      tag_147\n      jumpi\n      tag_148\n      tag_55\n      jump\t// in\n    tag_148:\n    tag_147:\n      swap1\n      0x00\n      mstore\n      keccak256(0x00, 0x20)\n      add\n        /* \"contracts/IOU.sol\":4746:4753  userIDs */\n      0x02\n        /* \"contracts/IOU.sol\":4746:4763  userIDs[creditor] */\n      0x00\n        /* \"contracts/IOU.sol\":4754:4762  creditor */\n      dup8\n        /* \"contracts/IOU.sol\":4746:4763  userIDs[creditor] */\n      0xffffffffffffffffffffffffffffffffffffffff\n      and\n      0xffffffffffffffffffffffffffffffffffffffff\n      and\n      dup2\n      mstore\n      0x20\n      add\n      swap1\n      dup2\n      mstore\n      0x20\n      add\n      0x00\n      keccak256\n      sload\n        /* \"contracts/IOU.sol\":4724:4764  IOUs[userIDs[debtor]][userIDs[creditor]] */\n      dup2\n      sload\n      dup2\n      lt\n      tag_150\n      jumpi\n      tag_151\n      tag_55\n      jump\t// in\n    tag_151:\n    tag_150:\n      swap1\n      0x00\n      mstore\n      keccak256(0x00, 0x20)\n      add\n      sload\n        /* \"contracts/IOU.sol\":4724:4777  IOUs[userIDs[debtor]][userIDs[creditor]] - min_amount */\n      tag_153\n      swap2\n      swap1\n      tag_140\n      jump\t// in\n    tag_153:\n        /* \"contracts/IOU.sol\":4681:4685  IOUs */\n      0x01\n        /* \"contracts/IOU.sol\":4686:4693  userIDs */\n      0x02\n        /* \"contracts/IOU.sol\":4686:4701  userIDs[debtor] */\n      0x00\n        /* \"contracts/IOU.sol\":4694:4700  debtor */\n      dup6\n        /* \"contracts/IOU.sol\":4686:4701  userIDs[debtor] */\n      0xffffffffffffffffffffffffffffffffffffffff\n      and\n      0xffffffffffffffffffffffffffffffffffffffff\n      and\n      dup2\n      mstore\n      0x20\n      add\n      swap1\n      dup2\n      mstore\n      0x20\n      add\n      0x00\n      keccak256\n      sload\n        /* \"contracts/IOU.sol\":4681:4702  IOUs[userIDs[debtor]] */\n      dup2\n      sload\n      dup2\n      lt\n      tag_154\n      jumpi\n      tag_155\n      tag_55\n      jump\t// in\n    tag_155:\n    tag_154:\n      swap1\n      0x00\n      mstore\n      keccak256(0x00, 0x20)\n      add\n        /* \"contracts/IOU.sol\":4703:4710  userIDs */\n      0x02\n        /* \"contracts/IOU.sol\":4703:4720  userIDs[creditor] */\n      0x00\n        /* \"contracts/IOU.sol\":4711:4719  creditor */\n      dup8\n        /* \"contracts/IOU.sol\":4703:4720  userIDs[creditor] */\n      0xffffffffffffffffffffffffffffffffffffffff\n      and\n      0xffffffffffffffffffffffffffffffffffffffff\n      and\n      dup2\n      mstore\n      0x20\n      add\n      swap1\n      dup2\n      mstore\n      0x20\n      add\n      0x00\n      keccak256\n      sload\n        /* \"contracts/IOU.sol\":4681:4721  IOUs[userIDs[debtor]][userIDs[creditor]] */\n      dup2\n      sload\n      dup2\n      lt\n      tag_157\n      jumpi\n      tag_158\n      tag_55\n      jump\t// in\n    tag_158:\n    tag_157:\n      swap1\n      0x00\n      mstore\n      keccak256(0x00, 0x20)\n      add\n        /* \"contracts/IOU.sol\":4681:4777  IOUs[userIDs[debtor]][userIDs[creditor]] = IOUs[userIDs[debtor]][userIDs[creditor]] - min_amount */\n      dup2\n      swap1\n      sstore\n      pop\n        /* \"contracts/IOU.sol\":4355:4789  {... */\n      pop\n        /* \"contracts/IOU.sol\":4295:4811  if (IOUs[userIDs[creditor]][userIDs[debtor]] != 0)... */\n      jump(tag_160)\n    tag_113:\n        /* \"contracts/IOU.sol\":4804:4811  reset() */\n      tag_161\n        /* \"contracts/IOU.sol\":4804:4809  reset */\n      tag_162\n        /* \"contracts/IOU.sol\":4804:4811  reset() */\n      jump\t// in\n    tag_161:\n        /* \"contracts/IOU.sol\":4295:4811  if (IOUs[userIDs[creditor]][userIDs[debtor]] != 0)... */\n    tag_160:\n        /* \"contracts/IOU.sol\":3038:4820  {... */\n      pop\n        /* \"contracts/IOU.sol\":2983:4820  function add_IOU(address creditor, uint amount) public {... */\n      pop\n      pop\n      jump\t// out\n        /* \"contracts/IOU.sol\":4877:5100  function lookup(address debtor, address creditor) public view returns(uint)... */\n    tag_16:\n        /* \"contracts/IOU.sol\":4947:4951  uint */\n      0x00\n        /* \"contracts/IOU.sol\":4991:4997  debtor */\n      dup3\n        /* \"contracts/IOU.sol\":4977:4997  msg.sender == debtor */\n      0xffffffffffffffffffffffffffffffffffffffff\n      and\n        /* \"contracts/IOU.sol\":4977:4987  msg.sender */\n      caller\n        /* \"contracts/IOU.sol\":4977:4997  msg.sender == debtor */\n      0xffffffffffffffffffffffffffffffffffffffff\n      and\n      eq\n        /* \"contracts/IOU.sol\":4977:5023  msg.sender == debtor || msg.sender == creditor */\n      dup1\n      tag_164\n      jumpi\n      pop\n        /* \"contracts/IOU.sol\":5015:5023  creditor */\n      dup2\n        /* \"contracts/IOU.sol\":5001:5023  msg.sender == creditor */\n      0xffffffffffffffffffffffffffffffffffffffff\n      and\n        /* \"contracts/IOU.sol\":5001:5011  msg.sender */\n      caller\n        /* \"contracts/IOU.sol\":5001:5023  msg.sender == creditor */\n      0xffffffffffffffffffffffffffffffffffffffff\n      and\n      eq\n        /* \"contracts/IOU.sol\":4977:5023  msg.sender == debtor || msg.sender == creditor */\n    tag_164:\n        /* \"contracts/IOU.sol\":4969:5034  require(msg.sender == debtor || msg.sender == creditor, \"ERROR!\") */\n      tag_165\n      jumpi\n      mload(0x40)\n      0x08c379a000000000000000000000000000000000000000000000000000000000\n      dup2\n      mstore\n      0x04\n      add\n      tag_166\n      swap1\n      tag_36\n      jump\t// in\n    tag_166:\n      mload(0x40)\n      dup1\n      swap2\n      sub\n      swap1\n      revert\n    tag_165:\n        /* \"contracts/IOU.sol\":5052:5056  IOUs */\n      0x01\n        /* \"contracts/IOU.sol\":5057:5064  userIDs */\n      0x02\n        /* \"contracts/IOU.sol\":5057:5072  userIDs[debtor] */\n      0x00\n        /* \"contracts/IOU.sol\":5065:5071  debtor */\n      dup6\n        /* \"contracts/IOU.sol\":5057:5072  userIDs[debtor] */\n      0xffffffffffffffffffffffffffffffffffffffff\n      and\n      0xffffffffffffffffffffffffffffffffffffffff\n      and\n      dup2\n      mstore\n      0x20\n      add\n      swap1\n      dup2\n      mstore\n      0x20\n      add\n      0x00\n      keccak256\n      sload\n        /* \"contracts/IOU.sol\":5052:5073  IOUs[userIDs[debtor]] */\n      dup2\n      sload\n      dup2\n      lt\n      tag_167\n      jumpi\n      tag_168\n      tag_55\n      jump\t// in\n    tag_168:\n    tag_167:\n      swap1\n      0x00\n      mstore\n      keccak256(0x00, 0x20)\n      add\n        /* \"contracts/IOU.sol\":5074:5081  userIDs */\n      0x02\n        /* \"contracts/IOU.sol\":5074:5091  userIDs[creditor] */\n      0x00\n        /* \"contracts/IOU.sol\":5082:5090  creditor */\n      dup5\n        /* \"contracts/IOU.sol\":5074:5091  userIDs[creditor] */\n      0xffffffffffffffffffffffffffffffffffffffff\n      and\n      0xffffffffffffffffffffffffffffffffffffffff\n      and\n      dup2\n      mstore\n      0x20\n      add\n      swap1\n      dup2\n      mstore\n      0x20\n      add\n      0x00\n      keccak256\n      sload\n        /* \"contracts/IOU.sol\":5052:5092  IOUs[userIDs[debtor]][userIDs[creditor]] */\n      dup2\n      sload\n      dup2\n      lt\n      tag_170\n      jumpi\n      tag_171\n      tag_55\n      jump\t// in\n    tag_171:\n    tag_170:\n      swap1\n      0x00\n      mstore\n      keccak256(0x00, 0x20)\n      add\n      sload\n        /* \"contracts/IOU.sol\":5045:5092  return IOUs[userIDs[debtor]][userIDs[creditor]] */\n      swap1\n      pop\n        /* \"contracts/IOU.sol\":4877:5100  function lookup(address debtor, address creditor) public view returns(uint)... */\n      swap3\n      swap2\n      pop\n      pop\n      jump\t// out\n        /* \"contracts/ownable.sol\":1632:1767  function renounceOwnership() public virtual onlyOwner {... */\n    tag_20:\n        /* \"contracts/ownable.sol\":1239:1251  _msgSender() */\n      tag_174\n        /* \"contracts/ownable.sol\":1239:1249  _msgSender */\n      tag_175\n        /* \"contracts/ownable.sol\":1239:1251  _msgSender() */\n      jump\t// in\n    tag_174:\n        /* \"contracts/ownable.sol\":1229:1251  _owner == _msgSender() */\n      0xffffffffffffffffffffffffffffffffffffffff\n      and\n        /* \"contracts/ownable.sol\":1229:1235  _owner */\n      0x00\n      dup1\n      sload\n      swap1\n      0x0100\n      exp\n      swap1\n      div\n      0xffffffffffffffffffffffffffffffffffffffff\n      and\n        /* \"contracts/ownable.sol\":1229:1251  _owner == _msgSender() */\n      0xffffffffffffffffffffffffffffffffffffffff\n      and\n      eq\n        /* \"contracts/ownable.sol\":1221:1288  require(_owner == _msgSender(), \"Ownable: caller is not the owner\") */\n      tag_176\n      jumpi\n      mload(0x40)\n      0x08c379a000000000000000000000000000000000000000000000000000000000\n      dup2\n      mstore\n      0x04\n      add\n      tag_177\n      swap1\n      tag_178\n      jump\t// in\n    tag_177:\n      mload(0x40)\n      dup1\n      swap2\n      sub\n      swap1\n      revert\n    tag_176:\n        /* \"contracts/ownable.sol\":1734:1735  0 */\n      0x00\n        /* \"contracts/ownable.sol\":1697:1737  OwnershipTransferred(_owner, address(0)) */\n      0xffffffffffffffffffffffffffffffffffffffff\n      and\n        /* \"contracts/ownable.sol\":1718:1724  _owner */\n      0x00\n      dup1\n      sload\n      swap1\n      0x0100\n      exp\n      swap1\n      div\n      0xffffffffffffffffffffffffffffffffffffffff\n      and\n        /* \"contracts/ownable.sol\":1697:1737  OwnershipTransferred(_owner, address(0)) */\n      0xffffffffffffffffffffffffffffffffffffffff\n      and\n      0x8be0079c531659141344cd1fd0a4f28419497f9722a3daafe3b4186f6b6457e0\n      mload(0x40)\n      mload(0x40)\n      dup1\n      swap2\n      sub\n      swap1\n      log3\n        /* \"contracts/ownable.sol\":1760:1761  0 */\n      0x00\n        /* \"contracts/ownable.sol\":1743:1749  _owner */\n      dup1\n      0x00\n        /* \"contracts/ownable.sol\":1743:1762  _owner = address(0) */\n      0x0100\n      exp\n      dup2\n      sload\n      dup2\n      0xffffffffffffffffffffffffffffffffffffffff\n      mul\n      not\n      and\n      swap1\n      dup4\n      0xffffffffffffffffffffffffffffffffffffffff\n      and\n      mul\n      or\n      swap1\n      sstore\n      pop\n        /* \"contracts/ownable.sol\":1632:1767  function renounceOwnership() public virtual onlyOwner {... */\n      jump\t// out\n        /* \"contracts/IOU.sol\":369:692  function getTotalOwed(address user) public view returns (uint256) {... */\n    tag_24:\n        /* \"contracts/IOU.sol\":426:433  uint256 */\n      0x00\n        /* \"contracts/IOU.sol\":468:472  user */\n      dup2\n        /* \"contracts/IOU.sol\":454:472  msg.sender == user */\n      0xffffffffffffffffffffffffffffffffffffffff\n      and\n        /* \"contracts/IOU.sol\":454:464  msg.sender */\n      caller\n        /* \"contracts/IOU.sol\":454:472  msg.sender == user */\n      0xffffffffffffffffffffffffffffffffffffffff\n      and\n      eq\n        /* \"contracts/IOU.sol\":446:483  require(msg.sender == user, \"ERROR!\") */\n      tag_181\n      jumpi\n      mload(0x40)\n      0x08c379a000000000000000000000000000000000000000000000000000000000\n      dup2\n      mstore\n      0x04\n      add\n      tag_182\n      swap1\n      tag_36\n      jump\t// in\n    tag_182:\n      mload(0x40)\n      dup1\n      swap2\n      sub\n      swap1\n      revert\n    tag_181:\n        /* \"contracts/IOU.sol\":494:505  uint amount */\n      0x00\n        /* \"contracts/IOU.sol\":520:532  uint user_ID */\n      dup1\n        /* \"contracts/IOU.sol\":535:542  userIDs */\n      0x02\n        /* \"contracts/IOU.sol\":535:548  userIDs[user] */\n      0x00\n        /* \"contracts/IOU.sol\":543:547  user */\n      dup6\n        /* \"contracts/IOU.sol\":535:548  userIDs[user] */\n      0xffffffffffffffffffffffffffffffffffffffff\n      and\n      0xffffffffffffffffffffffffffffffffffffffff\n      and\n      dup2\n      mstore\n      0x20\n      add\n      swap1\n      dup2\n      mstore\n      0x20\n      add\n      0x00\n      keccak256\n      sload\n        /* \"contracts/IOU.sol\":520:548  uint user_ID = userIDs[user] */\n      swap1\n      pop\n        /* \"contracts/IOU.sol\":564:570  uint i */\n      0x00\n        /* \"contracts/IOU.sol\":559:661  for (uint i = 0; i < total_users;i++)... */\n    tag_183:\n        /* \"contracts/IOU.sol\":580:591  total_users */\n      sload(0x04)\n        /* \"contracts/IOU.sol\":576:577  i */\n      dup2\n        /* \"contracts/IOU.sol\":576:591  i < total_users */\n      lt\n        /* \"contracts/IOU.sol\":559:661  for (uint i = 0; i < total_users;i++)... */\n      iszero\n      tag_184\n      jumpi\n        /* \"contracts/IOU.sol\":621:649  amount.add(IOUs[user_ID][i]) */\n      tag_186\n        /* \"contracts/IOU.sol\":632:636  IOUs */\n      0x01\n        /* \"contracts/IOU.sol\":637:644  user_ID */\n      dup4\n        /* \"contracts/IOU.sol\":632:645  IOUs[user_ID] */\n      dup2\n      sload\n      dup2\n      lt\n      tag_187\n      jumpi\n      tag_188\n      tag_55\n      jump\t// in\n    tag_188:\n    tag_187:\n      swap1\n      0x00\n      mstore\n      keccak256(0x00, 0x20)\n      add\n        /* \"contracts/IOU.sol\":646:647  i */\n      dup3\n        /* \"contracts/IOU.sol\":632:648  IOUs[user_ID][i] */\n      dup2\n      sload\n      dup2\n      lt\n      tag_190\n      jumpi\n      tag_191\n      tag_55\n      jump\t// in\n    tag_191:\n    tag_190:\n      swap1\n      0x00\n      mstore\n      keccak256(0x00, 0x20)\n      add\n      sload\n        /* \"contracts/IOU.sol\":621:627  amount */\n      dup5\n        /* \"contracts/IOU.sol\":621:631  amount.add */\n      tag_193\n      swap1\n        /* \"contracts/IOU.sol\":621:649  amount.add(IOUs[user_ID][i]) */\n      swap2\n      swap1\n      0xffffffff\n      and\n      jump\t// in\n    tag_186:\n      pop\n        /* \"contracts/IOU.sol\":592:595  i++ */\n      dup1\n      dup1\n      tag_194\n      swap1\n      tag_59\n      jump\t// in\n    tag_194:\n      swap2\n      pop\n      pop\n        /* \"contracts/IOU.sol\":559:661  for (uint i = 0; i < total_users;i++)... */\n      jump(tag_183)\n    tag_184:\n      pop\n        /* \"contracts/IOU.sol\":678:684  amount */\n      dup2\n        /* \"contracts/IOU.sol\":671:684  return amount */\n      swap3\n      pop\n      pop\n      pop\n        /* \"contracts/IOU.sol\":369:692  function getTotalOwed(address user) public view returns (uint256) {... */\n      swap2\n      swap1\n      pop\n      jump\t// out\n        /* \"contracts/ownable.sol\":1041:1112  function owner() public view returns (address) {... */\n    tag_27:\n        /* \"contracts/ownable.sol\":1079:1086  address */\n      0x00\n        /* \"contracts/ownable.sol\":1101:1107  _owner */\n      dup1\n      0x00\n      swap1\n      sload\n      swap1\n      0x0100\n      exp\n      swap1\n      div\n      0xffffffffffffffffffffffffffffffffffffffff\n      and\n        /* \"contracts/ownable.sol\":1094:1107  return _owner */\n      swap1\n      pop\n        /* \"contracts/ownable.sol\":1041:1112  function owner() public view returns (address) {... */\n      swap1\n      jump\t// out\n        /* \"contracts/ownable.sol\":1909:2135  function transferOwnership(address newOwner) public virtual onlyOwner {... */\n    tag_32:\n        /* \"contracts/ownable.sol\":1239:1251  _msgSender() */\n      tag_197\n        /* \"contracts/ownable.sol\":1239:1249  _msgSender */\n      tag_175\n        /* \"contracts/ownable.sol\":1239:1251  _msgSender() */\n      jump\t// in\n    tag_197:\n        /* \"contracts/ownable.sol\":1229:1251  _owner == _msgSender() */\n      0xffffffffffffffffffffffffffffffffffffffff\n      and\n        /* \"contracts/ownable.sol\":1229:1235  _owner */\n      0x00\n      dup1\n      sload\n      swap1\n      0x0100\n      exp\n      swap1\n      div\n      0xffffffffffffffffffffffffffffffffffffffff\n      and\n        /* \"contracts/ownable.sol\":1229:1251  _owner == _msgSender() */\n      0xffffffffffffffffffffffffffffffffffffffff\n      and\n      eq\n        /* \"contracts/ownable.sol\":1221:1288  require(_owner == _msgSender(), \"Ownable: caller is not the owner\") */\n      tag_198\n      jumpi\n      mload(0x40)\n      0x08c379a000000000000000000000000000000000000000000000000000000000\n      dup2\n      mstore\n      0x04\n      add\n      tag_199\n      swap1\n      tag_178\n      jump\t// in\n    tag_199:\n      mload(0x40)\n      dup1\n      swap2\n      sub\n      swap1\n      revert\n    tag_198:\n        /* \"contracts/ownable.sol\":2013:2014  0 */\n      0x00\n        /* \"contracts/ownable.sol\":1993:2015  newOwner != address(0) */\n      0xffffffffffffffffffffffffffffffffffffffff\n      and\n        /* \"contracts/ownable.sol\":1993:2001  newOwner */\n      dup2\n        /* \"contracts/ownable.sol\":1993:2015  newOwner != address(0) */\n      0xffffffffffffffffffffffffffffffffffffffff\n      and\n      sub\n        /* \"contracts/ownable.sol\":1985:2058  require(newOwner != address(0), \"Ownable: new owner is the zero address\") */\n      tag_201\n      jumpi\n      mload(0x40)\n      0x08c379a000000000000000000000000000000000000000000000000000000000\n      dup2\n      mstore\n      0x04\n      add\n      tag_202\n      swap1\n      tag_203\n      jump\t// in\n    tag_202:\n      mload(0x40)\n      dup1\n      swap2\n      sub\n      swap1\n      revert\n    tag_201:\n        /* \"contracts/ownable.sol\":2098:2106  newOwner */\n      dup1\n        /* \"contracts/ownable.sol\":2069:2107  OwnershipTransferred(_owner, newOwner) */\n      0xffffffffffffffffffffffffffffffffffffffff\n      and\n        /* \"contracts/ownable.sol\":2090:2096  _owner */\n      0x00\n      dup1\n      sload\n      swap1\n      0x0100\n      exp\n      swap1\n      div\n      0xffffffffffffffffffffffffffffffffffffffff\n      and\n        /* \"contracts/ownable.sol\":2069:2107  OwnershipTransferred(_owner, newOwner) */\n      0xffffffffffffffffffffffffffffffffffffffff\n      and\n      0x8be0079c531659141344cd1fd0a4f28419497f9722a3daafe3b4186f6b6457e0\n      mload(0x40)\n      mload(0x40)\n      dup1\n      swap2\n      sub\n      swap1\n      log3\n        /* \"contracts/ownable.sol\":2122:2130  newOwner */\n      dup1\n        /* \"contracts/ownable.sol\":2113:2119  _owner */\n      0x00\n      dup1\n        /* \"contracts/ownable.sol\":2113:2130  _owner = newOwner */\n      0x0100\n      exp\n      dup2\n      sload\n      dup2\n      0xffffffffffffffffffffffffffffffffffffffff\n      mul\n      not\n      and\n      swap1\n      dup4\n      0xffffffffffffffffffffffffffffffffffffffff\n      and\n      mul\n      or\n      swap1\n      sstore\n      pop\n        /* \"contracts/ownable.sol\":1909:2135  function transferOwnership(address newOwner) public virtual onlyOwner {... */\n      pop\n      jump\t// out\n        /* \"contracts/IOU.sol\":1009:1161  function add_User(address user) internal{... */\n    tag_39:\n        /* \"contracts/IOU.sol\":1060:1065  users */\n      0x03\n        /* \"contracts/IOU.sol\":1071:1075  user */\n      dup2\n        /* \"contracts/IOU.sol\":1060:1076  users.push(user) */\n      swap1\n      dup1\n      0x01\n      dup2\n      sload\n      add\n      dup1\n      dup3\n      sstore\n      dup1\n      swap2\n      pop\n      pop\n      0x01\n      swap1\n      sub\n      swap1\n      0x00\n      mstore\n      keccak256(0x00, 0x20)\n      add\n      0x00\n      swap1\n      swap2\n      swap1\n      swap2\n      swap1\n      swap2\n      0x0100\n      exp\n      dup2\n      sload\n      dup2\n      0xffffffffffffffffffffffffffffffffffffffff\n      mul\n      not\n      and\n      swap1\n      dup4\n      0xffffffffffffffffffffffffffffffffffffffff\n      and\n      mul\n      or\n      swap1\n      sstore\n      pop\n        /* \"contracts/IOU.sol\":1103:1114  total_users */\n      sload(0x04)\n        /* \"contracts/IOU.sol\":1087:1094  userIDs */\n      0x02\n        /* \"contracts/IOU.sol\":1087:1100  userIDs[user] */\n      0x00\n        /* \"contracts/IOU.sol\":1095:1099  user */\n      dup4\n        /* \"contracts/IOU.sol\":1087:1100  userIDs[user] */\n      0xffffffffffffffffffffffffffffffffffffffff\n      and\n      0xffffffffffffffffffffffffffffffffffffffff\n      and\n      dup2\n      mstore\n      0x20\n      add\n      swap1\n      dup2\n      mstore\n      0x20\n      add\n      0x00\n      keccak256\n        /* \"contracts/IOU.sol\":1087:1114  userIDs[user] = total_users */\n      dup2\n      swap1\n      sstore\n      pop\n        /* \"contracts/IOU.sol\":1152:1153  1 */\n      0x01\n        /* \"contracts/IOU.sol\":1138:1149  total_users */\n      sload(0x04)\n        /* \"contracts/IOU.sol\":1138:1153  total_users + 1 */\n      tag_206\n      swap2\n      swap1\n      tag_100\n      jump\t// in\n    tag_206:\n        /* \"contracts/IOU.sol\":1125:1136  total_users */\n      0x04\n        /* \"contracts/IOU.sol\":1125:1153  total_users= total_users + 1 */\n      dup2\n      swap1\n      sstore\n      pop\n        /* \"contracts/IOU.sol\":1009:1161  function add_User(address user) internal{... */\n      pop\n      jump\t// out\n        /* \"contracts/IOU.sol\":758:966  function findUser(address user) internal view returns (bool){... */\n    tag_48:\n        /* \"contracts/IOU.sol\":813:817  bool */\n      0x00\n        /* \"contracts/IOU.sol\":834:840  uint i */\n      dup1\n        /* \"contracts/IOU.sol\":843:844  0 */\n      0x00\n        /* \"contracts/IOU.sol\":834:844  uint i = 0 */\n      swap1\n      pop\n        /* \"contracts/IOU.sol\":829:936  for (uint i = 0; i < total_users;i++)... */\n    tag_208:\n        /* \"contracts/IOU.sol\":850:861  total_users */\n      sload(0x04)\n        /* \"contracts/IOU.sol\":846:847  i */\n      dup2\n        /* \"contracts/IOU.sol\":846:861  i < total_users */\n      lt\n        /* \"contracts/IOU.sol\":829:936  for (uint i = 0; i < total_users;i++)... */\n      iszero\n      tag_209\n      jumpi\n        /* \"contracts/IOU.sol\":907:911  user */\n      dup3\n        /* \"contracts/IOU.sol\":895:911  users[i] == user */\n      0xffffffffffffffffffffffffffffffffffffffff\n      and\n        /* \"contracts/IOU.sol\":895:900  users */\n      0x03\n        /* \"contracts/IOU.sol\":901:902  i */\n      dup3\n        /* \"contracts/IOU.sol\":895:903  users[i] */\n      dup2\n      sload\n      dup2\n      lt\n      tag_211\n      jumpi\n      tag_212\n      tag_55\n      jump\t// in\n    tag_212:\n    tag_211:\n      swap1\n      0x00\n      mstore\n      keccak256(0x00, 0x20)\n      add\n      0x00\n      swap1\n      sload\n      swap1\n      0x0100\n      exp\n      swap1\n      div\n      0xffffffffffffffffffffffffffffffffffffffff\n      and\n        /* \"contracts/IOU.sol\":895:911  users[i] == user */\n      0xffffffffffffffffffffffffffffffffffffffff\n      and\n      sub\n        /* \"contracts/IOU.sol\":891:924  if (users[i] == user) return true */\n      tag_214\n      jumpi\n        /* \"contracts/IOU.sol\":920:924  true */\n      0x01\n        /* \"contracts/IOU.sol\":913:924  return true */\n      swap2\n      pop\n      pop\n      jump(tag_207)\n        /* \"contracts/IOU.sol\":891:924  if (users[i] == user) return true */\n    tag_214:\n        /* \"contracts/IOU.sol\":862:865  i++ */\n      dup1\n      dup1\n      tag_215\n      swap1\n      tag_59\n      jump\t// in\n    tag_215:\n      swap2\n      pop\n      pop\n        /* \"contracts/IOU.sol\":829:936  for (uint i = 0; i < total_users;i++)... */\n      jump(tag_208)\n    tag_209:\n      pop\n        /* \"contracts/IOU.sol\":953:958  false */\n      0x00\n        /* \"contracts/IOU.sol\":946:958  return false */\n      swap1\n      pop\n        /* \"contracts/IOU.sol\":758:966  function findUser(address user) internal view returns (bool){... */\n    tag_207:\n      swap2\n      swap1\n      pop\n      jump\t// out\n        /* \"contracts/IOU.sol\":2600:2943  function reset() internal{... */\n    tag_162:\n        /* \"contracts/IOU.sol\":2636:2657  uint[] memory visited */\n      0x00\n        /* \"contracts/IOU.sol\":2671:2682  total_users */\n      sload(0x04)\n        /* \"contracts/IOU.sol\":2660:2683  new uint[](total_users) */\n      0xffffffffffffffff\n      dup2\n      gt\n      iszero\n      tag_217\n      jumpi\n      tag_218\n      tag_219\n      jump\t// in\n    tag_218:\n    tag_217:\n      mload(0x40)\n      swap1\n      dup1\n      dup3\n      mstore\n      dup1\n      0x20\n      mul\n      0x20\n      add\n      dup3\n      add\n      0x40\n      mstore\n      dup1\n      iszero\n      tag_220\n      jumpi\n      dup2\n      0x20\n      add\n      0x20\n      dup3\n      mul\n      dup1\n      calldatasize\n      dup4\n      calldatacopy\n      dup1\n      dup3\n      add\n      swap2\n      pop\n      pop\n      swap1\n      pop\n    tag_220:\n      pop\n        /* \"contracts/IOU.sol\":2636:2683  uint[] memory visited = new uint[](total_users) */\n      swap1\n      pop\n        /* \"contracts/IOU.sol\":2694:2714  uint[] memory parent */\n      0x00\n        /* \"contracts/IOU.sol\":2729:2740  total_users */\n      sload(0x04)\n        /* \"contracts/IOU.sol\":2718:2741  new uint[](total_users) */\n      0xffffffffffffffff\n      dup2\n      gt\n      iszero\n      tag_221\n      jumpi\n      tag_222\n      tag_219\n      jump\t// in\n    tag_222:\n    tag_221:\n      mload(0x40)\n      swap1\n      dup1\n      dup3\n      mstore\n      dup1\n      0x20\n      mul\n      0x20\n      add\n      dup3\n      add\n      0x40\n      mstore\n      dup1\n      iszero\n      tag_223\n      jumpi\n      dup2\n      0x20\n      add\n      0x20\n      dup3\n      mul\n      dup1\n      calldatasize\n      dup4\n      calldatacopy\n      dup1\n      dup3\n      add\n      swap2\n      pop\n      pop\n      swap1\n      pop\n    tag_223:\n      pop\n        /* \"contracts/IOU.sol\":2694:2741  uint[] memory parent  = new uint[](total_users) */\n      swap1\n      pop\n        /* \"contracts/IOU.sol\":2757:2763  uint i */\n      0x00\n        /* \"contracts/IOU.sol\":2752:2936  for (uint i = 0; i < total_users;i++)... */\n    tag_224:\n        /* \"contracts/IOU.sol\":2773:2784  total_users */\n      sload(0x04)\n        /* \"contracts/IOU.sol\":2769:2770  i */\n      dup2\n        /* \"contracts/IOU.sol\":2769:2784  i < total_users */\n      lt\n        /* \"contracts/IOU.sol\":2752:2936  for (uint i = 0; i < total_users;i++)... */\n      iszero\n      tag_225\n      jumpi\n        /* \"contracts/IOU.sol\":2832:2833  0 */\n      0x00\n        /* \"contracts/IOU.sol\":2818:2825  visited */\n      dup4\n        /* \"contracts/IOU.sol\":2826:2827  i */\n      dup3\n        /* \"contracts/IOU.sol\":2818:2828  visited[i] */\n      dup2\n      mload\n      dup2\n      lt\n      tag_227\n      jumpi\n      tag_228\n      tag_55\n      jump\t// in\n    tag_228:\n    tag_227:\n      0x20\n      mul\n      0x20\n      add\n      add\n      mload\n        /* \"contracts/IOU.sol\":2818:2833  visited[i] == 0 */\n      sub\n        /* \"contracts/IOU.sol\":2814:2924  if (visited[i] == 0)... */\n      tag_229\n      jumpi\n        /* \"contracts/IOU.sol\":2867:2908  dfs(visited, parent, userIDs[msg.sender]) */\n      tag_230\n        /* \"contracts/IOU.sol\":2871:2878  visited */\n      dup4\n        /* \"contracts/IOU.sol\":2880:2886  parent */\n      dup4\n        /* \"contracts/IOU.sol\":2888:2895  userIDs */\n      0x02\n        /* \"contracts/IOU.sol\":2888:2907  userIDs[msg.sender] */\n      0x00\n        /* \"contracts/IOU.sol\":2896:2906  msg.sender */\n      caller\n        /* \"contracts/IOU.sol\":2888:2907  userIDs[msg.sender] */\n      0xffffffffffffffffffffffffffffffffffffffff\n      and\n      0xffffffffffffffffffffffffffffffffffffffff\n      and\n      dup2\n      mstore\n      0x20\n      add\n      swap1\n      dup2\n      mstore\n      0x20\n      add\n      0x00\n      keccak256\n      sload\n        /* \"contracts/IOU.sol\":2867:2870  dfs */\n      tag_231\n        /* \"contracts/IOU.sol\":2867:2908  dfs(visited, parent, userIDs[msg.sender]) */\n      jump\t// in\n    tag_230:\n      pop\n        /* \"contracts/IOU.sol\":2814:2924  if (visited[i] == 0)... */\n    tag_229:\n        /* \"contracts/IOU.sol\":2785:2788  i++ */\n      dup1\n      dup1\n      tag_232\n      swap1\n      tag_59\n      jump\t// in\n    tag_232:\n      swap2\n      pop\n      pop\n        /* \"contracts/IOU.sol\":2752:2936  for (uint i = 0; i < total_users;i++)... */\n      jump(tag_224)\n    tag_225:\n      pop\n        /* \"contracts/IOU.sol\":2625:2943  {... */\n      pop\n      pop\n        /* \"contracts/IOU.sol\":2600:2943  function reset() internal{... */\n      jump\t// out\n        /* \"contracts/Context.sol\":588:695  function _msgSender() internal view virtual returns (address payable) {... */\n    tag_175:\n        /* \"contracts/Context.sol\":641:656  address payable */\n      0x00\n        /* \"contracts/Context.sol\":679:689  msg.sender */\n      caller\n        /* \"contracts/Context.sol\":664:690  return payable(msg.sender) */\n      swap1\n      pop\n        /* \"contracts/Context.sol\":588:695  function _msgSender() internal view virtual returns (address payable) {... */\n      swap1\n      jump\t// out\n        /* \"contracts/safemath.sol\":1037:1166  function add(uint256 a, uint256 b) internal pure returns (uint256) {... */\n    tag_193:\n        /* \"contracts/safemath.sol\":1095:1102  uint256 */\n      0x00\n        /* \"contracts/safemath.sol\":1110:1119  uint256 c */\n      dup1\n        /* \"contracts/safemath.sol\":1126:1127  b */\n      dup3\n        /* \"contracts/safemath.sol\":1122:1123  a */\n      dup5\n        /* \"contracts/safemath.sol\":1122:1127  a + b */\n      tag_235\n      swap2\n      swap1\n      tag_100\n      jump\t// in\n    tag_235:\n        /* \"contracts/safemath.sol\":1110:1127  uint256 c = a + b */\n      swap1\n      pop\n        /* \"contracts/safemath.sol\":1145:1146  a */\n      dup4\n        /* \"contracts/safemath.sol\":1140:1141  c */\n      dup2\n        /* \"contracts/safemath.sol\":1140:1146  c >= a */\n      lt\n      iszero\n        /* \"contracts/safemath.sol\":1133:1147  assert(c >= a) */\n      tag_236\n      jumpi\n      tag_237\n      tag_238\n      jump\t// in\n    tag_237:\n    tag_236:\n        /* \"contracts/safemath.sol\":1160:1161  c */\n      dup1\n        /* \"contracts/safemath.sol\":1153:1161  return c */\n      swap2\n      pop\n      pop\n        /* \"contracts/safemath.sol\":1037:1166  function add(uint256 a, uint256 b) internal pure returns (uint256) {... */\n      swap3\n      swap2\n      pop\n      pop\n      jump\t// out\n        /* \"contracts/IOU.sol\":1173:2566  function dfs(uint[] memory visited, uint[] memory parent, uint current) internal returns (bool){... */\n    tag_231:\n        /* \"contracts/IOU.sol\":1263:1267  bool */\n      0x00\n        /* \"contracts/IOU.sol\":1298:1299  1 */\n      0x01\n        /* \"contracts/IOU.sol\":1279:1286  visited */\n      dup5\n        /* \"contracts/IOU.sol\":1287:1294  current */\n      dup4\n        /* \"contracts/IOU.sol\":1279:1295  visited[current] */\n      dup2\n      mload\n      dup2\n      lt\n      tag_240\n      jumpi\n      tag_241\n      tag_55\n      jump\t// in\n    tag_241:\n    tag_240:\n      0x20\n      mul\n      0x20\n      add\n      add\n        /* \"contracts/IOU.sol\":1279:1299  visited[current] = 1 */\n      dup2\n      dup2\n      mstore\n      pop\n      pop\n        /* \"contracts/IOU.sol\":1315:1321  uint i */\n      0x00\n        /* \"contracts/IOU.sol\":1310:2506  for (uint i = 0; i < total_users;i++)... */\n    tag_242:\n        /* \"contracts/IOU.sol\":1331:1342  total_users */\n      sload(0x04)\n        /* \"contracts/IOU.sol\":1327:1328  i */\n      dup2\n        /* \"contracts/IOU.sol\":1327:1342  i < total_users */\n      lt\n        /* \"contracts/IOU.sol\":1310:2506  for (uint i = 0; i < total_users;i++)... */\n      iszero\n      tag_243\n      jumpi\n        /* \"contracts/IOU.sol\":1396:1397  0 */\n      0x00\n        /* \"contracts/IOU.sol\":1376:1380  IOUs */\n      0x01\n        /* \"contracts/IOU.sol\":1381:1388  current */\n      dup5\n        /* \"contracts/IOU.sol\":1376:1389  IOUs[current] */\n      dup2\n      sload\n      dup2\n      lt\n      tag_245\n      jumpi\n      tag_246\n      tag_55\n      jump\t// in\n    tag_246:\n    tag_245:\n      swap1\n      0x00\n      mstore\n      keccak256(0x00, 0x20)\n      add\n        /* \"contracts/IOU.sol\":1390:1391  i */\n      dup3\n        /* \"contracts/IOU.sol\":1376:1392  IOUs[current][i] */\n      dup2\n      sload\n      dup2\n      lt\n      tag_248\n      jumpi\n      tag_249\n      tag_55\n      jump\t// in\n    tag_249:\n    tag_248:\n      swap1\n      0x00\n      mstore\n      keccak256(0x00, 0x20)\n      add\n      sload\n        /* \"contracts/IOU.sol\":1376:1397  IOUs[current][i] != 0 */\n      eq\n        /* \"contracts/IOU.sol\":1372:2495  if (IOUs[current][i] != 0)... */\n      tag_251\n      jumpi\n        /* \"contracts/IOU.sol\":1449:1450  0 */\n      0x00\n        /* \"contracts/IOU.sol\":1435:1442  visited */\n      dup6\n        /* \"contracts/IOU.sol\":1443:1444  i */\n      dup3\n        /* \"contracts/IOU.sol\":1435:1445  visited[i] */\n      dup2\n      mload\n      dup2\n      lt\n      tag_252\n      jumpi\n      tag_253\n      tag_55\n      jump\t// in\n    tag_253:\n    tag_252:\n      0x20\n      mul\n      0x20\n      add\n      add\n      mload\n        /* \"contracts/IOU.sol\":1435:1450  visited[i] == 0 */\n      sub\n        /* \"contracts/IOU.sol\":1431:2480  if (visited[i] == 0) ... */\n      tag_254\n      jumpi\n        /* \"contracts/IOU.sol\":1505:1512  current */\n      dup3\n        /* \"contracts/IOU.sol\":1493:1499  parent */\n      dup5\n        /* \"contracts/IOU.sol\":1500:1501  i */\n      dup3\n        /* \"contracts/IOU.sol\":1493:1502  parent[i] */\n      dup2\n      mload\n      dup2\n      lt\n      tag_255\n      jumpi\n      tag_256\n      tag_55\n      jump\t// in\n    tag_256:\n    tag_255:\n      0x20\n      mul\n      0x20\n      add\n      add\n        /* \"contracts/IOU.sol\":1493:1512  parent[i] = current */\n      dup2\n      dup2\n      mstore\n      pop\n      pop\n        /* \"contracts/IOU.sol\":1538:1561  dfs(visited, parent, i) */\n      tag_257\n        /* \"contracts/IOU.sol\":1542:1549  visited */\n      dup6\n        /* \"contracts/IOU.sol\":1551:1557  parent */\n      dup6\n        /* \"contracts/IOU.sol\":1559:1560  i */\n      dup4\n        /* \"contracts/IOU.sol\":1538:1541  dfs */\n      tag_231\n        /* \"contracts/IOU.sol\":1538:1561  dfs(visited, parent, i) */\n      jump\t// in\n    tag_257:\n        /* \"contracts/IOU.sol\":1535:1574  if(dfs(visited, parent, i)) return true */\n      iszero\n      tag_258\n      jumpi\n        /* \"contracts/IOU.sol\":1570:1574  true */\n      0x01\n        /* \"contracts/IOU.sol\":1563:1574  return true */\n      swap2\n      pop\n      pop\n      jump(tag_239)\n        /* \"contracts/IOU.sol\":1535:1574  if(dfs(visited, parent, i)) return true */\n    tag_258:\n        /* \"contracts/IOU.sol\":1431:2480  if (visited[i] == 0) ... */\n      jump(tag_259)\n    tag_254:\n        /* \"contracts/IOU.sol\":1636:1637  1 */\n      0x01\n        /* \"contracts/IOU.sol\":1622:1629  visited */\n      dup6\n        /* \"contracts/IOU.sol\":1630:1631  i */\n      dup3\n        /* \"contracts/IOU.sol\":1622:1632  visited[i] */\n      dup2\n      mload\n      dup2\n      lt\n      tag_260\n      jumpi\n      tag_261\n      tag_55\n      jump\t// in\n    tag_261:\n    tag_260:\n      0x20\n      mul\n      0x20\n      add\n      add\n      mload\n        /* \"contracts/IOU.sol\":1622:1637  visited[i] == 1 */\n      sub\n        /* \"contracts/IOU.sol\":1618:2480  if (visited[i] == 1) ... */\n      tag_262\n      jumpi\n        /* \"contracts/IOU.sol\":1680:1697  uint temp_current */\n      0x00\n        /* \"contracts/IOU.sol\":1700:1707  current */\n      dup4\n        /* \"contracts/IOU.sol\":1680:1707  uint temp_current = current */\n      swap1\n      pop\n        /* \"contracts/IOU.sol\":1730:1745  uint min_amount */\n      0x00\n        /* \"contracts/IOU.sol\":1748:1752  IOUs */\n      0x01\n        /* \"contracts/IOU.sol\":1753:1765  temp_current */\n      dup3\n        /* \"contracts/IOU.sol\":1748:1766  IOUs[temp_current] */\n      dup2\n      sload\n      dup2\n      lt\n      tag_263\n      jumpi\n      tag_264\n      tag_55\n      jump\t// in\n    tag_264:\n    tag_263:\n      swap1\n      0x00\n      mstore\n      keccak256(0x00, 0x20)\n      add\n        /* \"contracts/IOU.sol\":1767:1768  i */\n      dup4\n        /* \"contracts/IOU.sol\":1748:1769  IOUs[temp_current][i] */\n      dup2\n      sload\n      dup2\n      lt\n      tag_266\n      jumpi\n      tag_267\n      tag_55\n      jump\t// in\n    tag_267:\n    tag_266:\n      swap1\n      0x00\n      mstore\n      keccak256(0x00, 0x20)\n      add\n      sload\n        /* \"contracts/IOU.sol\":1730:1769  uint min_amount = IOUs[temp_current][i] */\n      swap1\n      pop\n        /* \"contracts/IOU.sol\":1792:2044  while (temp_current != i) { ... */\n    tag_269:\n        /* \"contracts/IOU.sol\":1815:1816  i */\n      dup3\n        /* \"contracts/IOU.sol\":1799:1811  temp_current */\n      dup3\n        /* \"contracts/IOU.sol\":1799:1816  temp_current != i */\n      eq\n        /* \"contracts/IOU.sol\":1792:2044  while (temp_current != i) { ... */\n      tag_270\n      jumpi\n        /* \"contracts/IOU.sol\":1893:1903  min_amount */\n      dup1\n        /* \"contracts/IOU.sol\":1850:1854  IOUs */\n      0x01\n        /* \"contracts/IOU.sol\":1855:1861  parent */\n      dup8\n        /* \"contracts/IOU.sol\":1862:1874  temp_current */\n      dup5\n        /* \"contracts/IOU.sol\":1855:1875  parent[temp_current] */\n      dup2\n      mload\n      dup2\n      lt\n      tag_271\n      jumpi\n      tag_272\n      tag_55\n      jump\t// in\n    tag_272:\n    tag_271:\n      0x20\n      mul\n      0x20\n      add\n      add\n      mload\n        /* \"contracts/IOU.sol\":1850:1876  IOUs[parent[temp_current]] */\n      dup2\n      sload\n      dup2\n      lt\n      tag_273\n      jumpi\n      tag_274\n      tag_55\n      jump\t// in\n    tag_274:\n    tag_273:\n      swap1\n      0x00\n      mstore\n      keccak256(0x00, 0x20)\n      add\n        /* \"contracts/IOU.sol\":1877:1889  temp_current */\n      dup4\n        /* \"contracts/IOU.sol\":1850:1890  IOUs[parent[temp_current]][temp_current] */\n      dup2\n      sload\n      dup2\n      lt\n      tag_276\n      jumpi\n      tag_277\n      tag_55\n      jump\t// in\n    tag_277:\n    tag_276:\n      swap1\n      0x00\n      mstore\n      keccak256(0x00, 0x20)\n      add\n      sload\n        /* \"contracts/IOU.sol\":1850:1903  IOUs[parent[temp_current]][temp_current] < min_amount */\n      lt\n        /* \"contracts/IOU.sol\":1846:1958  if (IOUs[parent[temp_current]][temp_current] < min_amount) min_amount = IOUs[parent[temp_current]][temp_current] */\n      iszero\n      tag_279\n      jumpi\n        /* \"contracts/IOU.sol\":1918:1922  IOUs */\n      0x01\n        /* \"contracts/IOU.sol\":1923:1929  parent */\n      dup7\n        /* \"contracts/IOU.sol\":1930:1942  temp_current */\n      dup4\n        /* \"contracts/IOU.sol\":1923:1943  parent[temp_current] */\n      dup2\n      mload\n      dup2\n      lt\n      tag_280\n      jumpi\n      tag_281\n      tag_55\n      jump\t// in\n    tag_281:\n    tag_280:\n      0x20\n      mul\n      0x20\n      add\n      add\n      mload\n        /* \"contracts/IOU.sol\":1918:1944  IOUs[parent[temp_current]] */\n      dup2\n      sload\n      dup2\n      lt\n      tag_282\n      jumpi\n      tag_283\n      tag_55\n      jump\t// in\n    tag_283:\n    tag_282:\n      swap1\n      0x00\n      mstore\n      keccak256(0x00, 0x20)\n      add\n        /* \"contracts/IOU.sol\":1945:1957  temp_current */\n      dup3\n        /* \"contracts/IOU.sol\":1918:1958  IOUs[parent[temp_current]][temp_current] */\n      dup2\n      sload\n      dup2\n      lt\n      tag_285\n      jumpi\n      tag_286\n      tag_55\n      jump\t// in\n    tag_286:\n    tag_285:\n      swap1\n      0x00\n      mstore\n      keccak256(0x00, 0x20)\n      add\n      sload\n        /* \"contracts/IOU.sol\":1905:1958  min_amount = IOUs[parent[temp_current]][temp_current] */\n      swap1\n      pop\n        /* \"contracts/IOU.sol\":1846:1958  if (IOUs[parent[temp_current]][temp_current] < min_amount) min_amount = IOUs[parent[temp_current]][temp_current] */\n    tag_279:\n        /* \"contracts/IOU.sol\":2000:2006  parent */\n      dup6\n        /* \"contracts/IOU.sol\":2007:2019  temp_current */\n      dup3\n        /* \"contracts/IOU.sol\":2000:2020  parent[temp_current] */\n      dup2\n      mload\n      dup2\n      lt\n      tag_288\n      jumpi\n      tag_289\n      tag_55\n      jump\t// in\n    tag_289:\n    tag_288:\n      0x20\n      mul\n      0x20\n      add\n      add\n      mload\n        /* \"contracts/IOU.sol\":1985:2020  temp_current = parent[temp_current] */\n      swap2\n      pop\n        /* \"contracts/IOU.sol\":1792:2044  while (temp_current != i) { ... */\n      jump(tag_269)\n    tag_270:\n        /* \"contracts/IOU.sol\":2081:2088  current */\n      dup5\n        /* \"contracts/IOU.sol\":2066:2088  temp_current = current */\n      swap2\n      pop\n        /* \"contracts/IOU.sol\":2159:2169  min_amount */\n      dup1\n        /* \"contracts/IOU.sol\":2135:2139  IOUs */\n      0x01\n        /* \"contracts/IOU.sol\":2140:2152  temp_current */\n      dup4\n        /* \"contracts/IOU.sol\":2135:2153  IOUs[temp_current] */\n      dup2\n      sload\n      dup2\n      lt\n      tag_290\n      jumpi\n      tag_291\n      tag_55\n      jump\t// in\n    tag_291:\n    tag_290:\n      swap1\n      0x00\n      mstore\n      keccak256(0x00, 0x20)\n      add\n        /* \"contracts/IOU.sol\":2154:2155  i */\n      dup5\n        /* \"contracts/IOU.sol\":2135:2156  IOUs[temp_current][i] */\n      dup2\n      sload\n      dup2\n      lt\n      tag_293\n      jumpi\n      tag_294\n      tag_55\n      jump\t// in\n    tag_294:\n    tag_293:\n      swap1\n      0x00\n      mstore\n      keccak256(0x00, 0x20)\n      add\n      sload\n        /* \"contracts/IOU.sol\":2135:2169  IOUs[temp_current][i] - min_amount */\n      tag_296\n      swap2\n      swap1\n      tag_140\n      jump\t// in\n    tag_296:\n        /* \"contracts/IOU.sol\":2111:2115  IOUs */\n      0x01\n        /* \"contracts/IOU.sol\":2116:2128  temp_current */\n      dup4\n        /* \"contracts/IOU.sol\":2111:2129  IOUs[temp_current] */\n      dup2\n      sload\n      dup2\n      lt\n      tag_297\n      jumpi\n      tag_298\n      tag_55\n      jump\t// in\n    tag_298:\n    tag_297:\n      swap1\n      0x00\n      mstore\n      keccak256(0x00, 0x20)\n      add\n        /* \"contracts/IOU.sol\":2130:2131  i */\n      dup5\n        /* \"contracts/IOU.sol\":2111:2132  IOUs[temp_current][i] */\n      dup2\n      sload\n      dup2\n      lt\n      tag_300\n      jumpi\n      tag_301\n      tag_55\n      jump\t// in\n    tag_301:\n    tag_300:\n      swap1\n      0x00\n      mstore\n      keccak256(0x00, 0x20)\n      add\n        /* \"contracts/IOU.sol\":2111:2169  IOUs[temp_current][i] = IOUs[temp_current][i] - min_amount */\n      dup2\n      swap1\n      sstore\n      pop\n        /* \"contracts/IOU.sol\":2192:2427  while (temp_current != i) {... */\n    tag_303:\n        /* \"contracts/IOU.sol\":2215:2216  i */\n      dup3\n        /* \"contracts/IOU.sol\":2199:2211  temp_current */\n      dup3\n        /* \"contracts/IOU.sol\":2199:2216  temp_current != i */\n      eq\n        /* \"contracts/IOU.sol\":2192:2427  while (temp_current != i) {... */\n      tag_304\n      jumpi\n        /* \"contracts/IOU.sol\":2331:2341  min_amount */\n      dup1\n        /* \"contracts/IOU.sol\":2288:2292  IOUs */\n      0x01\n        /* \"contracts/IOU.sol\":2293:2299  parent */\n      dup8\n        /* \"contracts/IOU.sol\":2300:2312  temp_current */\n      dup5\n        /* \"contracts/IOU.sol\":2293:2313  parent[temp_current] */\n      dup2\n      mload\n      dup2\n      lt\n      tag_305\n      jumpi\n      tag_306\n      tag_55\n      jump\t// in\n    tag_306:\n    tag_305:\n      0x20\n      mul\n      0x20\n      add\n      add\n      mload\n        /* \"contracts/IOU.sol\":2288:2314  IOUs[parent[temp_current]] */\n      dup2\n      sload\n      dup2\n      lt\n      tag_307\n      jumpi\n      tag_308\n      tag_55\n      jump\t// in\n    tag_308:\n    tag_307:\n      swap1\n      0x00\n      mstore\n      keccak256(0x00, 0x20)\n      add\n        /* \"contracts/IOU.sol\":2315:2327  temp_current */\n      dup4\n        /* \"contracts/IOU.sol\":2288:2328  IOUs[parent[temp_current]][temp_current] */\n      dup2\n      sload\n      dup2\n      lt\n      tag_310\n      jumpi\n      tag_311\n      tag_55\n      jump\t// in\n    tag_311:\n    tag_310:\n      swap1\n      0x00\n      mstore\n      keccak256(0x00, 0x20)\n      add\n      sload\n        /* \"contracts/IOU.sol\":2288:2341  IOUs[parent[temp_current]][temp_current] - min_amount */\n      tag_313\n      swap2\n      swap1\n      tag_140\n      jump\t// in\n    tag_313:\n        /* \"contracts/IOU.sol\":2245:2249  IOUs */\n      0x01\n        /* \"contracts/IOU.sol\":2250:2256  parent */\n      dup8\n        /* \"contracts/IOU.sol\":2257:2269  temp_current */\n      dup5\n        /* \"contracts/IOU.sol\":2250:2270  parent[temp_current] */\n      dup2\n      mload\n      dup2\n      lt\n      tag_314\n      jumpi\n      tag_315\n      tag_55\n      jump\t// in\n    tag_315:\n    tag_314:\n      0x20\n      mul\n      0x20\n      add\n      add\n      mload\n        /* \"contracts/IOU.sol\":2245:2271  IOUs[parent[temp_current]] */\n      dup2\n      sload\n      dup2\n      lt\n      tag_316\n      jumpi\n      tag_317\n      tag_55\n      jump\t// in\n    tag_317:\n    tag_316:\n      swap1\n      0x00\n      mstore\n      keccak256(0x00, 0x20)\n      add\n        /* \"contracts/IOU.sol\":2272:2284  temp_current */\n      dup4\n        /* \"contracts/IOU.sol\":2245:2285  IOUs[parent[temp_current]][temp_current] */\n      dup2\n      sload\n      dup2\n      lt\n      tag_319\n      jumpi\n      tag_320\n      tag_55\n      jump\t// in\n    tag_320:\n    tag_319:\n      swap1\n      0x00\n      mstore\n      keccak256(0x00, 0x20)\n      add\n        /* \"contracts/IOU.sol\":2245:2341  IOUs[parent[temp_current]][temp_current] = IOUs[parent[temp_current]][temp_current] - min_amount */\n      dup2\n      swap1\n      sstore\n      pop\n        /* \"contracts/IOU.sol\":2383:2389  parent */\n      dup6\n        /* \"contracts/IOU.sol\":2390:2402  temp_current */\n      dup3\n        /* \"contracts/IOU.sol\":2383:2403  parent[temp_current] */\n      dup2\n      mload\n      dup2\n      lt\n      tag_322\n      jumpi\n      tag_323\n      tag_55\n      jump\t// in\n    tag_323:\n    tag_322:\n      0x20\n      mul\n      0x20\n      add\n      add\n      mload\n        /* \"contracts/IOU.sol\":2368:2403  temp_current = parent[temp_current] */\n      swap2\n      pop\n        /* \"contracts/IOU.sol\":2192:2427  while (temp_current != i) {... */\n      jump(tag_303)\n    tag_304:\n        /* \"contracts/IOU.sol\":2456:2460  true */\n      0x01\n        /* \"contracts/IOU.sol\":2449:2460  return true */\n      swap4\n      pop\n      pop\n      pop\n      pop\n      jump(tag_239)\n        /* \"contracts/IOU.sol\":1618:2480  if (visited[i] == 1) ... */\n    tag_262:\n        /* \"contracts/IOU.sol\":1431:2480  if (visited[i] == 0) ... */\n    tag_259:\n        /* \"contracts/IOU.sol\":1372:2495  if (IOUs[current][i] != 0)... */\n    tag_251:\n        /* \"contracts/IOU.sol\":1343:1346  i++ */\n      dup1\n      dup1\n      tag_324\n      swap1\n      tag_59\n      jump\t// in\n    tag_324:\n      swap2\n      pop\n      pop\n        /* \"contracts/IOU.sol\":1310:2506  for (uint i = 0; i < total_users;i++)... */\n      jump(tag_242)\n    tag_243:\n      pop\n        /* \"contracts/IOU.sol\":2535:2536  2 */\n      0x02\n        /* \"contracts/IOU.sol\":2516:2523  visited */\n      dup5\n        /* \"contracts/IOU.sol\":2524:2531  current */\n      dup4\n        /* \"contracts/IOU.sol\":2516:2532  visited[current] */\n      dup2\n      mload\n      dup2\n      lt\n      tag_325\n      jumpi\n      tag_326\n      tag_55\n      jump\t// in\n    tag_326:\n    tag_325:\n      0x20\n      mul\n      0x20\n      add\n      add\n        /* \"contracts/IOU.sol\":2516:2536  visited[current] = 2 */\n      dup2\n      dup2\n      mstore\n      pop\n      pop\n        /* \"contracts/IOU.sol\":2554:2558  true */\n      0x01\n        /* \"contracts/IOU.sol\":2547:2558  return true */\n      swap1\n      pop\n        /* \"contracts/IOU.sol\":1173:2566  function dfs(uint[] memory visited, uint[] memory parent, uint current) internal returns (bool){... */\n    tag_239:\n      swap4\n      swap3\n      pop\n      pop\n      pop\n      jump\t// out\n    tag_43:\n      dup3\n      dup1\n      sload\n      dup3\n      dup3\n      sstore\n      swap1\n      0x00\n      mstore\n      keccak256(0x00, 0x20)\n      swap1\n      dup2\n      add\n      swap3\n      dup3\n      iszero\n      tag_327\n      jumpi\n      swap2\n      0x20\n      mul\n      dup3\n      add\n    tag_328:\n      dup3\n      dup2\n      gt\n      iszero\n      tag_329\n      jumpi\n      dup3\n      mload\n      dup3\n      swap1\n      0xff\n      and\n      swap1\n      sstore\n      swap2\n      0x20\n      add\n      swap2\n      swap1\n      0x01\n      add\n      swap1\n      jump(tag_328)\n    tag_329:\n    tag_327:\n      pop\n      swap1\n      pop\n      tag_330\n      swap2\n      swap1\n      tag_331\n      jump\t// in\n    tag_330:\n      pop\n      swap1\n      jump\t// out\n    tag_62:\n      dup3\n      dup1\n      sload\n      dup3\n      dup3\n      sstore\n      swap1\n      0x00\n      mstore\n      keccak256(0x00, 0x20)\n      swap1\n      dup2\n      add\n      swap3\n      dup3\n      iszero\n      tag_332\n      jumpi\n      swap2\n      0x20\n      mul\n      dup3\n      add\n    tag_333:\n      dup3\n      dup2\n      gt\n      iszero\n      tag_334\n      jumpi\n      dup3\n      mload\n      dup3\n      swap1\n      0xff\n      and\n      swap1\n      sstore\n      swap2\n      0x20\n      add\n      swap2\n      swap1\n      0x01\n      add\n      swap1\n      jump(tag_333)\n    tag_334:\n    tag_332:\n      pop\n      swap1\n      pop\n      tag_335\n      swap2\n      swap1\n      tag_331\n      jump\t// in\n    tag_335:\n      pop\n      swap1\n      jump\t// out\n    tag_331:\n    tag_336:\n      dup1\n      dup3\n      gt\n      iszero\n      tag_337\n      jumpi\n      0x00\n      dup2\n      0x00\n      swap1\n      sstore\n      pop\n      0x01\n      add\n      jump(tag_336)\n    tag_337:\n      pop\n      swap1\n      jump\t// out\n        /* \"#utility.yul\":88:205   */\n    tag_339:\n        /* \"#utility.yul\":197:198   */\n      0x00\n        /* \"#utility.yul\":194:195   */\n      dup1\n        /* \"#utility.yul\":187:199   */\n      revert\n        /* \"#utility.yul\":334:460   */\n    tag_341:\n        /* \"#utility.yul\":371:378   */\n      0x00\n        /* \"#utility.yul\":411:453   */\n      0xffffffffffffffffffffffffffffffffffffffff\n        /* \"#utility.yul\":404:409   */\n      dup3\n        /* \"#utility.yul\":400:454   */\n      and\n        /* \"#utility.yul\":389:454   */\n      swap1\n      pop\n        /* \"#utility.yul\":334:460   */\n      swap2\n      swap1\n      pop\n      jump\t// out\n        /* \"#utility.yul\":466:562   */\n    tag_342:\n        /* \"#utility.yul\":503:510   */\n      0x00\n        /* \"#utility.yul\":532:556   */\n      tag_364\n        /* \"#utility.yul\":550:555   */\n      dup3\n        /* \"#utility.yul\":532:556   */\n      tag_341\n      jump\t// in\n    tag_364:\n        /* \"#utility.yul\":521:556   */\n      swap1\n      pop\n        /* \"#utility.yul\":466:562   */\n      swap2\n      swap1\n      pop\n      jump\t// out\n        /* \"#utility.yul\":568:690   */\n    tag_343:\n        /* \"#utility.yul\":641:665   */\n      tag_366\n        /* \"#utility.yul\":659:664   */\n      dup2\n        /* \"#utility.yul\":641:665   */\n      tag_342\n      jump\t// in\n    tag_366:\n        /* \"#utility.yul\":634:639   */\n      dup2\n        /* \"#utility.yul\":631:666   */\n      eq\n        /* \"#utility.yul\":621:684   */\n      tag_367\n      jumpi\n        /* \"#utility.yul\":680:681   */\n      0x00\n        /* \"#utility.yul\":677:678   */\n      dup1\n        /* \"#utility.yul\":670:682   */\n      revert\n        /* \"#utility.yul\":621:684   */\n    tag_367:\n        /* \"#utility.yul\":568:690   */\n      pop\n      jump\t// out\n        /* \"#utility.yul\":696:835   */\n    tag_344:\n        /* \"#utility.yul\":742:747   */\n      0x00\n        /* \"#utility.yul\":780:786   */\n      dup2\n        /* \"#utility.yul\":767:787   */\n      calldataload\n        /* \"#utility.yul\":758:787   */\n      swap1\n      pop\n        /* \"#utility.yul\":796:829   */\n      tag_369\n        /* \"#utility.yul\":823:828   */\n      dup2\n        /* \"#utility.yul\":796:829   */\n      tag_343\n      jump\t// in\n    tag_369:\n        /* \"#utility.yul\":696:835   */\n      swap3\n      swap2\n      pop\n      pop\n      jump\t// out\n        /* \"#utility.yul\":841:918   */\n    tag_345:\n        /* \"#utility.yul\":878:885   */\n      0x00\n        /* \"#utility.yul\":907:912   */\n      dup2\n        /* \"#utility.yul\":896:912   */\n      swap1\n      pop\n        /* \"#utility.yul\":841:918   */\n      swap2\n      swap1\n      pop\n      jump\t// out\n        /* \"#utility.yul\":924:1046   */\n    tag_346:\n        /* \"#utility.yul\":997:1021   */\n      tag_372\n        /* \"#utility.yul\":1015:1020   */\n      dup2\n        /* \"#utility.yul\":997:1021   */\n      tag_345\n      jump\t// in\n    tag_372:\n        /* \"#utility.yul\":990:995   */\n      dup2\n        /* \"#utility.yul\":987:1022   */\n      eq\n        /* \"#utility.yul\":977:1040   */\n      tag_373\n      jumpi\n        /* \"#utility.yul\":1036:1037   */\n      0x00\n        /* \"#utility.yul\":1033:1034   */\n      dup1\n        /* \"#utility.yul\":1026:1038   */\n      revert\n        /* \"#utility.yul\":977:1040   */\n    tag_373:\n        /* \"#utility.yul\":924:1046   */\n      pop\n      jump\t// out\n        /* \"#utility.yul\":1052:1191   */\n    tag_347:\n        /* \"#utility.yul\":1098:1103   */\n      0x00\n        /* \"#utility.yul\":1136:1142   */\n      dup2\n        /* \"#utility.yul\":1123:1143   */\n      calldataload\n        /* \"#utility.yul\":1114:1143   */\n      swap1\n      pop\n        /* \"#utility.yul\":1152:1185   */\n      tag_375\n        /* \"#utility.yul\":1179:1184   */\n      dup2\n        /* \"#utility.yul\":1152:1185   */\n      tag_346\n      jump\t// in\n    tag_375:\n        /* \"#utility.yul\":1052:1191   */\n      swap3\n      swap2\n      pop\n      pop\n      jump\t// out\n        /* \"#utility.yul\":1197:1671   */\n    tag_11:\n        /* \"#utility.yul\":1265:1271   */\n      0x00\n        /* \"#utility.yul\":1273:1279   */\n      dup1\n        /* \"#utility.yul\":1322:1324   */\n      0x40\n        /* \"#utility.yul\":1310:1319   */\n      dup4\n        /* \"#utility.yul\":1301:1308   */\n      dup6\n        /* \"#utility.yul\":1297:1320   */\n      sub\n        /* \"#utility.yul\":1293:1325   */\n      slt\n        /* \"#utility.yul\":1290:1409   */\n      iszero\n      tag_377\n      jumpi\n        /* \"#utility.yul\":1328:1407   */\n      tag_378\n      tag_339\n      jump\t// in\n    tag_378:\n        /* \"#utility.yul\":1290:1409   */\n    tag_377:\n        /* \"#utility.yul\":1448:1449   */\n      0x00\n        /* \"#utility.yul\":1473:1526   */\n      tag_379\n        /* \"#utility.yul\":1518:1525   */\n      dup6\n        /* \"#utility.yul\":1509:1515   */\n      dup3\n        /* \"#utility.yul\":1498:1507   */\n      dup7\n        /* \"#utility.yul\":1494:1516   */\n      add\n        /* \"#utility.yul\":1473:1526   */\n      tag_344\n      jump\t// in\n    tag_379:\n        /* \"#utility.yul\":1463:1526   */\n      swap3\n      pop\n        /* \"#utility.yul\":1419:1536   */\n      pop\n        /* \"#utility.yul\":1575:1577   */\n      0x20\n        /* \"#utility.yul\":1601:1654   */\n      tag_380\n        /* \"#utility.yul\":1646:1653   */\n      dup6\n        /* \"#utility.yul\":1637:1643   */\n      dup3\n        /* \"#utility.yul\":1626:1635   */\n      dup7\n        /* \"#utility.yul\":1622:1644   */\n      add\n        /* \"#utility.yul\":1601:1654   */\n      tag_347\n      jump\t// in\n    tag_380:\n        /* \"#utility.yul\":1591:1654   */\n      swap2\n      pop\n        /* \"#utility.yul\":1546:1664   */\n      pop\n        /* \"#utility.yul\":1197:1671   */\n      swap3\n      pop\n      swap3\n      swap1\n      pop\n      jump\t// out\n        /* \"#utility.yul\":1677:2151   */\n    tag_15:\n        /* \"#utility.yul\":1745:1751   */\n      0x00\n        /* \"#utility.yul\":1753:1759   */\n      dup1\n        /* \"#utility.yul\":1802:1804   */\n      0x40\n        /* \"#utility.yul\":1790:1799   */\n      dup4\n        /* \"#utility.yul\":1781:1788   */\n      dup6\n        /* \"#utility.yul\":1777:1800   */\n      sub\n        /* \"#utility.yul\":1773:1805   */\n      slt\n        /* \"#utility.yul\":1770:1889   */\n      iszero\n      tag_382\n      jumpi\n        /* \"#utility.yul\":1808:1887   */\n      tag_383\n      tag_339\n      jump\t// in\n    tag_383:\n        /* \"#utility.yul\":1770:1889   */\n    tag_382:\n        /* \"#utility.yul\":1928:1929   */\n      0x00\n        /* \"#utility.yul\":1953:2006   */\n      tag_384\n        /* \"#utility.yul\":1998:2005   */\n      dup6\n        /* \"#utility.yul\":1989:1995   */\n      dup3\n        /* \"#utility.yul\":1978:1987   */\n      dup7\n        /* \"#utility.yul\":1974:1996   */\n      add\n        /* \"#utility.yul\":1953:2006   */\n      tag_344\n      jump\t// in\n    tag_384:\n        /* \"#utility.yul\":1943:2006   */\n      swap3\n      pop\n        /* \"#utility.yul\":1899:2016   */\n      pop\n        /* \"#utility.yul\":2055:2057   */\n      0x20\n        /* \"#utility.yul\":2081:2134   */\n      tag_385\n        /* \"#utility.yul\":2126:2133   */\n      dup6\n        /* \"#utility.yul\":2117:2123   */\n      dup3\n        /* \"#utility.yul\":2106:2115   */\n      dup7\n        /* \"#utility.yul\":2102:2124   */\n      add\n        /* \"#utility.yul\":2081:2134   */\n      tag_344\n      jump\t// in\n    tag_385:\n        /* \"#utility.yul\":2071:2134   */\n      swap2\n      pop\n        /* \"#utility.yul\":2026:2144   */\n      pop\n        /* \"#utility.yul\":1677:2151   */\n      swap3\n      pop\n      swap3\n      swap1\n      pop\n      jump\t// out\n        /* \"#utility.yul\":2157:2275   */\n    tag_348:\n        /* \"#utility.yul\":2244:2268   */\n      tag_387\n        /* \"#utility.yul\":2262:2267   */\n      dup2\n        /* \"#utility.yul\":2244:2268   */\n      tag_345\n      jump\t// in\n    tag_387:\n        /* \"#utility.yul\":2239:2242   */\n      dup3\n        /* \"#utility.yul\":2232:2269   */\n      mstore\n        /* \"#utility.yul\":2157:2275   */\n      pop\n      pop\n      jump\t// out\n        /* \"#utility.yul\":2281:2503   */\n    tag_18:\n        /* \"#utility.yul\":2374:2378   */\n      0x00\n        /* \"#utility.yul\":2412:2414   */\n      0x20\n        /* \"#utility.yul\":2401:2410   */\n      dup3\n        /* \"#utility.yul\":2397:2415   */\n      add\n        /* \"#utility.yul\":2389:2415   */\n      swap1\n      pop\n        /* \"#utility.yul\":2425:2496   */\n      tag_389\n        /* \"#utility.yul\":2493:2494   */\n      0x00\n        /* \"#utility.yul\":2482:2491   */\n      dup4\n        /* \"#utility.yul\":2478:2495   */\n      add\n        /* \"#utility.yul\":2469:2475   */\n      dup5\n        /* \"#utility.yul\":2425:2496   */\n      tag_348\n      jump\t// in\n    tag_389:\n        /* \"#utility.yul\":2281:2503   */\n      swap3\n      swap2\n      pop\n      pop\n      jump\t// out\n        /* \"#utility.yul\":2509:2838   */\n    tag_23:\n        /* \"#utility.yul\":2568:2574   */\n      0x00\n        /* \"#utility.yul\":2617:2619   */\n      0x20\n        /* \"#utility.yul\":2605:2614   */\n      dup3\n        /* \"#utility.yul\":2596:2603   */\n      dup5\n        /* \"#utility.yul\":2592:2615   */\n      sub\n        /* \"#utility.yul\":2588:2620   */\n      slt\n        /* \"#utility.yul\":2585:2704   */\n      iszero\n      tag_391\n      jumpi\n        /* \"#utility.yul\":2623:2702   */\n      tag_392\n      tag_339\n      jump\t// in\n    tag_392:\n        /* \"#utility.yul\":2585:2704   */\n    tag_391:\n        /* \"#utility.yul\":2743:2744   */\n      0x00\n        /* \"#utility.yul\":2768:2821   */\n      tag_393\n        /* \"#utility.yul\":2813:2820   */\n      dup5\n        /* \"#utility.yul\":2804:2810   */\n      dup3\n        /* \"#utility.yul\":2793:2802   */\n      dup6\n        /* \"#utility.yul\":2789:2811   */\n      add\n        /* \"#utility.yul\":2768:2821   */\n      tag_344\n      jump\t// in\n    tag_393:\n        /* \"#utility.yul\":2758:2821   */\n      swap2\n      pop\n        /* \"#utility.yul\":2714:2831   */\n      pop\n        /* \"#utility.yul\":2509:2838   */\n      swap3\n      swap2\n      pop\n      pop\n      jump\t// out\n        /* \"#utility.yul\":2844:2962   */\n    tag_349:\n        /* \"#utility.yul\":2931:2955   */\n      tag_395\n        /* \"#utility.yul\":2949:2954   */\n      dup2\n        /* \"#utility.yul\":2931:2955   */\n      tag_342\n      jump\t// in\n    tag_395:\n        /* \"#utility.yul\":2926:2929   */\n      dup3\n        /* \"#utility.yul\":2919:2956   */\n      mstore\n        /* \"#utility.yul\":2844:2962   */\n      pop\n      pop\n      jump\t// out\n        /* \"#utility.yul\":2968:3190   */\n    tag_29:\n        /* \"#utility.yul\":3061:3065   */\n      0x00\n        /* \"#utility.yul\":3099:3101   */\n      0x20\n        /* \"#utility.yul\":3088:3097   */\n      dup3\n        /* \"#utility.yul\":3084:3102   */\n      add\n        /* \"#utility.yul\":3076:3102   */\n      swap1\n      pop\n        /* \"#utility.yul\":3112:3183   */\n      tag_397\n        /* \"#utility.yul\":3180:3181   */\n      0x00\n        /* \"#utility.yul\":3169:3178   */\n      dup4\n        /* \"#utility.yul\":3165:3182   */\n      add\n        /* \"#utility.yul\":3156:3162   */\n      dup5\n        /* \"#utility.yul\":3112:3183   */\n      tag_349\n      jump\t// in\n    tag_397:\n        /* \"#utility.yul\":2968:3190   */\n      swap3\n      swap2\n      pop\n      pop\n      jump\t// out\n        /* \"#utility.yul\":3196:3365   */\n    tag_350:\n        /* \"#utility.yul\":3280:3291   */\n      0x00\n        /* \"#utility.yul\":3314:3320   */\n      dup3\n        /* \"#utility.yul\":3309:3312   */\n      dup3\n        /* \"#utility.yul\":3302:3321   */\n      mstore\n        /* \"#utility.yul\":3354:3358   */\n      0x20\n        /* \"#utility.yul\":3349:3352   */\n      dup3\n        /* \"#utility.yul\":3345:3359   */\n      add\n        /* \"#utility.yul\":3330:3359   */\n      swap1\n      pop\n        /* \"#utility.yul\":3196:3365   */\n      swap3\n      swap2\n      pop\n      pop\n      jump\t// out\n        /* \"#utility.yul\":3371:3527   */\n    tag_351:\n        /* \"#utility.yul\":3511:3519   */\n      0x4552524f52210000000000000000000000000000000000000000000000000000\n        /* \"#utility.yul\":3507:3508   */\n      0x00\n        /* \"#utility.yul\":3499:3505   */\n      dup3\n        /* \"#utility.yul\":3495:3509   */\n      add\n        /* \"#utility.yul\":3488:3520   */\n      mstore\n        /* \"#utility.yul\":3371:3527   */\n      pop\n      jump\t// out\n        /* \"#utility.yul\":3533:3898   */\n    tag_352:\n        /* \"#utility.yul\":3675:3678   */\n      0x00\n        /* \"#utility.yul\":3696:3762   */\n      tag_401\n        /* \"#utility.yul\":3760:3761   */\n      0x06\n        /* \"#utility.yul\":3755:3758   */\n      dup4\n        /* \"#utility.yul\":3696:3762   */\n      tag_350\n      jump\t// in\n    tag_401:\n        /* \"#utility.yul\":3689:3762   */\n      swap2\n      pop\n        /* \"#utility.yul\":3771:3864   */\n      tag_402\n        /* \"#utility.yul\":3860:3863   */\n      dup3\n        /* \"#utility.yul\":3771:3864   */\n      tag_351\n      jump\t// in\n    tag_402:\n        /* \"#utility.yul\":3889:3891   */\n      0x20\n        /* \"#utility.yul\":3884:3887   */\n      dup3\n        /* \"#utility.yul\":3880:3892   */\n      add\n        /* \"#utility.yul\":3873:3892   */\n      swap1\n      pop\n        /* \"#utility.yul\":3533:3898   */\n      swap2\n      swap1\n      pop\n      jump\t// out\n        /* \"#utility.yul\":3904:4323   */\n    tag_36:\n        /* \"#utility.yul\":4070:4074   */\n      0x00\n        /* \"#utility.yul\":4108:4110   */\n      0x20\n        /* \"#utility.yul\":4097:4106   */\n      dup3\n        /* \"#utility.yul\":4093:4111   */\n      add\n        /* \"#utility.yul\":4085:4111   */\n      swap1\n      pop\n        /* \"#utility.yul\":4157:4166   */\n      dup2\n        /* \"#utility.yul\":4151:4155   */\n      dup2\n        /* \"#utility.yul\":4147:4167   */\n      sub\n        /* \"#utility.yul\":4143:4144   */\n      0x00\n        /* \"#utility.yul\":4132:4141   */\n      dup4\n        /* \"#utility.yul\":4128:4145   */\n      add\n        /* \"#utility.yul\":4121:4168   */\n      mstore\n        /* \"#utility.yul\":4185:4316   */\n      tag_404\n        /* \"#utility.yul\":4311:4315   */\n      dup2\n        /* \"#utility.yul\":4185:4316   */\n      tag_352\n      jump\t// in\n    tag_404:\n        /* \"#utility.yul\":4177:4316   */\n      swap1\n      pop\n        /* \"#utility.yul\":3904:4323   */\n      swap2\n      swap1\n      pop\n      jump\t// out\n        /* \"#utility.yul\":4329:4509   */\n    tag_55:\n        /* \"#utility.yul\":4377:4454   */\n      0x4e487b7100000000000000000000000000000000000000000000000000000000\n        /* \"#utility.yul\":4374:4375   */\n      0x00\n        /* \"#utility.yul\":4367:4455   */\n      mstore\n        /* \"#utility.yul\":4474:4478   */\n      0x32\n        /* \"#utility.yul\":4471:4472   */\n      0x04\n        /* \"#utility.yul\":4464:4479   */\n      mstore\n        /* \"#utility.yul\":4498:4502   */\n      0x24\n        /* \"#utility.yul\":4495:4496   */\n      0x00\n        /* \"#utility.yul\":4488:4503   */\n      revert\n        /* \"#utility.yul\":4515:4695   */\n    tag_353:\n        /* \"#utility.yul\":4563:4640   */\n      0x4e487b7100000000000000000000000000000000000000000000000000000000\n        /* \"#utility.yul\":4560:4561   */\n      0x00\n        /* \"#utility.yul\":4553:4641   */\n      mstore\n        /* \"#utility.yul\":4660:4664   */\n      0x11\n        /* \"#utility.yul\":4657:4658   */\n      0x04\n        /* \"#utility.yul\":4650:4665   */\n      mstore\n        /* \"#utility.yul\":4684:4688   */\n      0x24\n        /* \"#utility.yul\":4681:4682   */\n      0x00\n        /* \"#utility.yul\":4674:4689   */\n      revert\n        /* \"#utility.yul\":4701:4934   */\n    tag_59:\n        /* \"#utility.yul\":4740:4743   */\n      0x00\n        /* \"#utility.yul\":4763:4787   */\n      tag_408\n        /* \"#utility.yul\":4781:4786   */\n      dup3\n        /* \"#utility.yul\":4763:4787   */\n      tag_345\n      jump\t// in\n    tag_408:\n        /* \"#utility.yul\":4754:4787   */\n      swap2\n      pop\n        /* \"#utility.yul\":4809:4875   */\n      0xffffffffffffffffffffffffffffffffffffffffffffffffffffffffffffffff\n        /* \"#utility.yul\":4802:4807   */\n      dup3\n        /* \"#utility.yul\":4799:4876   */\n      sub\n        /* \"#utility.yul\":4796:4899   */\n      tag_409\n      jumpi\n        /* \"#utility.yul\":4879:4897   */\n      tag_410\n      tag_353\n      jump\t// in\n    tag_410:\n        /* \"#utility.yul\":4796:4899   */\n    tag_409:\n        /* \"#utility.yul\":4926:4927   */\n      0x01\n        /* \"#utility.yul\":4919:4924   */\n      dup3\n        /* \"#utility.yul\":4915:4928   */\n      add\n        /* \"#utility.yul\":4908:4928   */\n      swap1\n      pop\n        /* \"#utility.yul\":4701:4934   */\n      swap2\n      swap1\n      pop\n      jump\t// out\n        /* \"#utility.yul\":4940:5131   */\n    tag_100:\n        /* \"#utility.yul\":4980:4983   */\n      0x00\n        /* \"#utility.yul\":4999:5019   */\n      tag_412\n        /* \"#utility.yul\":5017:5018   */\n      dup3\n        /* \"#utility.yul\":4999:5019   */\n      tag_345\n      jump\t// in\n    tag_412:\n        /* \"#utility.yul\":4994:5019   */\n      swap2\n      pop\n        /* \"#utility.yul\":5033:5053   */\n      tag_413\n        /* \"#utility.yul\":5051:5052   */\n      dup4\n        /* \"#utility.yul\":5033:5053   */\n      tag_345\n      jump\t// in\n    tag_413:\n        /* \"#utility.yul\":5028:5053   */\n      swap3\n      pop\n        /* \"#utility.yul\":5076:5077   */\n      dup3\n        /* \"#utility.yul\":5073:5074   */\n      dup3\n        /* \"#utility.yul\":5069:5078   */\n      add\n        /* \"#utility.yul\":5062:5078   */\n      swap1\n      pop\n        /* \"#utility.yul\":5097:5100   */\n      dup1\n        /* \"#utility.yul\":5094:5095   */\n      dup3\n        /* \"#utility.yul\":5091:5101   */\n      gt\n        /* \"#utility.yul\":5088:5124   */\n      iszero\n      tag_414\n      jumpi\n        /* \"#utility.yul\":5104:5122   */\n      tag_415\n      tag_353\n      jump\t// in\n    tag_415:\n        /* \"#utility.yul\":5088:5124   */\n    tag_414:\n        /* \"#utility.yul\":4940:5131   */\n      swap3\n      swap2\n      pop\n      pop\n      jump\t// out\n        /* \"#utility.yul\":5137:5331   */\n    tag_140:\n        /* \"#utility.yul\":5177:5181   */\n      0x00\n        /* \"#utility.yul\":5197:5217   */\n      tag_417\n        /* \"#utility.yul\":5215:5216   */\n      dup3\n        /* \"#utility.yul\":5197:5217   */\n      tag_345\n      jump\t// in\n    tag_417:\n        /* \"#utility.yul\":5192:5217   */\n      swap2\n      pop\n        /* \"#utility.yul\":5231:5251   */\n      tag_418\n        /* \"#utility.yul\":5249:5250   */\n      dup4\n        /* \"#utility.yul\":5231:5251   */\n      tag_345\n      jump\t// in\n    tag_418:\n        /* \"#utility.yul\":5226:5251   */\n      swap3\n      pop\n        /* \"#utility.yul\":5275:5276   */\n      dup3\n        /* \"#utility.yul\":5272:5273   */\n      dup3\n        /* \"#utility.yul\":5268:5277   */\n      sub\n        /* \"#utility.yul\":5260:5277   */\n      swap1\n      pop\n        /* \"#utility.yul\":5299:5300   */\n      dup2\n        /* \"#utility.yul\":5293:5297   */\n      dup2\n        /* \"#utility.yul\":5290:5301   */\n      gt\n        /* \"#utility.yul\":5287:5324   */\n      iszero\n      tag_419\n      jumpi\n        /* \"#utility.yul\":5304:5322   */\n      tag_420\n      tag_353\n      jump\t// in\n    tag_420:\n        /* \"#utility.yul\":5287:5324   */\n    tag_419:\n        /* \"#utility.yul\":5137:5331   */\n      swap3\n      swap2\n      pop\n      pop\n      jump\t// out\n        /* \"#utility.yul\":5337:5519   */\n    tag_354:\n        /* \"#utility.yul\":5477:5511   */\n      0x4f776e61626c653a2063616c6c6572206973206e6f7420746865206f776e6572\n        /* \"#utility.yul\":5473:5474   */\n      0x00\n        /* \"#utility.yul\":5465:5471   */\n      dup3\n        /* \"#utility.yul\":5461:5475   */\n      add\n        /* \"#utility.yul\":5454:5512   */\n      mstore\n        /* \"#utility.yul\":5337:5519   */\n      pop\n      jump\t// out\n        /* \"#utility.yul\":5525:5891   */\n    tag_355:\n        /* \"#utility.yul\":5667:5670   */\n      0x00\n        /* \"#utility.yul\":5688:5755   */\n      tag_423\n        /* \"#utility.yul\":5752:5754   */\n      0x20\n        /* \"#utility.yul\":5747:5750   */\n      dup4\n        /* \"#utility.yul\":5688:5755   */\n      tag_350\n      jump\t// in\n    tag_423:\n        /* \"#utility.yul\":5681:5755   */\n      swap2\n      pop\n        /* \"#utility.yul\":5764:5857   */\n      tag_424\n        /* \"#utility.yul\":5853:5856   */\n      dup3\n        /* \"#utility.yul\":5764:5857   */\n      tag_354\n      jump\t// in\n    tag_424:\n        /* \"#utility.yul\":5882:5884   */\n      0x20\n        /* \"#utility.yul\":5877:5880   */\n      dup3\n        /* \"#utility.yul\":5873:5885   */\n      add\n        /* \"#utility.yul\":5866:5885   */\n      swap1\n      pop\n        /* \"#utility.yul\":5525:5891   */\n      swap2\n      swap1\n      pop\n      jump\t// out\n        /* \"#utility.yul\":5897:6316   */\n    tag_178:\n        /* \"#utility.yul\":6063:6067   */\n      0x00\n        /* \"#utility.yul\":6101:6103   */\n      0x20\n        /* \"#utility.yul\":6090:6099   */\n      dup3\n        /* \"#utility.yul\":6086:6104   */\n      add\n        /* \"#utility.yul\":6078:6104   */\n      swap1\n      pop\n        /* \"#utility.yul\":6150:6159   */\n      dup2\n        /* \"#utility.yul\":6144:6148   */\n      dup2\n        /* \"#utility.yul\":6140:6160   */\n      sub\n        /* \"#utility.yul\":6136:6137   */\n      0x00\n        /* \"#utility.yul\":6125:6134   */\n      dup4\n        /* \"#utility.yul\":6121:6138   */\n      add\n        /* \"#utility.yul\":6114:6161   */\n      mstore\n        /* \"#utility.yul\":6178:6309   */\n      tag_426\n        /* \"#utility.yul\":6304:6308   */\n      dup2\n        /* \"#utility.yul\":6178:6309   */\n      tag_355\n      jump\t// in\n    tag_426:\n        /* \"#utility.yul\":6170:6309   */\n      swap1\n      pop\n        /* \"#utility.yul\":5897:6316   */\n      swap2\n      swap1\n      pop\n      jump\t// out\n        /* \"#utility.yul\":6322:6547   */\n    tag_356:\n        /* \"#utility.yul\":6462:6496   */\n      0x4f776e61626c653a206e6577206f776e657220697320746865207a65726f2061\n        /* \"#utility.yul\":6458:6459   */\n      0x00\n        /* \"#utility.yul\":6450:6456   */\n      dup3\n        /* \"#utility.yul\":6446:6460   */\n      add\n        /* \"#utility.yul\":6439:6497   */\n      mstore\n        /* \"#utility.yul\":6531:6539   */\n      0x6464726573730000000000000000000000000000000000000000000000000000\n        /* \"#utility.yul\":6526:6528   */\n      0x20\n        /* \"#utility.yul\":6518:6524   */\n      dup3\n        /* \"#utility.yul\":6514:6529   */\n      add\n        /* \"#utility.yul\":6507:6540   */\n      mstore\n        /* \"#utility.yul\":6322:6547   */\n      pop\n      jump\t// out\n        /* \"#utility.yul\":6553:6919   */\n    tag_357:\n        /* \"#utility.yul\":6695:6698   */\n      0x00\n        /* \"#utility.yul\":6716:6783   */\n      tag_429\n        /* \"#utility.yul\":6780:6782   */\n      0x26\n        /* \"#utility.yul\":6775:6778   */\n      dup4\n        /* \"#utility.yul\":6716:6783   */\n      tag_350\n      jump\t// in\n    tag_429:\n        /* \"#utility.yul\":6709:6783   */\n      swap2\n      pop\n        /* \"#utility.yul\":6792:6885   */\n      tag_430\n        /* \"#utility.yul\":6881:6884   */\n      dup3\n        /* \"#utility.yul\":6792:6885   */\n      tag_356\n      jump\t// in\n    tag_430:\n        /* \"#utility.yul\":6910:6912   */\n      0x40\n        /* \"#utility.yul\":6905:6908   */\n      dup3\n        /* \"#utility.yul\":6901:6913   */\n      add\n        /* \"#utility.yul\":6894:6913   */\n      swap1\n      pop\n        /* \"#utility.yul\":6553:6919   */\n      swap2\n      swap1\n      pop\n      jump\t// out\n        /* \"#utility.yul\":6925:7344   */\n    tag_203:\n        /* \"#utility.yul\":7091:7095   */\n      0x00\n        /* \"#utility.yul\":7129:7131   */\n      0x20\n        /* \"#utility.yul\":7118:7127   */\n      dup3\n        /* \"#utility.yul\":7114:7132   */\n      add\n        /* \"#utility.yul\":7106:7132   */\n      swap1\n      pop\n        /* \"#utility.yul\":7178:7187   */\n      dup2\n        /* \"#utility.yul\":7172:7176   */\n      dup2\n        /* \"#utility.yul\":7168:7188   */\n      sub\n        /* \"#utility.yul\":7164:7165   */\n      0x00\n        /* \"#utility.yul\":7153:7162   */\n      dup4\n        /* \"#utility.yul\":7149:7166   */\n      add\n        /* \"#utility.yul\":7142:7189   */\n      mstore\n        /* \"#utility.yul\":7206:7337   */\n      tag_432\n        /* \"#utility.yul\":7332:7336   */\n      dup2\n        /* \"#utility.yul\":7206:7337   */\n      tag_357\n      jump\t// in\n    tag_432:\n        /* \"#utility.yul\":7198:7337   */\n      swap1\n      pop\n        /* \"#utility.yul\":6925:7344   */\n      swap2\n      swap1\n      pop\n      jump\t// out\n        /* \"#utility.yul\":7350:7530   */\n    tag_219:\n        /* \"#utility.yul\":7398:7475   */\n      0x4e487b7100000000000000000000000000000000000000000000000000000000\n        /* \"#utility.yul\":7395:7396   */\n      0x00\n        /* \"#utility.yul\":7388:7476   */\n      mstore\n        /* \"#utility.yul\":7495:7499   */\n      0x41\n        /* \"#utility.yul\":7492:7493   */\n      0x04\n        /* \"#utility.yul\":7485:7500   */\n      mstore\n        /* \"#utility.yul\":7519:7523   */\n      0x24\n        /* \"#utility.yul\":7516:7517   */\n      0x00\n        /* \"#utility.yul\":7509:7524   */\n      revert\n        /* \"#utility.yul\":7536:7716   */\n    tag_238:\n        /* \"#utility.yul\":7584:7661   */\n      0x4e487b7100000000000000000000000000000000000000000000000000000000\n        /* \"#utility.yul\":7581:7582   */\n      0x00\n        /* \"#utility.yul\":7574:7662   */\n      mstore\n        /* \"#utility.yul\":7681:7685   */\n      0x01\n        /* \"#utility.yul\":7678:7679   */\n      0x04\n        /* \"#utility.yul\":7671:7686   */\n      mstore\n        /* \"#utility.yul\":7705:7709   */\n      0x24\n        /* \"#utility.yul\":7702:7703   */\n      0x00\n        /* \"#utility.yul\":7695:7710   */\n      revert\n\n    auxdata: 0xa26469706673582212202bc9726fdec7b991f2eb4feacf5ffcd71758ecee3ecfc8aecc572a7f3dfc5f7a64736f6c63430008130033\n}\n",
				"bytecode": {
					"linkReferences": {},
					"object": "6080604052600060045534801561001557600080fd5b5060006100266100c960201b60201c565b9050806000806101000a81548173ffffffffffffffffffffffffffffffffffffffff021916908373ffffffffffffffffffffffffffffffffffffffff1602179055508073ffffffffffffffffffffffffffffffffffffffff16600073ffffffffffffffffffffffffffffffffffffffff167f8be0079c531659141344cd1fd0a4f28419497f9722a3daafe3b4186f6b6457e060405160405180910390a3506100d1565b600033905090565b611e1d806100e06000396000f3fe608060405234801561001057600080fd5b50600436106100625760003560e01c8063215accc714610067578063713584a614610083578063715018a6146100b357806373851075146100bd5780638da5cb5b146100ed578063f2fde38b1461010b575b600080fd5b610081600480360381019061007c91906119ff565b610127565b005b61009d60048036038101906100989190611a3f565b610c33565b6040516100aa9190611a8e565b60405180910390f35b6100bb610d9a565b005b6100d760048036038101906100d29190611aa9565b610eed565b6040516100e49190611a8e565b60405180910390f35b6100f561101b565b6040516101029190611ae5565b60405180910390f35b61012560048036038101906101209190611aa9565b611044565b005b600081101561016b576040517f08c379a000000000000000000000000000000000000000000000000000000000815260040161016290611b5d565b60405180910390fd5b6000600454036102325761017e33611205565b61018782611205565b60016040518060400160405280600060ff168152602001600060ff16815250908060018154018082558091505060019003906000526020600020016000909190919091509060026101d99291906118a5565b5060016040518060400160405280600060ff168152602001600060ff168152509080600181540180825580915050600190039060005260206000200160009091909190915090600261022c9291906118a5565b506104a1565b6000151561023f336112c6565b1515036103695760005b6004548110156102ac576001818154811061026757610266611b7d565b5b906000526020600020016000908060018154018082558091505060019003906000526020600020016000909190919091505580806102a490611bdb565b915050610249565b5060016040518060200160405280600060ff16815250908060018154018082558091505060019003906000526020600020016000909190919091509060016102f59291906118f7565b5060005b60045481101561035e5760016004548154811061031957610318611b7d565b5b9060005260206000200160009080600181540180825580915050600190039060005260206000200160009091909190915055808061035690611bdb565b9150506102f9565b5061036833611205565b5b60001515610376836112c6565b1515036104a05760005b6004548110156103e3576001818154811061039e5761039d611b7d565b5b906000526020600020016000908060018154018082558091505060019003906000526020600020016000909190919091505580806103db90611bdb565b915050610380565b5060016040518060200160405280600060ff168152509080600181540180825580915050600190039060005260206000200160009091909190915090600161042c9291906118f7565b5060005b600454811015610495576001600454815481106104505761044f611b7d565b5b9060005260206000200160009080600181540180825580915050600190039060005260206000200160009091909190915055808061048d90611bdb565b915050610430565b5061049f82611205565b5b5b6000339050816001600260008473ffffffffffffffffffffffffffffffffffffffff1673ffffffffffffffffffffffffffffffffffffffff16815260200190815260200160002054815481106104fa576104f9611b7d565b5b90600052602060002001600260008673ffffffffffffffffffffffffffffffffffffffff1673ffffffffffffffffffffffffffffffffffffffff168152602001908152602001600020548154811061055557610554611b7d565b5b906000526020600020015461056a9190611c23565b6001600260008473ffffffffffffffffffffffffffffffffffffffff1673ffffffffffffffffffffffffffffffffffffffff16815260200190815260200160002054815481106105bd576105bc611b7d565b5b90600052602060002001600260008673ffffffffffffffffffffffffffffffffffffffff1673ffffffffffffffffffffffffffffffffffffffff168152602001908152602001600020548154811061061857610617611b7d565b5b906000526020600020018190555060006001600260008673ffffffffffffffffffffffffffffffffffffffff1673ffffffffffffffffffffffffffffffffffffffff168152602001908152602001600020548154811061067b5761067a611b7d565b5b90600052602060002001600260008473ffffffffffffffffffffffffffffffffffffffff1673ffffffffffffffffffffffffffffffffffffffff16815260200190815260200160002054815481106106d6576106d5611b7d565b5b906000526020600020015414610c255760006001600260008673ffffffffffffffffffffffffffffffffffffffff1673ffffffffffffffffffffffffffffffffffffffff168152602001908152602001600020548154811061073b5761073a611b7d565b5b90600052602060002001600260008473ffffffffffffffffffffffffffffffffffffffff1673ffffffffffffffffffffffffffffffffffffffff168152602001908152602001600020548154811061079657610795611b7d565b5b90600052602060002001549050806001600260008573ffffffffffffffffffffffffffffffffffffffff1673ffffffffffffffffffffffffffffffffffffffff16815260200190815260200160002054815481106107f7576107f6611b7d565b5b90600052602060002001600260008773ffffffffffffffffffffffffffffffffffffffff1673ffffffffffffffffffffffffffffffffffffffff168152602001908152602001600020548154811061085257610851611b7d565b5b9060005260206000200154101561091f576001600260008473ffffffffffffffffffffffffffffffffffffffff1673ffffffffffffffffffffffffffffffffffffffff16815260200190815260200160002054815481106108b6576108b5611b7d565b5b90600052602060002001600260008673ffffffffffffffffffffffffffffffffffffffff1673ffffffffffffffffffffffffffffffffffffffff168152602001908152602001600020548154811061091157610910611b7d565b5b906000526020600020015490505b806001600260008773ffffffffffffffffffffffffffffffffffffffff1673ffffffffffffffffffffffffffffffffffffffff168152602001908152602001600020548154811061097357610972611b7d565b5b90600052602060002001600260008573ffffffffffffffffffffffffffffffffffffffff1673ffffffffffffffffffffffffffffffffffffffff16815260200190815260200160002054815481106109ce576109cd611b7d565b5b90600052602060002001546109e39190611c57565b6001600260008773ffffffffffffffffffffffffffffffffffffffff1673ffffffffffffffffffffffffffffffffffffffff1681526020019081526020016000205481548110610a3657610a35611b7d565b5b90600052602060002001600260008573ffffffffffffffffffffffffffffffffffffffff1673ffffffffffffffffffffffffffffffffffffffff1681526020019081526020016000205481548110610a9157610a90611b7d565b5b9060005260206000200181905550806001600260008573ffffffffffffffffffffffffffffffffffffffff1673ffffffffffffffffffffffffffffffffffffffff1681526020019081526020016000205481548110610af357610af2611b7d565b5b90600052602060002001600260008773ffffffffffffffffffffffffffffffffffffffff1673ffffffffffffffffffffffffffffffffffffffff1681526020019081526020016000205481548110610b4e57610b4d611b7d565b5b9060005260206000200154610b639190611c57565b6001600260008573ffffffffffffffffffffffffffffffffffffffff1673ffffffffffffffffffffffffffffffffffffffff1681526020019081526020016000205481548110610bb657610bb5611b7d565b5b90600052602060002001600260008773ffffffffffffffffffffffffffffffffffffffff1673ffffffffffffffffffffffffffffffffffffffff1681526020019081526020016000205481548110610c1157610c10611b7d565b5b906000526020600020018190555050610c2e565b610c2d611371565b5b505050565b60008273ffffffffffffffffffffffffffffffffffffffff163373ffffffffffffffffffffffffffffffffffffffff161480610c9a57508173ffffffffffffffffffffffffffffffffffffffff163373ffffffffffffffffffffffffffffffffffffffff16145b610cd9576040517f08c379a0000000000000000000000000000000000000000000000000000000008152600401610cd090611b5d565b60405180910390fd5b6001600260008573ffffffffffffffffffffffffffffffffffffffff1673ffffffffffffffffffffffffffffffffffffffff1681526020019081526020016000205481548110610d2c57610d2b611b7d565b5b90600052602060002001600260008473ffffffffffffffffffffffffffffffffffffffff1673ffffffffffffffffffffffffffffffffffffffff1681526020019081526020016000205481548110610d8757610d86611b7d565b5b9060005260206000200154905092915050565b610da26114a2565b73ffffffffffffffffffffffffffffffffffffffff1660008054906101000a900473ffffffffffffffffffffffffffffffffffffffff1673ffffffffffffffffffffffffffffffffffffffff1614610e2f576040517f08c379a0000000000000000000000000000000000000000000000000000000008152600401610e2690611cd7565b60405180910390fd5b600073ffffffffffffffffffffffffffffffffffffffff1660008054906101000a900473ffffffffffffffffffffffffffffffffffffffff1673ffffffffffffffffffffffffffffffffffffffff167f8be0079c531659141344cd1fd0a4f28419497f9722a3daafe3b4186f6b6457e060405160405180910390a360008060006101000a81548173ffffffffffffffffffffffffffffffffffffffff021916908373ffffffffffffffffffffffffffffffffffffffff160217905550565b60008173ffffffffffffffffffffffffffffffffffffffff163373ffffffffffffffffffffffffffffffffffffffff1614610f5d576040517f08c379a0000000000000000000000000000000000000000000000000000000008152600401610f5490611b5d565b60405180910390fd5b600080600260008573ffffffffffffffffffffffffffffffffffffffff1673ffffffffffffffffffffffffffffffffffffffff16815260200190815260200160002054905060005b60045481101561101057610ffc60018381548110610fc657610fc5611b7d565b5b906000526020600020018281548110610fe257610fe1611b7d565b5b9060005260206000200154846114aa90919063ffffffff16565b50808061100890611bdb565b915050610fa5565b508192505050919050565b60008060009054906101000a900473ffffffffffffffffffffffffffffffffffffffff16905090565b61104c6114a2565b73ffffffffffffffffffffffffffffffffffffffff1660008054906101000a900473ffffffffffffffffffffffffffffffffffffffff1673ffffffffffffffffffffffffffffffffffffffff16146110d9576040517f08c379a00000000000000000000000000000000000000000000000000000000081526004016110d090611cd7565b60405180910390fd5b600073ffffffffffffffffffffffffffffffffffffffff168173ffffffffffffffffffffffffffffffffffffffff1603611148576040517f08c379a000000000000000000000000000000000000000000000000000000000815260040161113f90611d69565b60405180910390fd5b8073ffffffffffffffffffffffffffffffffffffffff1660008054906101000a900473ffffffffffffffffffffffffffffffffffffffff1673ffffffffffffffffffffffffffffffffffffffff167f8be0079c531659141344cd1fd0a4f28419497f9722a3daafe3b4186f6b6457e060405160405180910390a3806000806101000a81548173ffffffffffffffffffffffffffffffffffffffff021916908373ffffffffffffffffffffffffffffffffffffffff16021790555050565b6003819080600181540180825580915050600190039060005260206000200160009091909190916101000a81548173ffffffffffffffffffffffffffffffffffffffff021916908373ffffffffffffffffffffffffffffffffffffffff160217905550600454600260008373ffffffffffffffffffffffffffffffffffffffff1673ffffffffffffffffffffffffffffffffffffffff1681526020019081526020016000208190555060016004546112bd9190611c23565b60048190555050565b600080600090505b600454811015611366578273ffffffffffffffffffffffffffffffffffffffff166003828154811061130357611302611b7d565b5b9060005260206000200160009054906101000a900473ffffffffffffffffffffffffffffffffffffffff1673ffffffffffffffffffffffffffffffffffffffff160361135357600191505061136c565b808061135e90611bdb565b9150506112ce565b50600090505b919050565b600060045467ffffffffffffffff81111561138f5761138e611d89565b5b6040519080825280602002602001820160405280156113bd5781602001602082028036833780820191505090505b509050600060045467ffffffffffffffff8111156113de576113dd611d89565b5b60405190808252806020026020018201604052801561140c5781602001602082028036833780820191505090505b50905060005b60045481101561149d57600083828151811061143157611430611b7d565b5b60200260200101510361148a576114888383600260003373ffffffffffffffffffffffffffffffffffffffff1673ffffffffffffffffffffffffffffffffffffffff168152602001908152602001600020546114d6565b505b808061149590611bdb565b915050611412565b505050565b600033905090565b60008082846114b99190611c23565b9050838110156114cc576114cb611db8565b5b8091505092915050565b600060018483815181106114ed576114ec611b7d565b5b60200260200101818152505060005b6004548110156118775760006001848154811061151c5761151b611b7d565b5b90600052602060002001828154811061153857611537611b7d565b5b90600052602060002001541461186457600085828151811061155d5761155c611b7d565b5b6020026020010151036115a9578284828151811061157e5761157d611b7d565b5b6020026020010181815250506115958585836114d6565b156115a457600191505061189e565b611863565b60018582815181106115be576115bd611b7d565b5b6020026020010151036118625760008390506000600182815481106115e6576115e5611b7d565b5b90600052602060002001838154811061160257611601611b7d565b5b906000526020600020015490505b8282146116ed5780600187848151811061162d5761162c611b7d565b5b60200260200101518154811061164657611645611b7d565b5b90600052602060002001838154811061166257611661611b7d565b5b906000526020600020015410156116cb57600186838151811061168857611687611b7d565b5b6020026020010151815481106116a1576116a0611b7d565b5b9060005260206000200182815481106116bd576116bc611b7d565b5b906000526020600020015490505b8582815181106116de576116dd611b7d565b5b60200260200101519150611610565b849150806001838154811061170557611704611b7d565b5b90600052602060002001848154811061172157611720611b7d565b5b90600052602060002001546117369190611c57565b6001838154811061174a57611749611b7d565b5b90600052602060002001848154811061176657611765611b7d565b5b90600052602060002001819055505b8282146118565780600187848151811061179257611791611b7d565b5b6020026020010151815481106117ab576117aa611b7d565b5b9060005260206000200183815481106117c7576117c6611b7d565b5b90600052602060002001546117dc9190611c57565b60018784815181106117f1576117f0611b7d565b5b60200260200101518154811061180a57611809611b7d565b5b90600052602060002001838154811061182657611825611b7d565b5b906000526020600020018190555085828151811061184757611846611b7d565b5b60200260200101519150611775565b6001935050505061189e565b5b5b808061186f90611bdb565b9150506114fc565b50600284838151811061188d5761188c611b7d565b5b602002602001018181525050600190505b9392505050565b8280548282559060005260206000209081019282156118e6579160200282015b828111156118e5578251829060ff169055916020019190600101906118c5565b5b5090506118f39190611949565b5090565b828054828255906000526020600020908101928215611938579160200282015b82811115611937578251829060ff16905591602001919060010190611917565b5b5090506119459190611949565b5090565b5b8082111561196257600081600090555060010161194a565b5090565b600080fd5b600073ffffffffffffffffffffffffffffffffffffffff82169050919050565b60006119968261196b565b9050919050565b6119a68161198b565b81146119b157600080fd5b50565b6000813590506119c38161199d565b92915050565b6000819050919050565b6119dc816119c9565b81146119e757600080fd5b50565b6000813590506119f9816119d3565b92915050565b60008060408385031215611a1657611a15611966565b5b6000611a24858286016119b4565b9250506020611a35858286016119ea565b9150509250929050565b60008060408385031215611a5657611a55611966565b5b6000611a64858286016119b4565b9250506020611a75858286016119b4565b9150509250929050565b611a88816119c9565b82525050565b6000602082019050611aa36000830184611a7f565b92915050565b600060208284031215611abf57611abe611966565b5b6000611acd848285016119b4565b91505092915050565b611adf8161198b565b82525050565b6000602082019050611afa6000830184611ad6565b92915050565b600082825260208201905092915050565b7f4552524f52210000000000000000000000000000000000000000000000000000600082015250565b6000611b47600683611b00565b9150611b5282611b11565b602082019050919050565b60006020820190508181036000830152611b7681611b3a565b9050919050565b7f4e487b7100000000000000000000000000000000000000000000000000000000600052603260045260246000fd5b7f4e487b7100000000000000000000000000000000000000000000000000000000600052601160045260246000fd5b6000611be6826119c9565b91507fffffffffffffffffffffffffffffffffffffffffffffffffffffffffffffffff8203611c1857611c17611bac565b5b600182019050919050565b6000611c2e826119c9565b9150611c39836119c9565b9250828201905080821115611c5157611c50611bac565b5b92915050565b6000611c62826119c9565b9150611c6d836119c9565b9250828203905081811115611c8557611c84611bac565b5b92915050565b7f4f776e61626c653a2063616c6c6572206973206e6f7420746865206f776e6572600082015250565b6000611cc1602083611b00565b9150611ccc82611c8b565b602082019050919050565b60006020820190508181036000830152611cf081611cb4565b9050919050565b7f4f776e61626c653a206e6577206f776e657220697320746865207a65726f206160008201527f6464726573730000000000000000000000000000000000000000000000000000602082015250565b6000611d53602683611b00565b9150611d5e82611cf7565b604082019050919050565b60006020820190508181036000830152611d8281611d46565b9050919050565b7f4e487b7100000000000000000000000000000000000000000000000000000000600052604160045260246000fd5b7f4e487b7100000000000000000000000000000000000000000000000000000000600052600160045260246000fdfea26469706673582212202bc9726fdec7b991f2eb4feacf5ffcd71758ecee3ecfc8aecc572a7f3dfc5f7a64736f6c63430008130033",
					"opcodes": "PUSH1 0x80 PUSH1 0x40 MSTORE PUSH1 0x0 PUSH1 0x4 SSTORE CALLVALUE DUP1 ISZERO PUSH2 0x15 JUMPI PUSH1 0x0 DUP1 REVERT JUMPDEST POP PUSH1 0x0 PUSH2 0x26 PUSH2 0xC9 PUSH1 0x20 SHL PUSH1 0x20 SHR JUMP JUMPDEST SWAP1 POP DUP1 PUSH1 0x0 DUP1 PUSH2 0x100 EXP DUP2 SLOAD DUP2 PUSH20 0xFFFFFFFFFFFFFFFFFFFFFFFFFFFFFFFFFFFFFFFF MUL NOT AND SWAP1 DUP4 PUSH20 0xFFFFFFFFFFFFFFFFFFFFFFFFFFFFFFFFFFFFFFFF AND MUL OR SWAP1 SSTORE POP DUP1 PUSH20 0xFFFFFFFFFFFFFFFFFFFFFFFFFFFFFFFFFFFFFFFF AND PUSH1 0x0 PUSH20 0xFFFFFFFFFFFFFFFFFFFFFFFFFFFFFFFFFFFFFFFF AND PUSH32 0x8BE0079C531659141344CD1FD0A4F28419497F9722A3DAAFE3B4186F6B6457E0 PUSH1 0x40 MLOAD PUSH1 0x40 MLOAD DUP1 SWAP2 SUB SWAP1 LOG3 POP PUSH2 0xD1 JUMP JUMPDEST PUSH1 0x0 CALLER SWAP1 POP SWAP1 JUMP JUMPDEST PUSH2 0x1E1D DUP1 PUSH2 0xE0 PUSH1 0x0 CODECOPY PUSH1 0x0 RETURN INVALID PUSH1 0x80 PUSH1 0x40 MSTORE CALLVALUE DUP1 ISZERO PUSH2 0x10 JUMPI PUSH1 0x0 DUP1 REVERT JUMPDEST POP PUSH1 0x4 CALLDATASIZE LT PUSH2 0x62 JUMPI PUSH1 0x0 CALLDATALOAD PUSH1 0xE0 SHR DUP1 PUSH4 0x215ACCC7 EQ PUSH2 0x67 JUMPI DUP1 PUSH4 0x713584A6 EQ PUSH2 0x83 JUMPI DUP1 PUSH4 0x715018A6 EQ PUSH2 0xB3 JUMPI DUP1 PUSH4 0x73851075 EQ PUSH2 0xBD JUMPI DUP1 PUSH4 0x8DA5CB5B EQ PUSH2 0xED JUMPI DUP1 PUSH4 0xF2FDE38B EQ PUSH2 0x10B JUMPI JUMPDEST PUSH1 0x0 DUP1 REVERT JUMPDEST PUSH2 0x81 PUSH1 0x4 DUP1 CALLDATASIZE SUB DUP2 ADD SWAP1 PUSH2 0x7C SWAP2 SWAP1 PUSH2 0x19FF JUMP JUMPDEST PUSH2 0x127 JUMP JUMPDEST STOP JUMPDEST PUSH2 0x9D PUSH1 0x4 DUP1 CALLDATASIZE SUB DUP2 ADD SWAP1 PUSH2 0x98 SWAP2 SWAP1 PUSH2 0x1A3F JUMP JUMPDEST PUSH2 0xC33 JUMP JUMPDEST PUSH1 0x40 MLOAD PUSH2 0xAA SWAP2 SWAP1 PUSH2 0x1A8E JUMP JUMPDEST PUSH1 0x40 MLOAD DUP1 SWAP2 SUB SWAP1 RETURN JUMPDEST PUSH2 0xBB PUSH2 0xD9A JUMP JUMPDEST STOP JUMPDEST PUSH2 0xD7 PUSH1 0x4 DUP1 CALLDATASIZE SUB DUP2 ADD SWAP1 PUSH2 0xD2 SWAP2 SWAP1 PUSH2 0x1AA9 JUMP JUMPDEST PUSH2 0xEED JUMP JUMPDEST PUSH1 0x40 MLOAD PUSH2 0xE4 SWAP2 SWAP1 PUSH2 0x1A8E JUMP JUMPDEST PUSH1 0x40 MLOAD DUP1 SWAP2 SUB SWAP1 RETURN JUMPDEST PUSH2 0xF5 PUSH2 0x101B JUMP JUMPDEST PUSH1 0x40 MLOAD PUSH2 0x102 SWAP2 SWAP1 PUSH2 0x1AE5 JUMP JUMPDEST PUSH1 0x40 MLOAD DUP1 SWAP2 SUB SWAP1 RETURN JUMPDEST PUSH2 0x125 PUSH1 0x4 DUP1 CALLDATASIZE SUB DUP2 ADD SWAP1 PUSH2 0x120 SWAP2 SWAP1 PUSH2 0x1AA9 JUMP JUMPDEST PUSH2 0x1044 JUMP JUMPDEST STOP JUMPDEST PUSH1 0x0 DUP2 LT ISZERO PUSH2 0x16B JUMPI PUSH1 0x40 MLOAD PUSH32 0x8C379A000000000000000000000000000000000000000000000000000000000 DUP2 MSTORE PUSH1 0x4 ADD PUSH2 0x162 SWAP1 PUSH2 0x1B5D JUMP JUMPDEST PUSH1 0x40 MLOAD DUP1 SWAP2 SUB SWAP1 REVERT JUMPDEST PUSH1 0x0 PUSH1 0x4 SLOAD SUB PUSH2 0x232 JUMPI PUSH2 0x17E CALLER PUSH2 0x1205 JUMP JUMPDEST PUSH2 0x187 DUP3 PUSH2 0x1205 JUMP JUMPDEST PUSH1 0x1 PUSH1 0x40 MLOAD DUP1 PUSH1 0x40 ADD PUSH1 0x40 MSTORE DUP1 PUSH1 0x0 PUSH1 0xFF AND DUP2 MSTORE PUSH1 0x20 ADD PUSH1 0x0 PUSH1 0xFF AND DUP2 MSTORE POP SWAP1 DUP1 PUSH1 0x1 DUP2 SLOAD ADD DUP1 DUP3 SSTORE DUP1 SWAP2 POP POP PUSH1 0x1 SWAP1 SUB SWAP1 PUSH1 0x0 MSTORE PUSH1 0x20 PUSH1 0x0 KECCAK256 ADD PUSH1 0x0 SWAP1 SWAP2 SWAP1 SWAP2 SWAP1 SWAP2 POP SWAP1 PUSH1 0x2 PUSH2 0x1D9 SWAP3 SWAP2 SWAP1 PUSH2 0x18A5 JUMP JUMPDEST POP PUSH1 0x1 PUSH1 0x40 MLOAD DUP1 PUSH1 0x40 ADD PUSH1 0x40 MSTORE DUP1 PUSH1 0x0 PUSH1 0xFF AND DUP2 MSTORE PUSH1 0x20 ADD PUSH1 0x0 PUSH1 0xFF AND DUP2 MSTORE POP SWAP1 DUP1 PUSH1 0x1 DUP2 SLOAD ADD DUP1 DUP3 SSTORE DUP1 SWAP2 POP POP PUSH1 0x1 SWAP1 SUB SWAP1 PUSH1 0x0 MSTORE PUSH1 0x20 PUSH1 0x0 KECCAK256 ADD PUSH1 0x0 SWAP1 SWAP2 SWAP1 SWAP2 SWAP1 SWAP2 POP SWAP1 PUSH1 0x2 PUSH2 0x22C SWAP3 SWAP2 SWAP1 PUSH2 0x18A5 JUMP JUMPDEST POP PUSH2 0x4A1 JUMP JUMPDEST PUSH1 0x0 ISZERO ISZERO PUSH2 0x23F CALLER PUSH2 0x12C6 JUMP JUMPDEST ISZERO ISZERO SUB PUSH2 0x369 JUMPI PUSH1 0x0 JUMPDEST PUSH1 0x4 SLOAD DUP2 LT ISZERO PUSH2 0x2AC JUMPI PUSH1 0x1 DUP2 DUP2 SLOAD DUP2 LT PUSH2 0x267 JUMPI PUSH2 0x266 PUSH2 0x1B7D JUMP JUMPDEST JUMPDEST SWAP1 PUSH1 0x0 MSTORE PUSH1 0x20 PUSH1 0x0 KECCAK256 ADD PUSH1 0x0 SWAP1 DUP1 PUSH1 0x1 DUP2 SLOAD ADD DUP1 DUP3 SSTORE DUP1 SWAP2 POP POP PUSH1 0x1 SWAP1 SUB SWAP1 PUSH1 0x0 MSTORE PUSH1 0x20 PUSH1 0x0 KECCAK256 ADD PUSH1 0x0 SWAP1 SWAP2 SWAP1 SWAP2 SWAP1 SWAP2 POP SSTORE DUP1 DUP1 PUSH2 0x2A4 SWAP1 PUSH2 0x1BDB JUMP JUMPDEST SWAP2 POP POP PUSH2 0x249 JUMP JUMPDEST POP PUSH1 0x1 PUSH1 0x40 MLOAD DUP1 PUSH1 0x20 ADD PUSH1 0x40 MSTORE DUP1 PUSH1 0x0 PUSH1 0xFF AND DUP2 MSTORE POP SWAP1 DUP1 PUSH1 0x1 DUP2 SLOAD ADD DUP1 DUP3 SSTORE DUP1 SWAP2 POP POP PUSH1 0x1 SWAP1 SUB SWAP1 PUSH1 0x0 MSTORE PUSH1 0x20 PUSH1 0x0 KECCAK256 ADD PUSH1 0x0 SWAP1 SWAP2 SWAP1 SWAP2 SWAP1 SWAP2 POP SWAP1 PUSH1 0x1 PUSH2 0x2F5 SWAP3 SWAP2 SWAP1 PUSH2 0x18F7 JUMP JUMPDEST POP PUSH1 0x0 JUMPDEST PUSH1 0x4 SLOAD DUP2 LT ISZERO PUSH2 0x35E JUMPI PUSH1 0x1 PUSH1 0x4 SLOAD DUP2 SLOAD DUP2 LT PUSH2 0x319 JUMPI PUSH2 0x318 PUSH2 0x1B7D JUMP JUMPDEST JUMPDEST SWAP1 PUSH1 0x0 MSTORE PUSH1 0x20 PUSH1 0x0 KECCAK256 ADD PUSH1 0x0 SWAP1 DUP1 PUSH1 0x1 DUP2 SLOAD ADD DUP1 DUP3 SSTORE DUP1 SWAP2 POP POP PUSH1 0x1 SWAP1 SUB SWAP1 PUSH1 0x0 MSTORE PUSH1 0x20 PUSH1 0x0 KECCAK256 ADD PUSH1 0x0 SWAP1 SWAP2 SWAP1 SWAP2 SWAP1 SWAP2 POP SSTORE DUP1 DUP1 PUSH2 0x356 SWAP1 PUSH2 0x1BDB JUMP JUMPDEST SWAP2 POP POP PUSH2 0x2F9 JUMP JUMPDEST POP PUSH2 0x368 CALLER PUSH2 0x1205 JUMP JUMPDEST JUMPDEST PUSH1 0x0 ISZERO ISZERO PUSH2 0x376 DUP4 PUSH2 0x12C6 JUMP JUMPDEST ISZERO ISZERO SUB PUSH2 0x4A0 JUMPI PUSH1 0x0 JUMPDEST PUSH1 0x4 SLOAD DUP2 LT ISZERO PUSH2 0x3E3 JUMPI PUSH1 0x1 DUP2 DUP2 SLOAD DUP2 LT PUSH2 0x39E JUMPI PUSH2 0x39D PUSH2 0x1B7D JUMP JUMPDEST JUMPDEST SWAP1 PUSH1 0x0 MSTORE PUSH1 0x20 PUSH1 0x0 KECCAK256 ADD PUSH1 0x0 SWAP1 DUP1 PUSH1 0x1 DUP2 SLOAD ADD DUP1 DUP3 SSTORE DUP1 SWAP2 POP POP PUSH1 0x1 SWAP1 SUB SWAP1 PUSH1 0x0 MSTORE PUSH1 0x20 PUSH1 0x0 KECCAK256 ADD PUSH1 0x0 SWAP1 SWAP2 SWAP1 SWAP2 SWAP1 SWAP2 POP SSTORE DUP1 DUP1 PUSH2 0x3DB SWAP1 PUSH2 0x1BDB JUMP JUMPDEST SWAP2 POP POP PUSH2 0x380 JUMP JUMPDEST POP PUSH1 0x1 PUSH1 0x40 MLOAD DUP1 PUSH1 0x20 ADD PUSH1 0x40 MSTORE DUP1 PUSH1 0x0 PUSH1 0xFF AND DUP2 MSTORE POP SWAP1 DUP1 PUSH1 0x1 DUP2 SLOAD ADD DUP1 DUP3 SSTORE DUP1 SWAP2 POP POP PUSH1 0x1 SWAP1 SUB SWAP1 PUSH1 0x0 MSTORE PUSH1 0x20 PUSH1 0x0 KECCAK256 ADD PUSH1 0x0 SWAP1 SWAP2 SWAP1 SWAP2 SWAP1 SWAP2 POP SWAP1 PUSH1 0x1 PUSH2 0x42C SWAP3 SWAP2 SWAP1 PUSH2 0x18F7 JUMP JUMPDEST POP PUSH1 0x0 JUMPDEST PUSH1 0x4 SLOAD DUP2 LT ISZERO PUSH2 0x495 JUMPI PUSH1 0x1 PUSH1 0x4 SLOAD DUP2 SLOAD DUP2 LT PUSH2 0x450 JUMPI PUSH2 0x44F PUSH2 0x1B7D JUMP JUMPDEST JUMPDEST SWAP1 PUSH1 0x0 MSTORE PUSH1 0x20 PUSH1 0x0 KECCAK256 ADD PUSH1 0x0 SWAP1 DUP1 PUSH1 0x1 DUP2 SLOAD ADD DUP1 DUP3 SSTORE DUP1 SWAP2 POP POP PUSH1 0x1 SWAP1 SUB SWAP1 PUSH1 0x0 MSTORE PUSH1 0x20 PUSH1 0x0 KECCAK256 ADD PUSH1 0x0 SWAP1 SWAP2 SWAP1 SWAP2 SWAP1 SWAP2 POP SSTORE DUP1 DUP1 PUSH2 0x48D SWAP1 PUSH2 0x1BDB JUMP JUMPDEST SWAP2 POP POP PUSH2 0x430 JUMP JUMPDEST POP PUSH2 0x49F DUP3 PUSH2 0x1205 JUMP JUMPDEST JUMPDEST JUMPDEST PUSH1 0x0 CALLER SWAP1 POP DUP2 PUSH1 0x1 PUSH1 0x2 PUSH1 0x0 DUP5 PUSH20 0xFFFFFFFFFFFFFFFFFFFFFFFFFFFFFFFFFFFFFFFF AND PUSH20 0xFFFFFFFFFFFFFFFFFFFFFFFFFFFFFFFFFFFFFFFF AND DUP2 MSTORE PUSH1 0x20 ADD SWAP1 DUP2 MSTORE PUSH1 0x20 ADD PUSH1 0x0 KECCAK256 SLOAD DUP2 SLOAD DUP2 LT PUSH2 0x4FA JUMPI PUSH2 0x4F9 PUSH2 0x1B7D JUMP JUMPDEST JUMPDEST SWAP1 PUSH1 0x0 MSTORE PUSH1 0x20 PUSH1 0x0 KECCAK256 ADD PUSH1 0x2 PUSH1 0x0 DUP7 PUSH20 0xFFFFFFFFFFFFFFFFFFFFFFFFFFFFFFFFFFFFFFFF AND PUSH20 0xFFFFFFFFFFFFFFFFFFFFFFFFFFFFFFFFFFFFFFFF AND DUP2 MSTORE PUSH1 0x20 ADD SWAP1 DUP2 MSTORE PUSH1 0x20 ADD PUSH1 0x0 KECCAK256 SLOAD DUP2 SLOAD DUP2 LT PUSH2 0x555 JUMPI PUSH2 0x554 PUSH2 0x1B7D JUMP JUMPDEST JUMPDEST SWAP1 PUSH1 0x0 MSTORE PUSH1 0x20 PUSH1 0x0 KECCAK256 ADD SLOAD PUSH2 0x56A SWAP2 SWAP1 PUSH2 0x1C23 JUMP JUMPDEST PUSH1 0x1 PUSH1 0x2 PUSH1 0x0 DUP5 PUSH20 0xFFFFFFFFFFFFFFFFFFFFFFFFFFFFFFFFFFFFFFFF AND PUSH20 0xFFFFFFFFFFFFFFFFFFFFFFFFFFFFFFFFFFFFFFFF AND DUP2 MSTORE PUSH1 0x20 ADD SWAP1 DUP2 MSTORE PUSH1 0x20 ADD PUSH1 0x0 KECCAK256 SLOAD DUP2 SLOAD DUP2 LT PUSH2 0x5BD JUMPI PUSH2 0x5BC PUSH2 0x1B7D JUMP JUMPDEST JUMPDEST SWAP1 PUSH1 0x0 MSTORE PUSH1 0x20 PUSH1 0x0 KECCAK256 ADD PUSH1 0x2 PUSH1 0x0 DUP7 PUSH20 0xFFFFFFFFFFFFFFFFFFFFFFFFFFFFFFFFFFFFFFFF AND PUSH20 0xFFFFFFFFFFFFFFFFFFFFFFFFFFFFFFFFFFFFFFFF AND DUP2 MSTORE PUSH1 0x20 ADD SWAP1 DUP2 MSTORE PUSH1 0x20 ADD PUSH1 0x0 KECCAK256 SLOAD DUP2 SLOAD DUP2 LT PUSH2 0x618 JUMPI PUSH2 0x617 PUSH2 0x1B7D JUMP JUMPDEST JUMPDEST SWAP1 PUSH1 0x0 MSTORE PUSH1 0x20 PUSH1 0x0 KECCAK256 ADD DUP2 SWAP1 SSTORE POP PUSH1 0x0 PUSH1 0x1 PUSH1 0x2 PUSH1 0x0 DUP7 PUSH20 0xFFFFFFFFFFFFFFFFFFFFFFFFFFFFFFFFFFFFFFFF AND PUSH20 0xFFFFFFFFFFFFFFFFFFFFFFFFFFFFFFFFFFFFFFFF AND DUP2 MSTORE PUSH1 0x20 ADD SWAP1 DUP2 MSTORE PUSH1 0x20 ADD PUSH1 0x0 KECCAK256 SLOAD DUP2 SLOAD DUP2 LT PUSH2 0x67B JUMPI PUSH2 0x67A PUSH2 0x1B7D JUMP JUMPDEST JUMPDEST SWAP1 PUSH1 0x0 MSTORE PUSH1 0x20 PUSH1 0x0 KECCAK256 ADD PUSH1 0x2 PUSH1 0x0 DUP5 PUSH20 0xFFFFFFFFFFFFFFFFFFFFFFFFFFFFFFFFFFFFFFFF AND PUSH20 0xFFFFFFFFFFFFFFFFFFFFFFFFFFFFFFFFFFFFFFFF AND DUP2 MSTORE PUSH1 0x20 ADD SWAP1 DUP2 MSTORE PUSH1 0x20 ADD PUSH1 0x0 KECCAK256 SLOAD DUP2 SLOAD DUP2 LT PUSH2 0x6D6 JUMPI PUSH2 0x6D5 PUSH2 0x1B7D JUMP JUMPDEST JUMPDEST SWAP1 PUSH1 0x0 MSTORE PUSH1 0x20 PUSH1 0x0 KECCAK256 ADD SLOAD EQ PUSH2 0xC25 JUMPI PUSH1 0x0 PUSH1 0x1 PUSH1 0x2 PUSH1 0x0 DUP7 PUSH20 0xFFFFFFFFFFFFFFFFFFFFFFFFFFFFFFFFFFFFFFFF AND PUSH20 0xFFFFFFFFFFFFFFFFFFFFFFFFFFFFFFFFFFFFFFFF AND DUP2 MSTORE PUSH1 0x20 ADD SWAP1 DUP2 MSTORE PUSH1 0x20 ADD PUSH1 0x0 KECCAK256 SLOAD DUP2 SLOAD DUP2 LT PUSH2 0x73B JUMPI PUSH2 0x73A PUSH2 0x1B7D JUMP JUMPDEST JUMPDEST SWAP1 PUSH1 0x0 MSTORE PUSH1 0x20 PUSH1 0x0 KECCAK256 ADD PUSH1 0x2 PUSH1 0x0 DUP5 PUSH20 0xFFFFFFFFFFFFFFFFFFFFFFFFFFFFFFFFFFFFFFFF AND PUSH20 0xFFFFFFFFFFFFFFFFFFFFFFFFFFFFFFFFFFFFFFFF AND DUP2 MSTORE PUSH1 0x20 ADD SWAP1 DUP2 MSTORE PUSH1 0x20 ADD PUSH1 0x0 KECCAK256 SLOAD DUP2 SLOAD DUP2 LT PUSH2 0x796 JUMPI PUSH2 0x795 PUSH2 0x1B7D JUMP JUMPDEST JUMPDEST SWAP1 PUSH1 0x0 MSTORE PUSH1 0x20 PUSH1 0x0 KECCAK256 ADD SLOAD SWAP1 POP DUP1 PUSH1 0x1 PUSH1 0x2 PUSH1 0x0 DUP6 PUSH20 0xFFFFFFFFFFFFFFFFFFFFFFFFFFFFFFFFFFFFFFFF AND PUSH20 0xFFFFFFFFFFFFFFFFFFFFFFFFFFFFFFFFFFFFFFFF AND DUP2 MSTORE PUSH1 0x20 ADD SWAP1 DUP2 MSTORE PUSH1 0x20 ADD PUSH1 0x0 KECCAK256 SLOAD DUP2 SLOAD DUP2 LT PUSH2 0x7F7 JUMPI PUSH2 0x7F6 PUSH2 0x1B7D JUMP JUMPDEST JUMPDEST SWAP1 PUSH1 0x0 MSTORE PUSH1 0x20 PUSH1 0x0 KECCAK256 ADD PUSH1 0x2 PUSH1 0x0 DUP8 PUSH20 0xFFFFFFFFFFFFFFFFFFFFFFFFFFFFFFFFFFFFFFFF AND PUSH20 0xFFFFFFFFFFFFFFFFFFFFFFFFFFFFFFFFFFFFFFFF AND DUP2 MSTORE PUSH1 0x20 ADD SWAP1 DUP2 MSTORE PUSH1 0x20 ADD PUSH1 0x0 KECCAK256 SLOAD DUP2 SLOAD DUP2 LT PUSH2 0x852 JUMPI PUSH2 0x851 PUSH2 0x1B7D JUMP JUMPDEST JUMPDEST SWAP1 PUSH1 0x0 MSTORE PUSH1 0x20 PUSH1 0x0 KECCAK256 ADD SLOAD LT ISZERO PUSH2 0x91F JUMPI PUSH1 0x1 PUSH1 0x2 PUSH1 0x0 DUP5 PUSH20 0xFFFFFFFFFFFFFFFFFFFFFFFFFFFFFFFFFFFFFFFF AND PUSH20 0xFFFFFFFFFFFFFFFFFFFFFFFFFFFFFFFFFFFFFFFF AND DUP2 MSTORE PUSH1 0x20 ADD SWAP1 DUP2 MSTORE PUSH1 0x20 ADD PUSH1 0x0 KECCAK256 SLOAD DUP2 SLOAD DUP2 LT PUSH2 0x8B6 JUMPI PUSH2 0x8B5 PUSH2 0x1B7D JUMP JUMPDEST JUMPDEST SWAP1 PUSH1 0x0 MSTORE PUSH1 0x20 PUSH1 0x0 KECCAK256 ADD PUSH1 0x2 PUSH1 0x0 DUP7 PUSH20 0xFFFFFFFFFFFFFFFFFFFFFFFFFFFFFFFFFFFFFFFF AND PUSH20 0xFFFFFFFFFFFFFFFFFFFFFFFFFFFFFFFFFFFFFFFF AND DUP2 MSTORE PUSH1 0x20 ADD SWAP1 DUP2 MSTORE PUSH1 0x20 ADD PUSH1 0x0 KECCAK256 SLOAD DUP2 SLOAD DUP2 LT PUSH2 0x911 JUMPI PUSH2 0x910 PUSH2 0x1B7D JUMP JUMPDEST JUMPDEST SWAP1 PUSH1 0x0 MSTORE PUSH1 0x20 PUSH1 0x0 KECCAK256 ADD SLOAD SWAP1 POP JUMPDEST DUP1 PUSH1 0x1 PUSH1 0x2 PUSH1 0x0 DUP8 PUSH20 0xFFFFFFFFFFFFFFFFFFFFFFFFFFFFFFFFFFFFFFFF AND PUSH20 0xFFFFFFFFFFFFFFFFFFFFFFFFFFFFFFFFFFFFFFFF AND DUP2 MSTORE PUSH1 0x20 ADD SWAP1 DUP2 MSTORE PUSH1 0x20 ADD PUSH1 0x0 KECCAK256 SLOAD DUP2 SLOAD DUP2 LT PUSH2 0x973 JUMPI PUSH2 0x972 PUSH2 0x1B7D JUMP JUMPDEST JUMPDEST SWAP1 PUSH1 0x0 MSTORE PUSH1 0x20 PUSH1 0x0 KECCAK256 ADD PUSH1 0x2 PUSH1 0x0 DUP6 PUSH20 0xFFFFFFFFFFFFFFFFFFFFFFFFFFFFFFFFFFFFFFFF AND PUSH20 0xFFFFFFFFFFFFFFFFFFFFFFFFFFFFFFFFFFFFFFFF AND DUP2 MSTORE PUSH1 0x20 ADD SWAP1 DUP2 MSTORE PUSH1 0x20 ADD PUSH1 0x0 KECCAK256 SLOAD DUP2 SLOAD DUP2 LT PUSH2 0x9CE JUMPI PUSH2 0x9CD PUSH2 0x1B7D JUMP JUMPDEST JUMPDEST SWAP1 PUSH1 0x0 MSTORE PUSH1 0x20 PUSH1 0x0 KECCAK256 ADD SLOAD PUSH2 0x9E3 SWAP2 SWAP1 PUSH2 0x1C57 JUMP JUMPDEST PUSH1 0x1 PUSH1 0x2 PUSH1 0x0 DUP8 PUSH20 0xFFFFFFFFFFFFFFFFFFFFFFFFFFFFFFFFFFFFFFFF AND PUSH20 0xFFFFFFFFFFFFFFFFFFFFFFFFFFFFFFFFFFFFFFFF AND DUP2 MSTORE PUSH1 0x20 ADD SWAP1 DUP2 MSTORE PUSH1 0x20 ADD PUSH1 0x0 KECCAK256 SLOAD DUP2 SLOAD DUP2 LT PUSH2 0xA36 JUMPI PUSH2 0xA35 PUSH2 0x1B7D JUMP JUMPDEST JUMPDEST SWAP1 PUSH1 0x0 MSTORE PUSH1 0x20 PUSH1 0x0 KECCAK256 ADD PUSH1 0x2 PUSH1 0x0 DUP6 PUSH20 0xFFFFFFFFFFFFFFFFFFFFFFFFFFFFFFFFFFFFFFFF AND PUSH20 0xFFFFFFFFFFFFFFFFFFFFFFFFFFFFFFFFFFFFFFFF AND DUP2 MSTORE PUSH1 0x20 ADD SWAP1 DUP2 MSTORE PUSH1 0x20 ADD PUSH1 0x0 KECCAK256 SLOAD DUP2 SLOAD DUP2 LT PUSH2 0xA91 JUMPI PUSH2 0xA90 PUSH2 0x1B7D JUMP JUMPDEST JUMPDEST SWAP1 PUSH1 0x0 MSTORE PUSH1 0x20 PUSH1 0x0 KECCAK256 ADD DUP2 SWAP1 SSTORE POP DUP1 PUSH1 0x1 PUSH1 0x2 PUSH1 0x0 DUP6 PUSH20 0xFFFFFFFFFFFFFFFFFFFFFFFFFFFFFFFFFFFFFFFF AND PUSH20 0xFFFFFFFFFFFFFFFFFFFFFFFFFFFFFFFFFFFFFFFF AND DUP2 MSTORE PUSH1 0x20 ADD SWAP1 DUP2 MSTORE PUSH1 0x20 ADD PUSH1 0x0 KECCAK256 SLOAD DUP2 SLOAD DUP2 LT PUSH2 0xAF3 JUMPI PUSH2 0xAF2 PUSH2 0x1B7D JUMP JUMPDEST JUMPDEST SWAP1 PUSH1 0x0 MSTORE PUSH1 0x20 PUSH1 0x0 KECCAK256 ADD PUSH1 0x2 PUSH1 0x0 DUP8 PUSH20 0xFFFFFFFFFFFFFFFFFFFFFFFFFFFFFFFFFFFFFFFF AND PUSH20 0xFFFFFFFFFFFFFFFFFFFFFFFFFFFFFFFFFFFFFFFF AND DUP2 MSTORE PUSH1 0x20 ADD SWAP1 DUP2 MSTORE PUSH1 0x20 ADD PUSH1 0x0 KECCAK256 SLOAD DUP2 SLOAD DUP2 LT PUSH2 0xB4E JUMPI PUSH2 0xB4D PUSH2 0x1B7D JUMP JUMPDEST JUMPDEST SWAP1 PUSH1 0x0 MSTORE PUSH1 0x20 PUSH1 0x0 KECCAK256 ADD SLOAD PUSH2 0xB63 SWAP2 SWAP1 PUSH2 0x1C57 JUMP JUMPDEST PUSH1 0x1 PUSH1 0x2 PUSH1 0x0 DUP6 PUSH20 0xFFFFFFFFFFFFFFFFFFFFFFFFFFFFFFFFFFFFFFFF AND PUSH20 0xFFFFFFFFFFFFFFFFFFFFFFFFFFFFFFFFFFFFFFFF AND DUP2 MSTORE PUSH1 0x20 ADD SWAP1 DUP2 MSTORE PUSH1 0x20 ADD PUSH1 0x0 KECCAK256 SLOAD DUP2 SLOAD DUP2 LT PUSH2 0xBB6 JUMPI PUSH2 0xBB5 PUSH2 0x1B7D JUMP JUMPDEST JUMPDEST SWAP1 PUSH1 0x0 MSTORE PUSH1 0x20 PUSH1 0x0 KECCAK256 ADD PUSH1 0x2 PUSH1 0x0 DUP8 PUSH20 0xFFFFFFFFFFFFFFFFFFFFFFFFFFFFFFFFFFFFFFFF AND PUSH20 0xFFFFFFFFFFFFFFFFFFFFFFFFFFFFFFFFFFFFFFFF AND DUP2 MSTORE PUSH1 0x20 ADD SWAP1 DUP2 MSTORE PUSH1 0x20 ADD PUSH1 0x0 KECCAK256 SLOAD DUP2 SLOAD DUP2 LT PUSH2 0xC11 JUMPI PUSH2 0xC10 PUSH2 0x1B7D JUMP JUMPDEST JUMPDEST SWAP1 PUSH1 0x0 MSTORE PUSH1 0x20 PUSH1 0x0 KECCAK256 ADD DUP2 SWAP1 SSTORE POP POP PUSH2 0xC2E JUMP JUMPDEST PUSH2 0xC2D PUSH2 0x1371 JUMP JUMPDEST JUMPDEST POP POP POP JUMP JUMPDEST PUSH1 0x0 DUP3 PUSH20 0xFFFFFFFFFFFFFFFFFFFFFFFFFFFFFFFFFFFFFFFF AND CALLER PUSH20 0xFFFFFFFFFFFFFFFFFFFFFFFFFFFFFFFFFFFFFFFF AND EQ DUP1 PUSH2 0xC9A JUMPI POP DUP2 PUSH20 0xFFFFFFFFFFFFFFFFFFFFFFFFFFFFFFFFFFFFFFFF AND CALLER PUSH20 0xFFFFFFFFFFFFFFFFFFFFFFFFFFFFFFFFFFFFFFFF AND EQ JUMPDEST PUSH2 0xCD9 JUMPI PUSH1 0x40 MLOAD PUSH32 0x8C379A000000000000000000000000000000000000000000000000000000000 DUP2 MSTORE PUSH1 0x4 ADD PUSH2 0xCD0 SWAP1 PUSH2 0x1B5D JUMP JUMPDEST PUSH1 0x40 MLOAD DUP1 SWAP2 SUB SWAP1 REVERT JUMPDEST PUSH1 0x1 PUSH1 0x2 PUSH1 0x0 DUP6 PUSH20 0xFFFFFFFFFFFFFFFFFFFFFFFFFFFFFFFFFFFFFFFF AND PUSH20 0xFFFFFFFFFFFFFFFFFFFFFFFFFFFFFFFFFFFFFFFF AND DUP2 MSTORE PUSH1 0x20 ADD SWAP1 DUP2 MSTORE PUSH1 0x20 ADD PUSH1 0x0 KECCAK256 SLOAD DUP2 SLOAD DUP2 LT PUSH2 0xD2C JUMPI PUSH2 0xD2B PUSH2 0x1B7D JUMP JUMPDEST JUMPDEST SWAP1 PUSH1 0x0 MSTORE PUSH1 0x20 PUSH1 0x0 KECCAK256 ADD PUSH1 0x2 PUSH1 0x0 DUP5 PUSH20 0xFFFFFFFFFFFFFFFFFFFFFFFFFFFFFFFFFFFFFFFF AND PUSH20 0xFFFFFFFFFFFFFFFFFFFFFFFFFFFFFFFFFFFFFFFF AND DUP2 MSTORE PUSH1 0x20 ADD SWAP1 DUP2 MSTORE PUSH1 0x20 ADD PUSH1 0x0 KECCAK256 SLOAD DUP2 SLOAD DUP2 LT PUSH2 0xD87 JUMPI PUSH2 0xD86 PUSH2 0x1B7D JUMP JUMPDEST JUMPDEST SWAP1 PUSH1 0x0 MSTORE PUSH1 0x20 PUSH1 0x0 KECCAK256 ADD SLOAD SWAP1 POP SWAP3 SWAP2 POP POP JUMP JUMPDEST PUSH2 0xDA2 PUSH2 0x14A2 JUMP JUMPDEST PUSH20 0xFFFFFFFFFFFFFFFFFFFFFFFFFFFFFFFFFFFFFFFF AND PUSH1 0x0 DUP1 SLOAD SWAP1 PUSH2 0x100 EXP SWAP1 DIV PUSH20 0xFFFFFFFFFFFFFFFFFFFFFFFFFFFFFFFFFFFFFFFF AND PUSH20 0xFFFFFFFFFFFFFFFFFFFFFFFFFFFFFFFFFFFFFFFF AND EQ PUSH2 0xE2F JUMPI PUSH1 0x40 MLOAD PUSH32 0x8C379A000000000000000000000000000000000000000000000000000000000 DUP2 MSTORE PUSH1 0x4 ADD PUSH2 0xE26 SWAP1 PUSH2 0x1CD7 JUMP JUMPDEST PUSH1 0x40 MLOAD DUP1 SWAP2 SUB SWAP1 REVERT JUMPDEST PUSH1 0x0 PUSH20 0xFFFFFFFFFFFFFFFFFFFFFFFFFFFFFFFFFFFFFFFF AND PUSH1 0x0 DUP1 SLOAD SWAP1 PUSH2 0x100 EXP SWAP1 DIV PUSH20 0xFFFFFFFFFFFFFFFFFFFFFFFFFFFFFFFFFFFFFFFF AND PUSH20 0xFFFFFFFFFFFFFFFFFFFFFFFFFFFFFFFFFFFFFFFF AND PUSH32 0x8BE0079C531659141344CD1FD0A4F28419497F9722A3DAAFE3B4186F6B6457E0 PUSH1 0x40 MLOAD PUSH1 0x40 MLOAD DUP1 SWAP2 SUB SWAP1 LOG3 PUSH1 0x0 DUP1 PUSH1 0x0 PUSH2 0x100 EXP DUP2 SLOAD DUP2 PUSH20 0xFFFFFFFFFFFFFFFFFFFFFFFFFFFFFFFFFFFFFFFF MUL NOT AND SWAP1 DUP4 PUSH20 0xFFFFFFFFFFFFFFFFFFFFFFFFFFFFFFFFFFFFFFFF AND MUL OR SWAP1 SSTORE POP JUMP JUMPDEST PUSH1 0x0 DUP2 PUSH20 0xFFFFFFFFFFFFFFFFFFFFFFFFFFFFFFFFFFFFFFFF AND CALLER PUSH20 0xFFFFFFFFFFFFFFFFFFFFFFFFFFFFFFFFFFFFFFFF AND EQ PUSH2 0xF5D JUMPI PUSH1 0x40 MLOAD PUSH32 0x8C379A000000000000000000000000000000000000000000000000000000000 DUP2 MSTORE PUSH1 0x4 ADD PUSH2 0xF54 SWAP1 PUSH2 0x1B5D JUMP JUMPDEST PUSH1 0x40 MLOAD DUP1 SWAP2 SUB SWAP1 REVERT JUMPDEST PUSH1 0x0 DUP1 PUSH1 0x2 PUSH1 0x0 DUP6 PUSH20 0xFFFFFFFFFFFFFFFFFFFFFFFFFFFFFFFFFFFFFFFF AND PUSH20 0xFFFFFFFFFFFFFFFFFFFFFFFFFFFFFFFFFFFFFFFF AND DUP2 MSTORE PUSH1 0x20 ADD SWAP1 DUP2 MSTORE PUSH1 0x20 ADD PUSH1 0x0 KECCAK256 SLOAD SWAP1 POP PUSH1 0x0 JUMPDEST PUSH1 0x4 SLOAD DUP2 LT ISZERO PUSH2 0x1010 JUMPI PUSH2 0xFFC PUSH1 0x1 DUP4 DUP2 SLOAD DUP2 LT PUSH2 0xFC6 JUMPI PUSH2 0xFC5 PUSH2 0x1B7D JUMP JUMPDEST JUMPDEST SWAP1 PUSH1 0x0 MSTORE PUSH1 0x20 PUSH1 0x0 KECCAK256 ADD DUP3 DUP2 SLOAD DUP2 LT PUSH2 0xFE2 JUMPI PUSH2 0xFE1 PUSH2 0x1B7D JUMP JUMPDEST JUMPDEST SWAP1 PUSH1 0x0 MSTORE PUSH1 0x20 PUSH1 0x0 KECCAK256 ADD SLOAD DUP5 PUSH2 0x14AA SWAP1 SWAP2 SWAP1 PUSH4 0xFFFFFFFF AND JUMP JUMPDEST POP DUP1 DUP1 PUSH2 0x1008 SWAP1 PUSH2 0x1BDB JUMP JUMPDEST SWAP2 POP POP PUSH2 0xFA5 JUMP JUMPDEST POP DUP2 SWAP3 POP POP POP SWAP2 SWAP1 POP JUMP JUMPDEST PUSH1 0x0 DUP1 PUSH1 0x0 SWAP1 SLOAD SWAP1 PUSH2 0x100 EXP SWAP1 DIV PUSH20 0xFFFFFFFFFFFFFFFFFFFFFFFFFFFFFFFFFFFFFFFF AND SWAP1 POP SWAP1 JUMP JUMPDEST PUSH2 0x104C PUSH2 0x14A2 JUMP JUMPDEST PUSH20 0xFFFFFFFFFFFFFFFFFFFFFFFFFFFFFFFFFFFFFFFF AND PUSH1 0x0 DUP1 SLOAD SWAP1 PUSH2 0x100 EXP SWAP1 DIV PUSH20 0xFFFFFFFFFFFFFFFFFFFFFFFFFFFFFFFFFFFFFFFF AND PUSH20 0xFFFFFFFFFFFFFFFFFFFFFFFFFFFFFFFFFFFFFFFF AND EQ PUSH2 0x10D9 JUMPI PUSH1 0x40 MLOAD PUSH32 0x8C379A000000000000000000000000000000000000000000000000000000000 DUP2 MSTORE PUSH1 0x4 ADD PUSH2 0x10D0 SWAP1 PUSH2 0x1CD7 JUMP JUMPDEST PUSH1 0x40 MLOAD DUP1 SWAP2 SUB SWAP1 REVERT JUMPDEST PUSH1 0x0 PUSH20 0xFFFFFFFFFFFFFFFFFFFFFFFFFFFFFFFFFFFFFFFF AND DUP2 PUSH20 0xFFFFFFFFFFFFFFFFFFFFFFFFFFFFFFFFFFFFFFFF AND SUB PUSH2 0x1148 JUMPI PUSH1 0x40 MLOAD PUSH32 0x8C379A000000000000000000000000000000000000000000000000000000000 DUP2 MSTORE PUSH1 0x4 ADD PUSH2 0x113F SWAP1 PUSH2 0x1D69 JUMP JUMPDEST PUSH1 0x40 MLOAD DUP1 SWAP2 SUB SWAP1 REVERT JUMPDEST DUP1 PUSH20 0xFFFFFFFFFFFFFFFFFFFFFFFFFFFFFFFFFFFFFFFF AND PUSH1 0x0 DUP1 SLOAD SWAP1 PUSH2 0x100 EXP SWAP1 DIV PUSH20 0xFFFFFFFFFFFFFFFFFFFFFFFFFFFFFFFFFFFFFFFF AND PUSH20 0xFFFFFFFFFFFFFFFFFFFFFFFFFFFFFFFFFFFFFFFF AND PUSH32 0x8BE0079C531659141344CD1FD0A4F28419497F9722A3DAAFE3B4186F6B6457E0 PUSH1 0x40 MLOAD PUSH1 0x40 MLOAD DUP1 SWAP2 SUB SWAP1 LOG3 DUP1 PUSH1 0x0 DUP1 PUSH2 0x100 EXP DUP2 SLOAD DUP2 PUSH20 0xFFFFFFFFFFFFFFFFFFFFFFFFFFFFFFFFFFFFFFFF MUL NOT AND SWAP1 DUP4 PUSH20 0xFFFFFFFFFFFFFFFFFFFFFFFFFFFFFFFFFFFFFFFF AND MUL OR SWAP1 SSTORE POP POP JUMP JUMPDEST PUSH1 0x3 DUP2 SWAP1 DUP1 PUSH1 0x1 DUP2 SLOAD ADD DUP1 DUP3 SSTORE DUP1 SWAP2 POP POP PUSH1 0x1 SWAP1 SUB SWAP1 PUSH1 0x0 MSTORE PUSH1 0x20 PUSH1 0x0 KECCAK256 ADD PUSH1 0x0 SWAP1 SWAP2 SWAP1 SWAP2 SWAP1 SWAP2 PUSH2 0x100 EXP DUP2 SLOAD DUP2 PUSH20 0xFFFFFFFFFFFFFFFFFFFFFFFFFFFFFFFFFFFFFFFF MUL NOT AND SWAP1 DUP4 PUSH20 0xFFFFFFFFFFFFFFFFFFFFFFFFFFFFFFFFFFFFFFFF AND MUL OR SWAP1 SSTORE POP PUSH1 0x4 SLOAD PUSH1 0x2 PUSH1 0x0 DUP4 PUSH20 0xFFFFFFFFFFFFFFFFFFFFFFFFFFFFFFFFFFFFFFFF AND PUSH20 0xFFFFFFFFFFFFFFFFFFFFFFFFFFFFFFFFFFFFFFFF AND DUP2 MSTORE PUSH1 0x20 ADD SWAP1 DUP2 MSTORE PUSH1 0x20 ADD PUSH1 0x0 KECCAK256 DUP2 SWAP1 SSTORE POP PUSH1 0x1 PUSH1 0x4 SLOAD PUSH2 0x12BD SWAP2 SWAP1 PUSH2 0x1C23 JUMP JUMPDEST PUSH1 0x4 DUP2 SWAP1 SSTORE POP POP JUMP JUMPDEST PUSH1 0x0 DUP1 PUSH1 0x0 SWAP1 POP JUMPDEST PUSH1 0x4 SLOAD DUP2 LT ISZERO PUSH2 0x1366 JUMPI DUP3 PUSH20 0xFFFFFFFFFFFFFFFFFFFFFFFFFFFFFFFFFFFFFFFF AND PUSH1 0x3 DUP3 DUP2 SLOAD DUP2 LT PUSH2 0x1303 JUMPI PUSH2 0x1302 PUSH2 0x1B7D JUMP JUMPDEST JUMPDEST SWAP1 PUSH1 0x0 MSTORE PUSH1 0x20 PUSH1 0x0 KECCAK256 ADD PUSH1 0x0 SWAP1 SLOAD SWAP1 PUSH2 0x100 EXP SWAP1 DIV PUSH20 0xFFFFFFFFFFFFFFFFFFFFFFFFFFFFFFFFFFFFFFFF AND PUSH20 0xFFFFFFFFFFFFFFFFFFFFFFFFFFFFFFFFFFFFFFFF AND SUB PUSH2 0x1353 JUMPI PUSH1 0x1 SWAP2 POP POP PUSH2 0x136C JUMP JUMPDEST DUP1 DUP1 PUSH2 0x135E SWAP1 PUSH2 0x1BDB JUMP JUMPDEST SWAP2 POP POP PUSH2 0x12CE JUMP JUMPDEST POP PUSH1 0x0 SWAP1 POP JUMPDEST SWAP2 SWAP1 POP JUMP JUMPDEST PUSH1 0x0 PUSH1 0x4 SLOAD PUSH8 0xFFFFFFFFFFFFFFFF DUP2 GT ISZERO PUSH2 0x138F JUMPI PUSH2 0x138E PUSH2 0x1D89 JUMP JUMPDEST JUMPDEST PUSH1 0x40 MLOAD SWAP1 DUP1 DUP3 MSTORE DUP1 PUSH1 0x20 MUL PUSH1 0x20 ADD DUP3 ADD PUSH1 0x40 MSTORE DUP1 ISZERO PUSH2 0x13BD JUMPI DUP2 PUSH1 0x20 ADD PUSH1 0x20 DUP3 MUL DUP1 CALLDATASIZE DUP4 CALLDATACOPY DUP1 DUP3 ADD SWAP2 POP POP SWAP1 POP JUMPDEST POP SWAP1 POP PUSH1 0x0 PUSH1 0x4 SLOAD PUSH8 0xFFFFFFFFFFFFFFFF DUP2 GT ISZERO PUSH2 0x13DE JUMPI PUSH2 0x13DD PUSH2 0x1D89 JUMP JUMPDEST JUMPDEST PUSH1 0x40 MLOAD SWAP1 DUP1 DUP3 MSTORE DUP1 PUSH1 0x20 MUL PUSH1 0x20 ADD DUP3 ADD PUSH1 0x40 MSTORE DUP1 ISZERO PUSH2 0x140C JUMPI DUP2 PUSH1 0x20 ADD PUSH1 0x20 DUP3 MUL DUP1 CALLDATASIZE DUP4 CALLDATACOPY DUP1 DUP3 ADD SWAP2 POP POP SWAP1 POP JUMPDEST POP SWAP1 POP PUSH1 0x0 JUMPDEST PUSH1 0x4 SLOAD DUP2 LT ISZERO PUSH2 0x149D JUMPI PUSH1 0x0 DUP4 DUP3 DUP2 MLOAD DUP2 LT PUSH2 0x1431 JUMPI PUSH2 0x1430 PUSH2 0x1B7D JUMP JUMPDEST JUMPDEST PUSH1 0x20 MUL PUSH1 0x20 ADD ADD MLOAD SUB PUSH2 0x148A JUMPI PUSH2 0x1488 DUP4 DUP4 PUSH1 0x2 PUSH1 0x0 CALLER PUSH20 0xFFFFFFFFFFFFFFFFFFFFFFFFFFFFFFFFFFFFFFFF AND PUSH20 0xFFFFFFFFFFFFFFFFFFFFFFFFFFFFFFFFFFFFFFFF AND DUP2 MSTORE PUSH1 0x20 ADD SWAP1 DUP2 MSTORE PUSH1 0x20 ADD PUSH1 0x0 KECCAK256 SLOAD PUSH2 0x14D6 JUMP JUMPDEST POP JUMPDEST DUP1 DUP1 PUSH2 0x1495 SWAP1 PUSH2 0x1BDB JUMP JUMPDEST SWAP2 POP POP PUSH2 0x1412 JUMP JUMPDEST POP POP POP JUMP JUMPDEST PUSH1 0x0 CALLER SWAP1 POP SWAP1 JUMP JUMPDEST PUSH1 0x0 DUP1 DUP3 DUP5 PUSH2 0x14B9 SWAP2 SWAP1 PUSH2 0x1C23 JUMP JUMPDEST SWAP1 POP DUP4 DUP2 LT ISZERO PUSH2 0x14CC JUMPI PUSH2 0x14CB PUSH2 0x1DB8 JUMP JUMPDEST JUMPDEST DUP1 SWAP2 POP POP SWAP3 SWAP2 POP POP JUMP JUMPDEST PUSH1 0x0 PUSH1 0x1 DUP5 DUP4 DUP2 MLOAD DUP2 LT PUSH2 0x14ED JUMPI PUSH2 0x14EC PUSH2 0x1B7D JUMP JUMPDEST JUMPDEST PUSH1 0x20 MUL PUSH1 0x20 ADD ADD DUP2 DUP2 MSTORE POP POP PUSH1 0x0 JUMPDEST PUSH1 0x4 SLOAD DUP2 LT ISZERO PUSH2 0x1877 JUMPI PUSH1 0x0 PUSH1 0x1 DUP5 DUP2 SLOAD DUP2 LT PUSH2 0x151C JUMPI PUSH2 0x151B PUSH2 0x1B7D JUMP JUMPDEST JUMPDEST SWAP1 PUSH1 0x0 MSTORE PUSH1 0x20 PUSH1 0x0 KECCAK256 ADD DUP3 DUP2 SLOAD DUP2 LT PUSH2 0x1538 JUMPI PUSH2 0x1537 PUSH2 0x1B7D JUMP JUMPDEST JUMPDEST SWAP1 PUSH1 0x0 MSTORE PUSH1 0x20 PUSH1 0x0 KECCAK256 ADD SLOAD EQ PUSH2 0x1864 JUMPI PUSH1 0x0 DUP6 DUP3 DUP2 MLOAD DUP2 LT PUSH2 0x155D JUMPI PUSH2 0x155C PUSH2 0x1B7D JUMP JUMPDEST JUMPDEST PUSH1 0x20 MUL PUSH1 0x20 ADD ADD MLOAD SUB PUSH2 0x15A9 JUMPI DUP3 DUP5 DUP3 DUP2 MLOAD DUP2 LT PUSH2 0x157E JUMPI PUSH2 0x157D PUSH2 0x1B7D JUMP JUMPDEST JUMPDEST PUSH1 0x20 MUL PUSH1 0x20 ADD ADD DUP2 DUP2 MSTORE POP POP PUSH2 0x1595 DUP6 DUP6 DUP4 PUSH2 0x14D6 JUMP JUMPDEST ISZERO PUSH2 0x15A4 JUMPI PUSH1 0x1 SWAP2 POP POP PUSH2 0x189E JUMP JUMPDEST PUSH2 0x1863 JUMP JUMPDEST PUSH1 0x1 DUP6 DUP3 DUP2 MLOAD DUP2 LT PUSH2 0x15BE JUMPI PUSH2 0x15BD PUSH2 0x1B7D JUMP JUMPDEST JUMPDEST PUSH1 0x20 MUL PUSH1 0x20 ADD ADD MLOAD SUB PUSH2 0x1862 JUMPI PUSH1 0x0 DUP4 SWAP1 POP PUSH1 0x0 PUSH1 0x1 DUP3 DUP2 SLOAD DUP2 LT PUSH2 0x15E6 JUMPI PUSH2 0x15E5 PUSH2 0x1B7D JUMP JUMPDEST JUMPDEST SWAP1 PUSH1 0x0 MSTORE PUSH1 0x20 PUSH1 0x0 KECCAK256 ADD DUP4 DUP2 SLOAD DUP2 LT PUSH2 0x1602 JUMPI PUSH2 0x1601 PUSH2 0x1B7D JUMP JUMPDEST JUMPDEST SWAP1 PUSH1 0x0 MSTORE PUSH1 0x20 PUSH1 0x0 KECCAK256 ADD SLOAD SWAP1 POP JUMPDEST DUP3 DUP3 EQ PUSH2 0x16ED JUMPI DUP1 PUSH1 0x1 DUP8 DUP5 DUP2 MLOAD DUP2 LT PUSH2 0x162D JUMPI PUSH2 0x162C PUSH2 0x1B7D JUMP JUMPDEST JUMPDEST PUSH1 0x20 MUL PUSH1 0x20 ADD ADD MLOAD DUP2 SLOAD DUP2 LT PUSH2 0x1646 JUMPI PUSH2 0x1645 PUSH2 0x1B7D JUMP JUMPDEST JUMPDEST SWAP1 PUSH1 0x0 MSTORE PUSH1 0x20 PUSH1 0x0 KECCAK256 ADD DUP4 DUP2 SLOAD DUP2 LT PUSH2 0x1662 JUMPI PUSH2 0x1661 PUSH2 0x1B7D JUMP JUMPDEST JUMPDEST SWAP1 PUSH1 0x0 MSTORE PUSH1 0x20 PUSH1 0x0 KECCAK256 ADD SLOAD LT ISZERO PUSH2 0x16CB JUMPI PUSH1 0x1 DUP7 DUP4 DUP2 MLOAD DUP2 LT PUSH2 0x1688 JUMPI PUSH2 0x1687 PUSH2 0x1B7D JUMP JUMPDEST JUMPDEST PUSH1 0x20 MUL PUSH1 0x20 ADD ADD MLOAD DUP2 SLOAD DUP2 LT PUSH2 0x16A1 JUMPI PUSH2 0x16A0 PUSH2 0x1B7D JUMP JUMPDEST JUMPDEST SWAP1 PUSH1 0x0 MSTORE PUSH1 0x20 PUSH1 0x0 KECCAK256 ADD DUP3 DUP2 SLOAD DUP2 LT PUSH2 0x16BD JUMPI PUSH2 0x16BC PUSH2 0x1B7D JUMP JUMPDEST JUMPDEST SWAP1 PUSH1 0x0 MSTORE PUSH1 0x20 PUSH1 0x0 KECCAK256 ADD SLOAD SWAP1 POP JUMPDEST DUP6 DUP3 DUP2 MLOAD DUP2 LT PUSH2 0x16DE JUMPI PUSH2 0x16DD PUSH2 0x1B7D JUMP JUMPDEST JUMPDEST PUSH1 0x20 MUL PUSH1 0x20 ADD ADD MLOAD SWAP2 POP PUSH2 0x1610 JUMP JUMPDEST DUP5 SWAP2 POP DUP1 PUSH1 0x1 DUP4 DUP2 SLOAD DUP2 LT PUSH2 0x1705 JUMPI PUSH2 0x1704 PUSH2 0x1B7D JUMP JUMPDEST JUMPDEST SWAP1 PUSH1 0x0 MSTORE PUSH1 0x20 PUSH1 0x0 KECCAK256 ADD DUP5 DUP2 SLOAD DUP2 LT PUSH2 0x1721 JUMPI PUSH2 0x1720 PUSH2 0x1B7D JUMP JUMPDEST JUMPDEST SWAP1 PUSH1 0x0 MSTORE PUSH1 0x20 PUSH1 0x0 KECCAK256 ADD SLOAD PUSH2 0x1736 SWAP2 SWAP1 PUSH2 0x1C57 JUMP JUMPDEST PUSH1 0x1 DUP4 DUP2 SLOAD DUP2 LT PUSH2 0x174A JUMPI PUSH2 0x1749 PUSH2 0x1B7D JUMP JUMPDEST JUMPDEST SWAP1 PUSH1 0x0 MSTORE PUSH1 0x20 PUSH1 0x0 KECCAK256 ADD DUP5 DUP2 SLOAD DUP2 LT PUSH2 0x1766 JUMPI PUSH2 0x1765 PUSH2 0x1B7D JUMP JUMPDEST JUMPDEST SWAP1 PUSH1 0x0 MSTORE PUSH1 0x20 PUSH1 0x0 KECCAK256 ADD DUP2 SWAP1 SSTORE POP JUMPDEST DUP3 DUP3 EQ PUSH2 0x1856 JUMPI DUP1 PUSH1 0x1 DUP8 DUP5 DUP2 MLOAD DUP2 LT PUSH2 0x1792 JUMPI PUSH2 0x1791 PUSH2 0x1B7D JUMP JUMPDEST JUMPDEST PUSH1 0x20 MUL PUSH1 0x20 ADD ADD MLOAD DUP2 SLOAD DUP2 LT PUSH2 0x17AB JUMPI PUSH2 0x17AA PUSH2 0x1B7D JUMP JUMPDEST JUMPDEST SWAP1 PUSH1 0x0 MSTORE PUSH1 0x20 PUSH1 0x0 KECCAK256 ADD DUP4 DUP2 SLOAD DUP2 LT PUSH2 0x17C7 JUMPI PUSH2 0x17C6 PUSH2 0x1B7D JUMP JUMPDEST JUMPDEST SWAP1 PUSH1 0x0 MSTORE PUSH1 0x20 PUSH1 0x0 KECCAK256 ADD SLOAD PUSH2 0x17DC SWAP2 SWAP1 PUSH2 0x1C57 JUMP JUMPDEST PUSH1 0x1 DUP8 DUP5 DUP2 MLOAD DUP2 LT PUSH2 0x17F1 JUMPI PUSH2 0x17F0 PUSH2 0x1B7D JUMP JUMPDEST JUMPDEST PUSH1 0x20 MUL PUSH1 0x20 ADD ADD MLOAD DUP2 SLOAD DUP2 LT PUSH2 0x180A JUMPI PUSH2 0x1809 PUSH2 0x1B7D JUMP JUMPDEST JUMPDEST SWAP1 PUSH1 0x0 MSTORE PUSH1 0x20 PUSH1 0x0 KECCAK256 ADD DUP4 DUP2 SLOAD DUP2 LT PUSH2 0x1826 JUMPI PUSH2 0x1825 PUSH2 0x1B7D JUMP JUMPDEST JUMPDEST SWAP1 PUSH1 0x0 MSTORE PUSH1 0x20 PUSH1 0x0 KECCAK256 ADD DUP2 SWAP1 SSTORE POP DUP6 DUP3 DUP2 MLOAD DUP2 LT PUSH2 0x1847 JUMPI PUSH2 0x1846 PUSH2 0x1B7D JUMP JUMPDEST JUMPDEST PUSH1 0x20 MUL PUSH1 0x20 ADD ADD MLOAD SWAP2 POP PUSH2 0x1775 JUMP JUMPDEST PUSH1 0x1 SWAP4 POP POP POP POP PUSH2 0x189E JUMP JUMPDEST JUMPDEST JUMPDEST DUP1 DUP1 PUSH2 0x186F SWAP1 PUSH2 0x1BDB JUMP JUMPDEST SWAP2 POP POP PUSH2 0x14FC JUMP JUMPDEST POP PUSH1 0x2 DUP5 DUP4 DUP2 MLOAD DUP2 LT PUSH2 0x188D JUMPI PUSH2 0x188C PUSH2 0x1B7D JUMP JUMPDEST JUMPDEST PUSH1 0x20 MUL PUSH1 0x20 ADD ADD DUP2 DUP2 MSTORE POP POP PUSH1 0x1 SWAP1 POP JUMPDEST SWAP4 SWAP3 POP POP POP JUMP JUMPDEST DUP3 DUP1 SLOAD DUP3 DUP3 SSTORE SWAP1 PUSH1 0x0 MSTORE PUSH1 0x20 PUSH1 0x0 KECCAK256 SWAP1 DUP2 ADD SWAP3 DUP3 ISZERO PUSH2 0x18E6 JUMPI SWAP2 PUSH1 0x20 MUL DUP3 ADD JUMPDEST DUP3 DUP2 GT ISZERO PUSH2 0x18E5 JUMPI DUP3 MLOAD DUP3 SWAP1 PUSH1 0xFF AND SWAP1 SSTORE SWAP2 PUSH1 0x20 ADD SWAP2 SWAP1 PUSH1 0x1 ADD SWAP1 PUSH2 0x18C5 JUMP JUMPDEST JUMPDEST POP SWAP1 POP PUSH2 0x18F3 SWAP2 SWAP1 PUSH2 0x1949 JUMP JUMPDEST POP SWAP1 JUMP JUMPDEST DUP3 DUP1 SLOAD DUP3 DUP3 SSTORE SWAP1 PUSH1 0x0 MSTORE PUSH1 0x20 PUSH1 0x0 KECCAK256 SWAP1 DUP2 ADD SWAP3 DUP3 ISZERO PUSH2 0x1938 JUMPI SWAP2 PUSH1 0x20 MUL DUP3 ADD JUMPDEST DUP3 DUP2 GT ISZERO PUSH2 0x1937 JUMPI DUP3 MLOAD DUP3 SWAP1 PUSH1 0xFF AND SWAP1 SSTORE SWAP2 PUSH1 0x20 ADD SWAP2 SWAP1 PUSH1 0x1 ADD SWAP1 PUSH2 0x1917 JUMP JUMPDEST JUMPDEST POP SWAP1 POP PUSH2 0x1945 SWAP2 SWAP1 PUSH2 0x1949 JUMP JUMPDEST POP SWAP1 JUMP JUMPDEST JUMPDEST DUP1 DUP3 GT ISZERO PUSH2 0x1962 JUMPI PUSH1 0x0 DUP2 PUSH1 0x0 SWAP1 SSTORE POP PUSH1 0x1 ADD PUSH2 0x194A JUMP JUMPDEST POP SWAP1 JUMP JUMPDEST PUSH1 0x0 DUP1 REVERT JUMPDEST PUSH1 0x0 PUSH20 0xFFFFFFFFFFFFFFFFFFFFFFFFFFFFFFFFFFFFFFFF DUP3 AND SWAP1 POP SWAP2 SWAP1 POP JUMP JUMPDEST PUSH1 0x0 PUSH2 0x1996 DUP3 PUSH2 0x196B JUMP JUMPDEST SWAP1 POP SWAP2 SWAP1 POP JUMP JUMPDEST PUSH2 0x19A6 DUP2 PUSH2 0x198B JUMP JUMPDEST DUP2 EQ PUSH2 0x19B1 JUMPI PUSH1 0x0 DUP1 REVERT JUMPDEST POP JUMP JUMPDEST PUSH1 0x0 DUP2 CALLDATALOAD SWAP1 POP PUSH2 0x19C3 DUP2 PUSH2 0x199D JUMP JUMPDEST SWAP3 SWAP2 POP POP JUMP JUMPDEST PUSH1 0x0 DUP2 SWAP1 POP SWAP2 SWAP1 POP JUMP JUMPDEST PUSH2 0x19DC DUP2 PUSH2 0x19C9 JUMP JUMPDEST DUP2 EQ PUSH2 0x19E7 JUMPI PUSH1 0x0 DUP1 REVERT JUMPDEST POP JUMP JUMPDEST PUSH1 0x0 DUP2 CALLDATALOAD SWAP1 POP PUSH2 0x19F9 DUP2 PUSH2 0x19D3 JUMP JUMPDEST SWAP3 SWAP2 POP POP JUMP JUMPDEST PUSH1 0x0 DUP1 PUSH1 0x40 DUP4 DUP6 SUB SLT ISZERO PUSH2 0x1A16 JUMPI PUSH2 0x1A15 PUSH2 0x1966 JUMP JUMPDEST JUMPDEST PUSH1 0x0 PUSH2 0x1A24 DUP6 DUP3 DUP7 ADD PUSH2 0x19B4 JUMP JUMPDEST SWAP3 POP POP PUSH1 0x20 PUSH2 0x1A35 DUP6 DUP3 DUP7 ADD PUSH2 0x19EA JUMP JUMPDEST SWAP2 POP POP SWAP3 POP SWAP3 SWAP1 POP JUMP JUMPDEST PUSH1 0x0 DUP1 PUSH1 0x40 DUP4 DUP6 SUB SLT ISZERO PUSH2 0x1A56 JUMPI PUSH2 0x1A55 PUSH2 0x1966 JUMP JUMPDEST JUMPDEST PUSH1 0x0 PUSH2 0x1A64 DUP6 DUP3 DUP7 ADD PUSH2 0x19B4 JUMP JUMPDEST SWAP3 POP POP PUSH1 0x20 PUSH2 0x1A75 DUP6 DUP3 DUP7 ADD PUSH2 0x19B4 JUMP JUMPDEST SWAP2 POP POP SWAP3 POP SWAP3 SWAP1 POP JUMP JUMPDEST PUSH2 0x1A88 DUP2 PUSH2 0x19C9 JUMP JUMPDEST DUP3 MSTORE POP POP JUMP JUMPDEST PUSH1 0x0 PUSH1 0x20 DUP3 ADD SWAP1 POP PUSH2 0x1AA3 PUSH1 0x0 DUP4 ADD DUP5 PUSH2 0x1A7F JUMP JUMPDEST SWAP3 SWAP2 POP POP JUMP JUMPDEST PUSH1 0x0 PUSH1 0x20 DUP3 DUP5 SUB SLT ISZERO PUSH2 0x1ABF JUMPI PUSH2 0x1ABE PUSH2 0x1966 JUMP JUMPDEST JUMPDEST PUSH1 0x0 PUSH2 0x1ACD DUP5 DUP3 DUP6 ADD PUSH2 0x19B4 JUMP JUMPDEST SWAP2 POP POP SWAP3 SWAP2 POP POP JUMP JUMPDEST PUSH2 0x1ADF DUP2 PUSH2 0x198B JUMP JUMPDEST DUP3 MSTORE POP POP JUMP JUMPDEST PUSH1 0x0 PUSH1 0x20 DUP3 ADD SWAP1 POP PUSH2 0x1AFA PUSH1 0x0 DUP4 ADD DUP5 PUSH2 0x1AD6 JUMP JUMPDEST SWAP3 SWAP2 POP POP JUMP JUMPDEST PUSH1 0x0 DUP3 DUP3 MSTORE PUSH1 0x20 DUP3 ADD SWAP1 POP SWAP3 SWAP2 POP POP JUMP JUMPDEST PUSH32 0x4552524F52210000000000000000000000000000000000000000000000000000 PUSH1 0x0 DUP3 ADD MSTORE POP JUMP JUMPDEST PUSH1 0x0 PUSH2 0x1B47 PUSH1 0x6 DUP4 PUSH2 0x1B00 JUMP JUMPDEST SWAP2 POP PUSH2 0x1B52 DUP3 PUSH2 0x1B11 JUMP JUMPDEST PUSH1 0x20 DUP3 ADD SWAP1 POP SWAP2 SWAP1 POP JUMP JUMPDEST PUSH1 0x0 PUSH1 0x20 DUP3 ADD SWAP1 POP DUP2 DUP2 SUB PUSH1 0x0 DUP4 ADD MSTORE PUSH2 0x1B76 DUP2 PUSH2 0x1B3A JUMP JUMPDEST SWAP1 POP SWAP2 SWAP1 POP JUMP JUMPDEST PUSH32 0x4E487B7100000000000000000000000000000000000000000000000000000000 PUSH1 0x0 MSTORE PUSH1 0x32 PUSH1 0x4 MSTORE PUSH1 0x24 PUSH1 0x0 REVERT JUMPDEST PUSH32 0x4E487B7100000000000000000000000000000000000000000000000000000000 PUSH1 0x0 MSTORE PUSH1 0x11 PUSH1 0x4 MSTORE PUSH1 0x24 PUSH1 0x0 REVERT JUMPDEST PUSH1 0x0 PUSH2 0x1BE6 DUP3 PUSH2 0x19C9 JUMP JUMPDEST SWAP2 POP PUSH32 0xFFFFFFFFFFFFFFFFFFFFFFFFFFFFFFFFFFFFFFFFFFFFFFFFFFFFFFFFFFFFFFFF DUP3 SUB PUSH2 0x1C18 JUMPI PUSH2 0x1C17 PUSH2 0x1BAC JUMP JUMPDEST JUMPDEST PUSH1 0x1 DUP3 ADD SWAP1 POP SWAP2 SWAP1 POP JUMP JUMPDEST PUSH1 0x0 PUSH2 0x1C2E DUP3 PUSH2 0x19C9 JUMP JUMPDEST SWAP2 POP PUSH2 0x1C39 DUP4 PUSH2 0x19C9 JUMP JUMPDEST SWAP3 POP DUP3 DUP3 ADD SWAP1 POP DUP1 DUP3 GT ISZERO PUSH2 0x1C51 JUMPI PUSH2 0x1C50 PUSH2 0x1BAC JUMP JUMPDEST JUMPDEST SWAP3 SWAP2 POP POP JUMP JUMPDEST PUSH1 0x0 PUSH2 0x1C62 DUP3 PUSH2 0x19C9 JUMP JUMPDEST SWAP2 POP PUSH2 0x1C6D DUP4 PUSH2 0x19C9 JUMP JUMPDEST SWAP3 POP DUP3 DUP3 SUB SWAP1 POP DUP2 DUP2 GT ISZERO PUSH2 0x1C85 JUMPI PUSH2 0x1C84 PUSH2 0x1BAC JUMP JUMPDEST JUMPDEST SWAP3 SWAP2 POP POP JUMP JUMPDEST PUSH32 0x4F776E61626C653A2063616C6C6572206973206E6F7420746865206F776E6572 PUSH1 0x0 DUP3 ADD MSTORE POP JUMP JUMPDEST PUSH1 0x0 PUSH2 0x1CC1 PUSH1 0x20 DUP4 PUSH2 0x1B00 JUMP JUMPDEST SWAP2 POP PUSH2 0x1CCC DUP3 PUSH2 0x1C8B JUMP JUMPDEST PUSH1 0x20 DUP3 ADD SWAP1 POP SWAP2 SWAP1 POP JUMP JUMPDEST PUSH1 0x0 PUSH1 0x20 DUP3 ADD SWAP1 POP DUP2 DUP2 SUB PUSH1 0x0 DUP4 ADD MSTORE PUSH2 0x1CF0 DUP2 PUSH2 0x1CB4 JUMP JUMPDEST SWAP1 POP SWAP2 SWAP1 POP JUMP JUMPDEST PUSH32 0x4F776E61626C653A206E6577206F776E657220697320746865207A65726F2061 PUSH1 0x0 DUP3 ADD MSTORE PUSH32 0x6464726573730000000000000000000000000000000000000000000000000000 PUSH1 0x20 DUP3 ADD MSTORE POP JUMP JUMPDEST PUSH1 0x0 PUSH2 0x1D53 PUSH1 0x26 DUP4 PUSH2 0x1B00 JUMP JUMPDEST SWAP2 POP PUSH2 0x1D5E DUP3 PUSH2 0x1CF7 JUMP JUMPDEST PUSH1 0x40 DUP3 ADD SWAP1 POP SWAP2 SWAP1 POP JUMP JUMPDEST PUSH1 0x0 PUSH1 0x20 DUP3 ADD SWAP1 POP DUP2 DUP2 SUB PUSH1 0x0 DUP4 ADD MSTORE PUSH2 0x1D82 DUP2 PUSH2 0x1D46 JUMP JUMPDEST SWAP1 POP SWAP2 SWAP1 POP JUMP JUMPDEST PUSH32 0x4E487B7100000000000000000000000000000000000000000000000000000000 PUSH1 0x0 MSTORE PUSH1 0x41 PUSH1 0x4 MSTORE PUSH1 0x24 PUSH1 0x0 REVERT JUMPDEST PUSH32 0x4E487B7100000000000000000000000000000000000000000000000000000000 PUSH1 0x0 MSTORE PUSH1 0x1 PUSH1 0x4 MSTORE PUSH1 0x24 PUSH1 0x0 REVERT INVALID LOG2 PUSH5 0x6970667358 0x22 SLT KECCAK256 0x2B 0xC9 PUSH19 0x6FDEC7B991F2EB4FEACF5FFCD71758ECEE3ECF 0xC8 0xAE 0xCC JUMPI 0x2A PUSH32 0x3DFC5F7A64736F6C634300081300330000000000000000000000000000000000 "
				},
				"gasEstimates": {
					"creation": {
						"codeDepositCost": "1541800",
						"executionCost": "infinite",
						"totalCost": "infinite"
					},
					"external": {
						"add_IOU(address,uint256)": "infinite",
						"getTotalOwed(address)": "infinite",
						"lookup(address,address)": "infinite",
						"owner()": "2588",
						"renounceOwnership()": "30313",
						"transferOwnership(address)": "30725"
					},
					"internal": {
						"add_User(address)": "infinite",
						"dfs(uint256[] memory,uint256[] memory,uint256)": "infinite",
						"findUser(address)": "infinite",
						"reset()": "infinite"
					}
				},
				"methodIdentifiers": {
					"add_IOU(address,uint256)": "215accc7",
					"getTotalOwed(address)": "73851075",
					"lookup(address,address)": "713584a6",
					"owner()": "8da5cb5b",
					"renounceOwnership()": "715018a6",
					"transferOwnership(address)": "f2fde38b"
				}
			},
			"storageLayout": {
				"storage": [
					{
						"astId": 700,
						"contract": "contracts/IOU.sol:IOU",
						"label": "_owner",
						"offset": 0,
						"slot": "0",
						"type": "t_address"
					},
					{
						"astId": 38,
						"contract": "contracts/IOU.sol:IOU",
						"label": "IOUs",
						"offset": 0,
						"slot": "1",
						"type": "t_array(t_array(t_uint256)dyn_storage)dyn_storage"
					},
					{
						"astId": 42,
						"contract": "contracts/IOU.sol:IOU",
						"label": "userIDs",
						"offset": 0,
						"slot": "2",
						"type": "t_mapping(t_address,t_uint256)"
					},
					{
						"astId": 45,
						"contract": "contracts/IOU.sol:IOU",
						"label": "users",
						"offset": 0,
						"slot": "3",
						"type": "t_array(t_address)dyn_storage"
					},
					{
						"astId": 48,
						"contract": "contracts/IOU.sol:IOU",
						"label": "total_users",
						"offset": 0,
						"slot": "4",
						"type": "t_uint256"
					}
				],
				"types": {
					"t_address": {
						"encoding": "inplace",
						"label": "address",
						"numberOfBytes": "20"
					},
					"t_array(t_address)dyn_storage": {
						"base": "t_address",
						"encoding": "dynamic_array",
						"label": "address[]",
						"numberOfBytes": "32"
					},
					"t_array(t_array(t_uint256)dyn_storage)dyn_storage": {
						"base": "t_array(t_uint256)dyn_storage",
						"encoding": "dynamic_array",
						"label": "uint256[][]",
						"numberOfBytes": "32"
					},
					"t_array(t_uint256)dyn_storage": {
						"base": "t_uint256",
						"encoding": "dynamic_array",
						"label": "uint256[]",
						"numberOfBytes": "32"
					},
					"t_mapping(t_address,t_uint256)": {
						"encoding": "mapping",
						"key": "t_address",
						"label": "mapping(address => uint256)",
						"numberOfBytes": "32",
						"value": "t_uint256"
					},
					"t_uint256": {
						"encoding": "inplace",
						"label": "uint256",
						"numberOfBytes": "32"
					}
				}
			},
			"userdoc": {
				"kind": "user",
				"methods": {},
				"version": 1
			}
		}
	}
}